{
	"data": {
		"bytecode": {
			"linkReferences": {},
			"object": "6080604052662386f26fc10000600a5534801561001a575f5ffd5b50604051613496380380613496833981810160405281019061003c91906102ff565b338282815f908161004d9190610585565b50806001908161005d9190610585565b50505060016007819055505f73ffffffffffffffffffffffffffffffffffffffff168173ffffffffffffffffffffffffffffffffffffffff16036100d8575f6040517f1e4fbdf70000000000000000000000000000000000000000000000000000000081526004016100cf9190610693565b60405180910390fd5b6100e7816100ef60201b60201c565b5050506106ac565b5f60085f9054906101000a900473ffffffffffffffffffffffffffffffffffffffff1690508160085f6101000a81548173ffffffffffffffffffffffffffffffffffffffff021916908373ffffffffffffffffffffffffffffffffffffffff1602179055508173ffffffffffffffffffffffffffffffffffffffff168173ffffffffffffffffffffffffffffffffffffffff167f8be0079c531659141344cd1fd0a4f28419497f9722a3daafe3b4186f6b6457e060405160405180910390a35050565b5f604051905090565b5f5ffd5b5f5ffd5b5f5ffd5b5f5ffd5b5f601f19601f8301169050919050565b7f4e487b71000000000000000000000000000000000000000000000000000000005f52604160045260245ffd5b610211826101cb565b810181811067ffffffffffffffff821117156102305761022f6101db565b5b80604052505050565b5f6102426101b2565b905061024e8282610208565b919050565b5f67ffffffffffffffff82111561026d5761026c6101db565b5b610276826101cb565b9050602081019050919050565b8281835e5f83830152505050565b5f6102a361029e84610253565b610239565b9050828152602081018484840111156102bf576102be6101c7565b5b6102ca848285610283565b509392505050565b5f82601f8301126102e6576102e56101c3565b5b81516102f6848260208601610291565b91505092915050565b5f5f60408385031215610315576103146101bb565b5b5f83015167ffffffffffffffff811115610332576103316101bf565b5b61033e858286016102d2565b925050602083015167ffffffffffffffff81111561035f5761035e6101bf565b5b61036b858286016102d2565b9150509250929050565b5f81519050919050565b7f4e487b71000000000000000000000000000000000000000000000000000000005f52602260045260245ffd5b5f60028204905060018216806103c357607f821691505b6020821081036103d6576103d561037f565b5b50919050565b5f819050815f5260205f209050919050565b5f6020601f8301049050919050565b5f82821b905092915050565b5f600883026104387fffffffffffffffffffffffffffffffffffffffffffffffffffffffffffffffff826103fd565b61044286836103fd565b95508019841693508086168417925050509392505050565b5f819050919050565b5f819050919050565b5f61048661048161047c8461045a565b610463565b61045a565b9050919050565b5f819050919050565b61049f8361046c565b6104b36104ab8261048d565b848454610409565b825550505050565b5f5f905090565b6104ca6104bb565b6104d5818484610496565b505050565b5b818110156104f8576104ed5f826104c2565b6001810190506104db565b5050565b601f82111561053d5761050e816103dc565b610517846103ee565b81016020851015610526578190505b61053a610532856103ee565b8301826104da565b50505b505050565b5f82821c905092915050565b5f61055d5f1984600802610542565b1980831691505092915050565b5f610575838361054e565b9150826002028217905092915050565b61058e82610375565b67ffffffffffffffff8111156105a7576105a66101db565b5b6105b182546103ac565b6105bc8282856104fc565b5f60209050601f8311600181146105ed575f84156105db578287015190505b6105e5858261056a565b86555061064c565b601f1984166105fb866103dc565b5f5b82811015610622578489015182556001820191506020850194506020810190506105fd565b8683101561063f578489015161063b601f89168261054e565b8355505b6001600288020188555050505b505050505050565b5f73ffffffffffffffffffffffffffffffffffffffff82169050919050565b5f61067d82610654565b9050919050565b61068d81610673565b82525050565b5f6020820190506106a65f830184610684565b92915050565b612ddd806106b95f395ff3fe60806040526004361061012c575f3560e01c806370a08231116100aa578063b88d4fde1161006e578063b88d4fde146103cf578063c87b56dd146103f7578063d85d3d2714610433578063e985e9c514610463578063f2fde38b1461049f578063f4a0a528146104c75761012d565b806370a0823114610301578063715018a61461033d5780638da5cb5b1461035357806395d89b411461037d578063a22cb465146103a75761012d565b806323b872dd116100f157806323b872dd146102235780632e1a7d4d1461024b57806342842e0e146102735780636352211e1461029b5780636817c76c146102d75761012d565b80629a9b7b1461012f57806301ffc9a71461015957806306fdde0314610195578063081812fc146101bf578063095ea7b3146101fb5761012d565b5b005b34801561013a575f5ffd5b506101436104ef565b6040516101509190611fd7565b60405180910390f35b348015610164575f5ffd5b5061017f600480360381019061017a9190612056565b6104f8565b60405161018c919061209b565b60405180910390f35b3480156101a0575f5ffd5b506101a9610558565b6040516101b69190612124565b60405180910390f35b3480156101ca575f5ffd5b506101e560048036038101906101e0919061216e565b6105e7565b6040516101f291906121d8565b60405180910390f35b348015610206575f5ffd5b50610221600480360381019061021c919061221b565b610602565b005b34801561022e575f5ffd5b5061024960048036038101906102449190612259565b610618565b005b348015610256575f5ffd5b50610271600480360381019061026c919061216e565b610717565b005b34801561027e575f5ffd5b5061029960048036038101906102949190612259565b61087a565b005b3480156102a6575f5ffd5b506102c160048036038101906102bc919061216e565b610899565b6040516102ce91906121d8565b60405180910390f35b3480156102e2575f5ffd5b506102eb6108aa565b6040516102f89190611fd7565b60405180910390f35b34801561030c575f5ffd5b50610327600480360381019061032291906122a9565b6108b0565b6040516103349190611fd7565b60405180910390f35b348015610348575f5ffd5b50610351610966565b005b34801561035e575f5ffd5b50610367610979565b60405161037491906121d8565b60405180910390f35b348015610388575f5ffd5b506103916109a1565b60405161039e9190612124565b60405180910390f35b3480156103b2575f5ffd5b506103cd60048036038101906103c891906122fe565b610a31565b005b3480156103da575f5ffd5b506103f560048036038101906103f09190612468565b610a47565b005b348015610402575f5ffd5b5061041d6004803603810190610418919061216e565b610a64565b60405161042a9190612124565b60405180910390f35b61044d60048036038101906104489190612545565b610b6f565b60405161045a9190611fd7565b60405180910390f35b34801561046e575f5ffd5b5061048960048036038101906104849190612590565b610deb565b604051610496919061209b565b60405180910390f35b3480156104aa575f5ffd5b506104c560048036038101906104c091906122a9565b610e79565b005b3480156104d2575f5ffd5b506104ed60048036038101906104e8919061216e565b610efd565b005b5f600954905090565b5f634906490660e01b7bffffffffffffffffffffffffffffffffffffffffffffffffffffffff1916827bffffffffffffffffffffffffffffffffffffffffffffffffffffffff19161480610551575061055082610f46565b5b9050919050565b60605f8054610566906125fb565b80601f0160208091040260200160405190810160405280929190818152602001828054610592906125fb565b80156105dd5780601f106105b4576101008083540402835291602001916105dd565b820191905f5260205f20905b8154815290600101906020018083116105c057829003601f168201915b5050505050905090565b5f6105f182611027565b506105fb826110ad565b9050919050565b610614828261060f6110e6565b6110ed565b5050565b5f73ffffffffffffffffffffffffffffffffffffffff168273ffffffffffffffffffffffffffffffffffffffff1603610688575f6040517f64a0ae9200000000000000000000000000000000000000000000000000000000815260040161067f91906121d8565b60405180910390fd5b5f61069b83836106966110e6565b6110ff565b90508373ffffffffffffffffffffffffffffffffffffffff168173ffffffffffffffffffffffffffffffffffffffff1614610711578382826040517f64283d7b0000000000000000000000000000000000000000000000000000000081526004016107089392919061262b565b60405180910390fd5b50505050565b61071f61130a565b610727611391565b8047101561076a576040517f08c379a0000000000000000000000000000000000000000000000000000000008152600401610761906126aa565b60405180910390fd5b5f610773610979565b73ffffffffffffffffffffffffffffffffffffffff1682604051610796906126f5565b5f6040518083038185875af1925050503d805f81146107d0576040519150601f19603f3d011682016040523d82523d5f602084013e6107d5565b606091505b5050905080610819576040517f08c379a000000000000000000000000000000000000000000000000000000000815260040161081090612753565b60405180910390fd5b610821610979565b73ffffffffffffffffffffffffffffffffffffffff167feaff4b37086828766ad3268786972c0cd24259d4c87a80f9d3963a3c3d999b0d836040516108669190611fd7565b60405180910390a2506108776113d7565b50565b61089483838360405180602001604052805f815250610a47565b505050565b5f6108a382611027565b9050919050565b600a5481565b5f5f73ffffffffffffffffffffffffffffffffffffffff168273ffffffffffffffffffffffffffffffffffffffff1603610921575f6040517f89c62b6400000000000000000000000000000000000000000000000000000000815260040161091891906121d8565b60405180910390fd5b60035f8373ffffffffffffffffffffffffffffffffffffffff1673ffffffffffffffffffffffffffffffffffffffff1681526020019081526020015f20549050919050565b61096e61130a565b6109775f6113e1565b565b5f60085f9054906101000a900473ffffffffffffffffffffffffffffffffffffffff16905090565b6060600180546109b0906125fb565b80601f01602080910402602001604051908101604052809291908181526020018280546109dc906125fb565b8015610a275780601f106109fe57610100808354040283529160200191610a27565b820191905f5260205f20905b815481529060010190602001808311610a0a57829003601f168201915b5050505050905090565b610a43610a3c6110e6565b83836114a4565b5050565b610a52848484610618565b610a5e8484848461160d565b50505050565b6060610a6f82611027565b505f60065f8481526020019081526020015f208054610a8d906125fb565b80601f0160208091040260200160405190810160405280929190818152602001828054610ab9906125fb565b8015610b045780601f10610adb57610100808354040283529160200191610b04565b820191905f5260205f20905b815481529060010190602001808311610ae757829003601f168201915b505050505090505f610b146117bf565b90505f815103610b28578192505050610b6a565b5f82511115610b5c578082604051602001610b449291906127ab565b60405160208183030381529060405292505050610b6a565b610b65846117d5565b925050505b919050565b5f610b78611391565b600a54341015610bbd576040517f08c379a0000000000000000000000000000000000000000000000000000000008152600401610bb490612818565b60405180910390fd5b5f8383905011610c02576040517f08c379a0000000000000000000000000000000000000000000000000000000008152600401610bf990612880565b60405180910390fd5b60095f815480929190610c14906128cb565b91905055505f6009549050610c29338261183b565b610c768185858080601f0160208091040260200160405190810160405280939291908181526020018383808284375f81840152601f19601f82011690508083019250505050505050611858565b5f610c7f610979565b73ffffffffffffffffffffffffffffffffffffffff16600a54604051610ca4906126f5565b5f6040518083038185875af1925050503d805f8114610cde576040519150601f19603f3d011682016040523d82523d5f602084013e610ce3565b606091505b5050905080610d27576040517f08c379a0000000000000000000000000000000000000000000000000000000008152600401610d1e9061295c565b60405180910390fd5b600a54341115610d83573373ffffffffffffffffffffffffffffffffffffffff166108fc600a5434610d59919061297a565b90811502906040515f60405180830381858888f19350505050158015610d81573d5f5f3e3d5ffd5b505b813373ffffffffffffffffffffffffffffffffffffffff167ff5c82eda717141c5f0cfeb894e7b7819c158a337b62ec13d412aecad30b0ad9e8787600a54604051610dd0939291906129d9565b60405180910390a38192505050610de56113d7565b92915050565b5f60055f8473ffffffffffffffffffffffffffffffffffffffff1673ffffffffffffffffffffffffffffffffffffffff1681526020019081526020015f205f8373ffffffffffffffffffffffffffffffffffffffff1673ffffffffffffffffffffffffffffffffffffffff1681526020019081526020015f205f9054906101000a900460ff16905092915050565b610e8161130a565b5f73ffffffffffffffffffffffffffffffffffffffff168173ffffffffffffffffffffffffffffffffffffffff1603610ef1575f6040517f1e4fbdf7000000000000000000000000000000000000000000000000000000008152600401610ee891906121d8565b60405180910390fd5b610efa816113e1565b50565b610f0561130a565b80600a819055507f525b762709cc2a983aec5ccdfd807a061f993c91090b5bcd7da92ca254976aaa81604051610f3b9190611fd7565b60405180910390a150565b5f7f80ac58cd000000000000000000000000000000000000000000000000000000007bffffffffffffffffffffffffffffffffffffffffffffffffffffffff1916827bffffffffffffffffffffffffffffffffffffffffffffffffffffffff1916148061101057507f5b5e139f000000000000000000000000000000000000000000000000000000007bffffffffffffffffffffffffffffffffffffffffffffffffffffffff1916827bffffffffffffffffffffffffffffffffffffffffffffffffffffffff1916145b80611020575061101f826118b2565b5b9050919050565b5f5f6110328361191b565b90505f73ffffffffffffffffffffffffffffffffffffffff168173ffffffffffffffffffffffffffffffffffffffff16036110a457826040517f7e27328900000000000000000000000000000000000000000000000000000000815260040161109b9190611fd7565b60405180910390fd5b80915050919050565b5f60045f8381526020019081526020015f205f9054906101000a900473ffffffffffffffffffffffffffffffffffffffff169050919050565b5f33905090565b6110fa8383836001611954565b505050565b5f5f61110a8461191b565b90505f73ffffffffffffffffffffffffffffffffffffffff168373ffffffffffffffffffffffffffffffffffffffff161461114b5761114a818486611b13565b5b5f73ffffffffffffffffffffffffffffffffffffffff168173ffffffffffffffffffffffffffffffffffffffff16146111d65761118a5f855f5f611954565b600160035f8373ffffffffffffffffffffffffffffffffffffffff1673ffffffffffffffffffffffffffffffffffffffff1681526020019081526020015f205f82825403925050819055505b5f73ffffffffffffffffffffffffffffffffffffffff168573ffffffffffffffffffffffffffffffffffffffff161461125557600160035f8773ffffffffffffffffffffffffffffffffffffffff1673ffffffffffffffffffffffffffffffffffffffff1681526020019081526020015f205f82825401925050819055505b8460025f8681526020019081526020015f205f6101000a81548173ffffffffffffffffffffffffffffffffffffffff021916908373ffffffffffffffffffffffffffffffffffffffff160217905550838573ffffffffffffffffffffffffffffffffffffffff168273ffffffffffffffffffffffffffffffffffffffff167fddf252ad1be2c89b69c2b068fc378daa952ba7f163c4a11628f55a4df523b3ef60405160405180910390a4809150509392505050565b6113126110e6565b73ffffffffffffffffffffffffffffffffffffffff16611330610979565b73ffffffffffffffffffffffffffffffffffffffff161461138f576113536110e6565b6040517f118cdaa700000000000000000000000000000000000000000000000000000000815260040161138691906121d8565b60405180910390fd5b565b6002600754036113cd576040517f3ee5aeb500000000000000000000000000000000000000000000000000000000815260040160405180910390fd5b6002600781905550565b6001600781905550565b5f60085f9054906101000a900473ffffffffffffffffffffffffffffffffffffffff1690508160085f6101000a81548173ffffffffffffffffffffffffffffffffffffffff021916908373ffffffffffffffffffffffffffffffffffffffff1602179055508173ffffffffffffffffffffffffffffffffffffffff168173ffffffffffffffffffffffffffffffffffffffff167f8be0079c531659141344cd1fd0a4f28419497f9722a3daafe3b4186f6b6457e060405160405180910390a35050565b5f73ffffffffffffffffffffffffffffffffffffffff168273ffffffffffffffffffffffffffffffffffffffff160361151457816040517f5b08ba1800000000000000000000000000000000000000000000000000000000815260040161150b91906121d8565b60405180910390fd5b8060055f8573ffffffffffffffffffffffffffffffffffffffff1673ffffffffffffffffffffffffffffffffffffffff1681526020019081526020015f205f8473ffffffffffffffffffffffffffffffffffffffff1673ffffffffffffffffffffffffffffffffffffffff1681526020019081526020015f205f6101000a81548160ff0219169083151502179055508173ffffffffffffffffffffffffffffffffffffffff168373ffffffffffffffffffffffffffffffffffffffff167f17307eab39ab6107e8899845ad3d59bd9653f200f220920489ca2b5937696c3183604051611600919061209b565b60405180910390a3505050565b5f8373ffffffffffffffffffffffffffffffffffffffff163b11156117b9578273ffffffffffffffffffffffffffffffffffffffff1663150b7a026116506110e6565b8685856040518563ffffffff1660e01b81526004016116729493929190612a5b565b6020604051808303815f875af19250505080156116ad57506040513d601f19601f820116820180604052508101906116aa9190612ab9565b60015b61172e573d805f81146116db576040519150601f19603f3d011682016040523d82523d5f602084013e6116e0565b606091505b505f81510361172657836040517f64a0ae9200000000000000000000000000000000000000000000000000000000815260040161171d91906121d8565b60405180910390fd5b805181602001fd5b63150b7a0260e01b7bffffffffffffffffffffffffffffffffffffffffffffffffffffffff1916817bffffffffffffffffffffffffffffffffffffffffffffffffffffffff1916146117b757836040517f64a0ae920000000000000000000000000000000000000000000000000000000081526004016117ae91906121d8565b60405180910390fd5b505b50505050565b606060405180602001604052805f815250905090565b60606117e082611027565b505f6117ea6117bf565b90505f8151116118085760405180602001604052805f815250611833565b8061181284611bd6565b6040516020016118239291906127ab565b6040516020818303038152906040525b915050919050565b611854828260405180602001604052805f815250611ca0565b5050565b8060065f8481526020019081526020015f2090816118769190612c84565b507ff8e1a15aba9398e019f0b49df1a4fde98ee17ae345cb5f6b5e2c27f5033e8ce7826040516118a69190611fd7565b60405180910390a15050565b5f7f01ffc9a7000000000000000000000000000000000000000000000000000000007bffffffffffffffffffffffffffffffffffffffffffffffffffffffff1916827bffffffffffffffffffffffffffffffffffffffffffffffffffffffff1916149050919050565b5f60025f8381526020019081526020015f205f9054906101000a900473ffffffffffffffffffffffffffffffffffffffff169050919050565b808061198c57505f73ffffffffffffffffffffffffffffffffffffffff168273ffffffffffffffffffffffffffffffffffffffff1614155b15611abe575f61199b84611027565b90505f73ffffffffffffffffffffffffffffffffffffffff168373ffffffffffffffffffffffffffffffffffffffff1614158015611a0557508273ffffffffffffffffffffffffffffffffffffffff168173ffffffffffffffffffffffffffffffffffffffff1614155b8015611a185750611a168184610deb565b155b15611a5a57826040517fa9fbf51f000000000000000000000000000000000000000000000000000000008152600401611a5191906121d8565b60405180910390fd5b8115611abc57838573ffffffffffffffffffffffffffffffffffffffff168273ffffffffffffffffffffffffffffffffffffffff167f8c5be1e5ebec7d5bd14f71427d1e84f3dd0314c0f7b2291e5b200ac8c7c3b92560405160405180910390a45b505b8360045f8581526020019081526020015f205f6101000a81548173ffffffffffffffffffffffffffffffffffffffff021916908373ffffffffffffffffffffffffffffffffffffffff16021790555050505050565b611b1e838383611cbb565b611bd1575f73ffffffffffffffffffffffffffffffffffffffff168373ffffffffffffffffffffffffffffffffffffffff1603611b9257806040517f7e273289000000000000000000000000000000000000000000000000000000008152600401611b899190611fd7565b60405180910390fd5b81816040517f177e802f000000000000000000000000000000000000000000000000000000008152600401611bc8929190612d53565b60405180910390fd5b505050565b60605f6001611be484611d7b565b0190505f8167ffffffffffffffff811115611c0257611c01612344565b5b6040519080825280601f01601f191660200182016040528015611c345781602001600182028036833780820191505090505b5090505f82602001820190505b600115611c95578080600190039150507f3031323334353637383961626364656600000000000000000000000000000000600a86061a8153600a8581611c8a57611c89612d7a565b5b0494505f8503611c41575b819350505050919050565b611caa8383611ecc565b611cb65f84848461160d565b505050565b5f5f73ffffffffffffffffffffffffffffffffffffffff168373ffffffffffffffffffffffffffffffffffffffff1614158015611d7257508273ffffffffffffffffffffffffffffffffffffffff168473ffffffffffffffffffffffffffffffffffffffff161480611d335750611d328484610deb565b5b80611d7157508273ffffffffffffffffffffffffffffffffffffffff16611d59836110ad565b73ffffffffffffffffffffffffffffffffffffffff16145b5b90509392505050565b5f5f5f90507a184f03e93ff9f4daa797ed6e38ed64bf6a1f0100000000000000008310611dd7577a184f03e93ff9f4daa797ed6e38ed64bf6a1f0100000000000000008381611dcd57611dcc612d7a565b5b0492506040810190505b6d04ee2d6d415b85acef81000000008310611e14576d04ee2d6d415b85acef81000000008381611e0a57611e09612d7a565b5b0492506020810190505b662386f26fc100008310611e4357662386f26fc100008381611e3957611e38612d7a565b5b0492506010810190505b6305f5e1008310611e6c576305f5e1008381611e6257611e61612d7a565b5b0492506008810190505b6127108310611e91576127108381611e8757611e86612d7a565b5b0492506004810190505b60648310611eb45760648381611eaa57611ea9612d7a565b5b0492506002810190505b600a8310611ec3576001810190505b80915050919050565b5f73ffffffffffffffffffffffffffffffffffffffff168273ffffffffffffffffffffffffffffffffffffffff1603611f3c575f6040517f64a0ae92000000000000000000000000000000000000000000000000000000008152600401611f3391906121d8565b60405180910390fd5b5f611f4883835f6110ff565b90505f73ffffffffffffffffffffffffffffffffffffffff168173ffffffffffffffffffffffffffffffffffffffff1614611fba575f6040517f73c6ac6e000000000000000000000000000000000000000000000000000000008152600401611fb191906121d8565b60405180910390fd5b505050565b5f819050919050565b611fd181611fbf565b82525050565b5f602082019050611fea5f830184611fc8565b92915050565b5f604051905090565b5f5ffd5b5f5ffd5b5f7fffffffff0000000000000000000000000000000000000000000000000000000082169050919050565b61203581612001565b811461203f575f5ffd5b50565b5f813590506120508161202c565b92915050565b5f6020828403121561206b5761206a611ff9565b5b5f61207884828501612042565b91505092915050565b5f8115159050919050565b61209581612081565b82525050565b5f6020820190506120ae5f83018461208c565b92915050565b5f81519050919050565b5f82825260208201905092915050565b8281835e5f83830152505050565b5f601f19601f8301169050919050565b5f6120f6826120b4565b61210081856120be565b93506121108185602086016120ce565b612119816120dc565b840191505092915050565b5f6020820190508181035f83015261213c81846120ec565b905092915050565b61214d81611fbf565b8114612157575f5ffd5b50565b5f8135905061216881612144565b92915050565b5f6020828403121561218357612182611ff9565b5b5f6121908482850161215a565b91505092915050565b5f73ffffffffffffffffffffffffffffffffffffffff82169050919050565b5f6121c282612199565b9050919050565b6121d2816121b8565b82525050565b5f6020820190506121eb5f8301846121c9565b92915050565b6121fa816121b8565b8114612204575f5ffd5b50565b5f81359050612215816121f1565b92915050565b5f5f6040838503121561223157612230611ff9565b5b5f61223e85828601612207565b925050602061224f8582860161215a565b9150509250929050565b5f5f5f606084860312156122705761226f611ff9565b5b5f61227d86828701612207565b935050602061228e86828701612207565b925050604061229f8682870161215a565b9150509250925092565b5f602082840312156122be576122bd611ff9565b5b5f6122cb84828501612207565b91505092915050565b6122dd81612081565b81146122e7575f5ffd5b50565b5f813590506122f8816122d4565b92915050565b5f5f6040838503121561231457612313611ff9565b5b5f61232185828601612207565b9250506020612332858286016122ea565b9150509250929050565b5f5ffd5b5f5ffd5b7f4e487b71000000000000000000000000000000000000000000000000000000005f52604160045260245ffd5b61237a826120dc565b810181811067ffffffffffffffff8211171561239957612398612344565b5b80604052505050565b5f6123ab611ff0565b90506123b78282612371565b919050565b5f67ffffffffffffffff8211156123d6576123d5612344565b5b6123df826120dc565b9050602081019050919050565b828183375f83830152505050565b5f61240c612407846123bc565b6123a2565b90508281526020810184848401111561242857612427612340565b5b6124338482856123ec565b509392505050565b5f82601f83011261244f5761244e61233c565b5b813561245f8482602086016123fa565b91505092915050565b5f5f5f5f608085870312156124805761247f611ff9565b5b5f61248d87828801612207565b945050602061249e87828801612207565b93505060406124af8782880161215a565b925050606085013567ffffffffffffffff8111156124d0576124cf611ffd565b5b6124dc8782880161243b565b91505092959194509250565b5f5ffd5b5f5ffd5b5f5f83601f8401126125055761250461233c565b5b8235905067ffffffffffffffff811115612522576125216124e8565b5b60208301915083600182028301111561253e5761253d6124ec565b5b9250929050565b5f5f6020838503121561255b5761255a611ff9565b5b5f83013567ffffffffffffffff81111561257857612577611ffd565b5b612584858286016124f0565b92509250509250929050565b5f5f604083850312156125a6576125a5611ff9565b5b5f6125b385828601612207565b92505060206125c485828601612207565b9150509250929050565b7f4e487b71000000000000000000000000000000000000000000000000000000005f52602260045260245ffd5b5f600282049050600182168061261257607f821691505b602082108103612625576126246125ce565b5b50919050565b5f60608201905061263e5f8301866121c9565b61264b6020830185611fc8565b61265860408301846121c9565b949350505050565b7f496e73756666696369656e742062616c616e63650000000000000000000000005f82015250565b5f6126946014836120be565b915061269f82612660565b602082019050919050565b5f6020820190508181035f8301526126c181612688565b9050919050565b5f81905092915050565b50565b5f6126e05f836126c8565b91506126eb826126d2565b5f82019050919050565b5f6126ff826126d5565b9150819050919050565b7f5769746864726177206661696c656400000000000000000000000000000000005f82015250565b5f61273d600f836120be565b915061274882612709565b602082019050919050565b5f6020820190508181035f83015261276a81612731565b9050919050565b5f81905092915050565b5f612785826120b4565b61278f8185612771565b935061279f8185602086016120ce565b80840191505092915050565b5f6127b6828561277b565b91506127c2828461277b565b91508190509392505050565b7f4e6f7420656e6f7567682045544820746f206d696e74000000000000000000005f82015250565b5f6128026016836120be565b915061280d826127ce565b602082019050919050565b5f6020820190508181035f83015261282f816127f6565b9050919050565b7f546f6b656e2055524920726571756972656400000000000000000000000000005f82015250565b5f61286a6012836120be565b915061287582612836565b602082019050919050565b5f6020820190508181035f8301526128978161285e565b9050919050565b7f4e487b71000000000000000000000000000000000000000000000000000000005f52601160045260245ffd5b5f6128d582611fbf565b91507fffffffffffffffffffffffffffffffffffffffffffffffffffffffffffffffff82036129075761290661289e565b5b600182019050919050565b7f5061796d656e7420746f206f776e6572206661696c65640000000000000000005f82015250565b5f6129466017836120be565b915061295182612912565b602082019050919050565b5f6020820190508181035f8301526129738161293a565b9050919050565b5f61298482611fbf565b915061298f83611fbf565b92508282039050818111156129a7576129a661289e565b5b92915050565b5f6129b883856120be565b93506129c58385846123ec565b6129ce836120dc565b840190509392505050565b5f6040820190508181035f8301526129f28185876129ad565b9050612a016020830184611fc8565b949350505050565b5f81519050919050565b5f82825260208201905092915050565b5f612a2d82612a09565b612a378185612a13565b9350612a478185602086016120ce565b612a50816120dc565b840191505092915050565b5f608082019050612a6e5f8301876121c9565b612a7b60208301866121c9565b612a886040830185611fc8565b8181036060830152612a9a8184612a23565b905095945050505050565b5f81519050612ab38161202c565b92915050565b5f60208284031215612ace57612acd611ff9565b5b5f612adb84828501612aa5565b91505092915050565b5f819050815f5260205f209050919050565b5f6020601f8301049050919050565b5f82821b905092915050565b5f60088302612b407fffffffffffffffffffffffffffffffffffffffffffffffffffffffffffffffff82612b05565b612b4a8683612b05565b95508019841693508086168417925050509392505050565b5f819050919050565b5f612b85612b80612b7b84611fbf565b612b62565b611fbf565b9050919050565b5f819050919050565b612b9e83612b6b565b612bb2612baa82612b8c565b848454612b11565b825550505050565b5f5f905090565b612bc9612bba565b612bd4818484612b95565b505050565b5b81811015612bf757612bec5f82612bc1565b600181019050612bda565b5050565b601f821115612c3c57612c0d81612ae4565b612c1684612af6565b81016020851015612c25578190505b612c39612c3185612af6565b830182612bd9565b50505b505050565b5f82821c905092915050565b5f612c5c5f1984600802612c41565b1980831691505092915050565b5f612c748383612c4d565b9150826002028217905092915050565b612c8d826120b4565b67ffffffffffffffff811115612ca657612ca5612344565b5b612cb082546125fb565b612cbb828285612bfb565b5f60209050601f831160018114612cec575f8415612cda578287015190505b612ce48582612c69565b865550612d4b565b601f198416612cfa86612ae4565b5f5b82811015612d2157848901518255600182019150602085019450602081019050612cfc565b86831015612d3e5784890151612d3a601f891682612c4d565b8355505b6001600288020188555050505b505050505050565b5f604082019050612d665f8301856121c9565b612d736020830184611fc8565b9392505050565b7f4e487b71000000000000000000000000000000000000000000000000000000005f52601260045260245ffdfea26469706673582212209674939ac2820b13b0ef648a489629095ce621f65a7914f516cde144ae6a151c64736f6c634300081e0033",
			"opcodes": "PUSH1 0x80 PUSH1 0x40 MSTORE PUSH7 0x2386F26FC10000 PUSH1 0xA SSTORE CALLVALUE DUP1 ISZERO PUSH2 0x1A JUMPI PUSH0 PUSH0 REVERT JUMPDEST POP PUSH1 0x40 MLOAD PUSH2 0x3496 CODESIZE SUB DUP1 PUSH2 0x3496 DUP4 CODECOPY DUP2 DUP2 ADD PUSH1 0x40 MSTORE DUP2 ADD SWAP1 PUSH2 0x3C SWAP2 SWAP1 PUSH2 0x2FF JUMP JUMPDEST CALLER DUP3 DUP3 DUP2 PUSH0 SWAP1 DUP2 PUSH2 0x4D SWAP2 SWAP1 PUSH2 0x585 JUMP JUMPDEST POP DUP1 PUSH1 0x1 SWAP1 DUP2 PUSH2 0x5D SWAP2 SWAP1 PUSH2 0x585 JUMP JUMPDEST POP POP POP PUSH1 0x1 PUSH1 0x7 DUP2 SWAP1 SSTORE POP PUSH0 PUSH20 0xFFFFFFFFFFFFFFFFFFFFFFFFFFFFFFFFFFFFFFFF AND DUP2 PUSH20 0xFFFFFFFFFFFFFFFFFFFFFFFFFFFFFFFFFFFFFFFF AND SUB PUSH2 0xD8 JUMPI PUSH0 PUSH1 0x40 MLOAD PUSH32 0x1E4FBDF700000000000000000000000000000000000000000000000000000000 DUP2 MSTORE PUSH1 0x4 ADD PUSH2 0xCF SWAP2 SWAP1 PUSH2 0x693 JUMP JUMPDEST PUSH1 0x40 MLOAD DUP1 SWAP2 SUB SWAP1 REVERT JUMPDEST PUSH2 0xE7 DUP2 PUSH2 0xEF PUSH1 0x20 SHL PUSH1 0x20 SHR JUMP JUMPDEST POP POP POP PUSH2 0x6AC JUMP JUMPDEST PUSH0 PUSH1 0x8 PUSH0 SWAP1 SLOAD SWAP1 PUSH2 0x100 EXP SWAP1 DIV PUSH20 0xFFFFFFFFFFFFFFFFFFFFFFFFFFFFFFFFFFFFFFFF AND SWAP1 POP DUP2 PUSH1 0x8 PUSH0 PUSH2 0x100 EXP DUP2 SLOAD DUP2 PUSH20 0xFFFFFFFFFFFFFFFFFFFFFFFFFFFFFFFFFFFFFFFF MUL NOT AND SWAP1 DUP4 PUSH20 0xFFFFFFFFFFFFFFFFFFFFFFFFFFFFFFFFFFFFFFFF AND MUL OR SWAP1 SSTORE POP DUP2 PUSH20 0xFFFFFFFFFFFFFFFFFFFFFFFFFFFFFFFFFFFFFFFF AND DUP2 PUSH20 0xFFFFFFFFFFFFFFFFFFFFFFFFFFFFFFFFFFFFFFFF AND PUSH32 0x8BE0079C531659141344CD1FD0A4F28419497F9722A3DAAFE3B4186F6B6457E0 PUSH1 0x40 MLOAD PUSH1 0x40 MLOAD DUP1 SWAP2 SUB SWAP1 LOG3 POP POP JUMP JUMPDEST PUSH0 PUSH1 0x40 MLOAD SWAP1 POP SWAP1 JUMP JUMPDEST PUSH0 PUSH0 REVERT JUMPDEST PUSH0 PUSH0 REVERT JUMPDEST PUSH0 PUSH0 REVERT JUMPDEST PUSH0 PUSH0 REVERT JUMPDEST PUSH0 PUSH1 0x1F NOT PUSH1 0x1F DUP4 ADD AND SWAP1 POP SWAP2 SWAP1 POP JUMP JUMPDEST PUSH32 0x4E487B7100000000000000000000000000000000000000000000000000000000 PUSH0 MSTORE PUSH1 0x41 PUSH1 0x4 MSTORE PUSH1 0x24 PUSH0 REVERT JUMPDEST PUSH2 0x211 DUP3 PUSH2 0x1CB JUMP JUMPDEST DUP2 ADD DUP2 DUP2 LT PUSH8 0xFFFFFFFFFFFFFFFF DUP3 GT OR ISZERO PUSH2 0x230 JUMPI PUSH2 0x22F PUSH2 0x1DB JUMP JUMPDEST JUMPDEST DUP1 PUSH1 0x40 MSTORE POP POP POP JUMP JUMPDEST PUSH0 PUSH2 0x242 PUSH2 0x1B2 JUMP JUMPDEST SWAP1 POP PUSH2 0x24E DUP3 DUP3 PUSH2 0x208 JUMP JUMPDEST SWAP2 SWAP1 POP JUMP JUMPDEST PUSH0 PUSH8 0xFFFFFFFFFFFFFFFF DUP3 GT ISZERO PUSH2 0x26D JUMPI PUSH2 0x26C PUSH2 0x1DB JUMP JUMPDEST JUMPDEST PUSH2 0x276 DUP3 PUSH2 0x1CB JUMP JUMPDEST SWAP1 POP PUSH1 0x20 DUP2 ADD SWAP1 POP SWAP2 SWAP1 POP JUMP JUMPDEST DUP3 DUP2 DUP4 MCOPY PUSH0 DUP4 DUP4 ADD MSTORE POP POP POP JUMP JUMPDEST PUSH0 PUSH2 0x2A3 PUSH2 0x29E DUP5 PUSH2 0x253 JUMP JUMPDEST PUSH2 0x239 JUMP JUMPDEST SWAP1 POP DUP3 DUP2 MSTORE PUSH1 0x20 DUP2 ADD DUP5 DUP5 DUP5 ADD GT ISZERO PUSH2 0x2BF JUMPI PUSH2 0x2BE PUSH2 0x1C7 JUMP JUMPDEST JUMPDEST PUSH2 0x2CA DUP5 DUP3 DUP6 PUSH2 0x283 JUMP JUMPDEST POP SWAP4 SWAP3 POP POP POP JUMP JUMPDEST PUSH0 DUP3 PUSH1 0x1F DUP4 ADD SLT PUSH2 0x2E6 JUMPI PUSH2 0x2E5 PUSH2 0x1C3 JUMP JUMPDEST JUMPDEST DUP2 MLOAD PUSH2 0x2F6 DUP5 DUP3 PUSH1 0x20 DUP7 ADD PUSH2 0x291 JUMP JUMPDEST SWAP2 POP POP SWAP3 SWAP2 POP POP JUMP JUMPDEST PUSH0 PUSH0 PUSH1 0x40 DUP4 DUP6 SUB SLT ISZERO PUSH2 0x315 JUMPI PUSH2 0x314 PUSH2 0x1BB JUMP JUMPDEST JUMPDEST PUSH0 DUP4 ADD MLOAD PUSH8 0xFFFFFFFFFFFFFFFF DUP2 GT ISZERO PUSH2 0x332 JUMPI PUSH2 0x331 PUSH2 0x1BF JUMP JUMPDEST JUMPDEST PUSH2 0x33E DUP6 DUP3 DUP7 ADD PUSH2 0x2D2 JUMP JUMPDEST SWAP3 POP POP PUSH1 0x20 DUP4 ADD MLOAD PUSH8 0xFFFFFFFFFFFFFFFF DUP2 GT ISZERO PUSH2 0x35F JUMPI PUSH2 0x35E PUSH2 0x1BF JUMP JUMPDEST JUMPDEST PUSH2 0x36B DUP6 DUP3 DUP7 ADD PUSH2 0x2D2 JUMP JUMPDEST SWAP2 POP POP SWAP3 POP SWAP3 SWAP1 POP JUMP JUMPDEST PUSH0 DUP2 MLOAD SWAP1 POP SWAP2 SWAP1 POP JUMP JUMPDEST PUSH32 0x4E487B7100000000000000000000000000000000000000000000000000000000 PUSH0 MSTORE PUSH1 0x22 PUSH1 0x4 MSTORE PUSH1 0x24 PUSH0 REVERT JUMPDEST PUSH0 PUSH1 0x2 DUP3 DIV SWAP1 POP PUSH1 0x1 DUP3 AND DUP1 PUSH2 0x3C3 JUMPI PUSH1 0x7F DUP3 AND SWAP2 POP JUMPDEST PUSH1 0x20 DUP3 LT DUP2 SUB PUSH2 0x3D6 JUMPI PUSH2 0x3D5 PUSH2 0x37F JUMP JUMPDEST JUMPDEST POP SWAP2 SWAP1 POP JUMP JUMPDEST PUSH0 DUP2 SWAP1 POP DUP2 PUSH0 MSTORE PUSH1 0x20 PUSH0 KECCAK256 SWAP1 POP SWAP2 SWAP1 POP JUMP JUMPDEST PUSH0 PUSH1 0x20 PUSH1 0x1F DUP4 ADD DIV SWAP1 POP SWAP2 SWAP1 POP JUMP JUMPDEST PUSH0 DUP3 DUP3 SHL SWAP1 POP SWAP3 SWAP2 POP POP JUMP JUMPDEST PUSH0 PUSH1 0x8 DUP4 MUL PUSH2 0x438 PUSH32 0xFFFFFFFFFFFFFFFFFFFFFFFFFFFFFFFFFFFFFFFFFFFFFFFFFFFFFFFFFFFFFFFF DUP3 PUSH2 0x3FD JUMP JUMPDEST PUSH2 0x442 DUP7 DUP4 PUSH2 0x3FD JUMP JUMPDEST SWAP6 POP DUP1 NOT DUP5 AND SWAP4 POP DUP1 DUP7 AND DUP5 OR SWAP3 POP POP POP SWAP4 SWAP3 POP POP POP JUMP JUMPDEST PUSH0 DUP2 SWAP1 POP SWAP2 SWAP1 POP JUMP JUMPDEST PUSH0 DUP2 SWAP1 POP SWAP2 SWAP1 POP JUMP JUMPDEST PUSH0 PUSH2 0x486 PUSH2 0x481 PUSH2 0x47C DUP5 PUSH2 0x45A JUMP JUMPDEST PUSH2 0x463 JUMP JUMPDEST PUSH2 0x45A JUMP JUMPDEST SWAP1 POP SWAP2 SWAP1 POP JUMP JUMPDEST PUSH0 DUP2 SWAP1 POP SWAP2 SWAP1 POP JUMP JUMPDEST PUSH2 0x49F DUP4 PUSH2 0x46C JUMP JUMPDEST PUSH2 0x4B3 PUSH2 0x4AB DUP3 PUSH2 0x48D JUMP JUMPDEST DUP5 DUP5 SLOAD PUSH2 0x409 JUMP JUMPDEST DUP3 SSTORE POP POP POP POP JUMP JUMPDEST PUSH0 PUSH0 SWAP1 POP SWAP1 JUMP JUMPDEST PUSH2 0x4CA PUSH2 0x4BB JUMP JUMPDEST PUSH2 0x4D5 DUP2 DUP5 DUP5 PUSH2 0x496 JUMP JUMPDEST POP POP POP JUMP JUMPDEST JUMPDEST DUP2 DUP2 LT ISZERO PUSH2 0x4F8 JUMPI PUSH2 0x4ED PUSH0 DUP3 PUSH2 0x4C2 JUMP JUMPDEST PUSH1 0x1 DUP2 ADD SWAP1 POP PUSH2 0x4DB JUMP JUMPDEST POP POP JUMP JUMPDEST PUSH1 0x1F DUP3 GT ISZERO PUSH2 0x53D JUMPI PUSH2 0x50E DUP2 PUSH2 0x3DC JUMP JUMPDEST PUSH2 0x517 DUP5 PUSH2 0x3EE JUMP JUMPDEST DUP2 ADD PUSH1 0x20 DUP6 LT ISZERO PUSH2 0x526 JUMPI DUP2 SWAP1 POP JUMPDEST PUSH2 0x53A PUSH2 0x532 DUP6 PUSH2 0x3EE JUMP JUMPDEST DUP4 ADD DUP3 PUSH2 0x4DA JUMP JUMPDEST POP POP JUMPDEST POP POP POP JUMP JUMPDEST PUSH0 DUP3 DUP3 SHR SWAP1 POP SWAP3 SWAP2 POP POP JUMP JUMPDEST PUSH0 PUSH2 0x55D PUSH0 NOT DUP5 PUSH1 0x8 MUL PUSH2 0x542 JUMP JUMPDEST NOT DUP1 DUP4 AND SWAP2 POP POP SWAP3 SWAP2 POP POP JUMP JUMPDEST PUSH0 PUSH2 0x575 DUP4 DUP4 PUSH2 0x54E JUMP JUMPDEST SWAP2 POP DUP3 PUSH1 0x2 MUL DUP3 OR SWAP1 POP SWAP3 SWAP2 POP POP JUMP JUMPDEST PUSH2 0x58E DUP3 PUSH2 0x375 JUMP JUMPDEST PUSH8 0xFFFFFFFFFFFFFFFF DUP2 GT ISZERO PUSH2 0x5A7 JUMPI PUSH2 0x5A6 PUSH2 0x1DB JUMP JUMPDEST JUMPDEST PUSH2 0x5B1 DUP3 SLOAD PUSH2 0x3AC JUMP JUMPDEST PUSH2 0x5BC DUP3 DUP3 DUP6 PUSH2 0x4FC JUMP JUMPDEST PUSH0 PUSH1 0x20 SWAP1 POP PUSH1 0x1F DUP4 GT PUSH1 0x1 DUP2 EQ PUSH2 0x5ED JUMPI PUSH0 DUP5 ISZERO PUSH2 0x5DB JUMPI DUP3 DUP8 ADD MLOAD SWAP1 POP JUMPDEST PUSH2 0x5E5 DUP6 DUP3 PUSH2 0x56A JUMP JUMPDEST DUP7 SSTORE POP PUSH2 0x64C JUMP JUMPDEST PUSH1 0x1F NOT DUP5 AND PUSH2 0x5FB DUP7 PUSH2 0x3DC JUMP JUMPDEST PUSH0 JUMPDEST DUP3 DUP2 LT ISZERO PUSH2 0x622 JUMPI DUP5 DUP10 ADD MLOAD DUP3 SSTORE PUSH1 0x1 DUP3 ADD SWAP2 POP PUSH1 0x20 DUP6 ADD SWAP5 POP PUSH1 0x20 DUP2 ADD SWAP1 POP PUSH2 0x5FD JUMP JUMPDEST DUP7 DUP4 LT ISZERO PUSH2 0x63F JUMPI DUP5 DUP10 ADD MLOAD PUSH2 0x63B PUSH1 0x1F DUP10 AND DUP3 PUSH2 0x54E JUMP JUMPDEST DUP4 SSTORE POP JUMPDEST PUSH1 0x1 PUSH1 0x2 DUP9 MUL ADD DUP9 SSTORE POP POP POP JUMPDEST POP POP POP POP POP POP JUMP JUMPDEST PUSH0 PUSH20 0xFFFFFFFFFFFFFFFFFFFFFFFFFFFFFFFFFFFFFFFF DUP3 AND SWAP1 POP SWAP2 SWAP1 POP JUMP JUMPDEST PUSH0 PUSH2 0x67D DUP3 PUSH2 0x654 JUMP JUMPDEST SWAP1 POP SWAP2 SWAP1 POP JUMP JUMPDEST PUSH2 0x68D DUP2 PUSH2 0x673 JUMP JUMPDEST DUP3 MSTORE POP POP JUMP JUMPDEST PUSH0 PUSH1 0x20 DUP3 ADD SWAP1 POP PUSH2 0x6A6 PUSH0 DUP4 ADD DUP5 PUSH2 0x684 JUMP JUMPDEST SWAP3 SWAP2 POP POP JUMP JUMPDEST PUSH2 0x2DDD DUP1 PUSH2 0x6B9 PUSH0 CODECOPY PUSH0 RETURN INVALID PUSH1 0x80 PUSH1 0x40 MSTORE PUSH1 0x4 CALLDATASIZE LT PUSH2 0x12C JUMPI PUSH0 CALLDATALOAD PUSH1 0xE0 SHR DUP1 PUSH4 0x70A08231 GT PUSH2 0xAA JUMPI DUP1 PUSH4 0xB88D4FDE GT PUSH2 0x6E JUMPI DUP1 PUSH4 0xB88D4FDE EQ PUSH2 0x3CF JUMPI DUP1 PUSH4 0xC87B56DD EQ PUSH2 0x3F7 JUMPI DUP1 PUSH4 0xD85D3D27 EQ PUSH2 0x433 JUMPI DUP1 PUSH4 0xE985E9C5 EQ PUSH2 0x463 JUMPI DUP1 PUSH4 0xF2FDE38B EQ PUSH2 0x49F JUMPI DUP1 PUSH4 0xF4A0A528 EQ PUSH2 0x4C7 JUMPI PUSH2 0x12D JUMP JUMPDEST DUP1 PUSH4 0x70A08231 EQ PUSH2 0x301 JUMPI DUP1 PUSH4 0x715018A6 EQ PUSH2 0x33D JUMPI DUP1 PUSH4 0x8DA5CB5B EQ PUSH2 0x353 JUMPI DUP1 PUSH4 0x95D89B41 EQ PUSH2 0x37D JUMPI DUP1 PUSH4 0xA22CB465 EQ PUSH2 0x3A7 JUMPI PUSH2 0x12D JUMP JUMPDEST DUP1 PUSH4 0x23B872DD GT PUSH2 0xF1 JUMPI DUP1 PUSH4 0x23B872DD EQ PUSH2 0x223 JUMPI DUP1 PUSH4 0x2E1A7D4D EQ PUSH2 0x24B JUMPI DUP1 PUSH4 0x42842E0E EQ PUSH2 0x273 JUMPI DUP1 PUSH4 0x6352211E EQ PUSH2 0x29B JUMPI DUP1 PUSH4 0x6817C76C EQ PUSH2 0x2D7 JUMPI PUSH2 0x12D JUMP JUMPDEST DUP1 PUSH3 0x9A9B7B EQ PUSH2 0x12F JUMPI DUP1 PUSH4 0x1FFC9A7 EQ PUSH2 0x159 JUMPI DUP1 PUSH4 0x6FDDE03 EQ PUSH2 0x195 JUMPI DUP1 PUSH4 0x81812FC EQ PUSH2 0x1BF JUMPI DUP1 PUSH4 0x95EA7B3 EQ PUSH2 0x1FB JUMPI PUSH2 0x12D JUMP JUMPDEST JUMPDEST STOP JUMPDEST CALLVALUE DUP1 ISZERO PUSH2 0x13A JUMPI PUSH0 PUSH0 REVERT JUMPDEST POP PUSH2 0x143 PUSH2 0x4EF JUMP JUMPDEST PUSH1 0x40 MLOAD PUSH2 0x150 SWAP2 SWAP1 PUSH2 0x1FD7 JUMP JUMPDEST PUSH1 0x40 MLOAD DUP1 SWAP2 SUB SWAP1 RETURN JUMPDEST CALLVALUE DUP1 ISZERO PUSH2 0x164 JUMPI PUSH0 PUSH0 REVERT JUMPDEST POP PUSH2 0x17F PUSH1 0x4 DUP1 CALLDATASIZE SUB DUP2 ADD SWAP1 PUSH2 0x17A SWAP2 SWAP1 PUSH2 0x2056 JUMP JUMPDEST PUSH2 0x4F8 JUMP JUMPDEST PUSH1 0x40 MLOAD PUSH2 0x18C SWAP2 SWAP1 PUSH2 0x209B JUMP JUMPDEST PUSH1 0x40 MLOAD DUP1 SWAP2 SUB SWAP1 RETURN JUMPDEST CALLVALUE DUP1 ISZERO PUSH2 0x1A0 JUMPI PUSH0 PUSH0 REVERT JUMPDEST POP PUSH2 0x1A9 PUSH2 0x558 JUMP JUMPDEST PUSH1 0x40 MLOAD PUSH2 0x1B6 SWAP2 SWAP1 PUSH2 0x2124 JUMP JUMPDEST PUSH1 0x40 MLOAD DUP1 SWAP2 SUB SWAP1 RETURN JUMPDEST CALLVALUE DUP1 ISZERO PUSH2 0x1CA JUMPI PUSH0 PUSH0 REVERT JUMPDEST POP PUSH2 0x1E5 PUSH1 0x4 DUP1 CALLDATASIZE SUB DUP2 ADD SWAP1 PUSH2 0x1E0 SWAP2 SWAP1 PUSH2 0x216E JUMP JUMPDEST PUSH2 0x5E7 JUMP JUMPDEST PUSH1 0x40 MLOAD PUSH2 0x1F2 SWAP2 SWAP1 PUSH2 0x21D8 JUMP JUMPDEST PUSH1 0x40 MLOAD DUP1 SWAP2 SUB SWAP1 RETURN JUMPDEST CALLVALUE DUP1 ISZERO PUSH2 0x206 JUMPI PUSH0 PUSH0 REVERT JUMPDEST POP PUSH2 0x221 PUSH1 0x4 DUP1 CALLDATASIZE SUB DUP2 ADD SWAP1 PUSH2 0x21C SWAP2 SWAP1 PUSH2 0x221B JUMP JUMPDEST PUSH2 0x602 JUMP JUMPDEST STOP JUMPDEST CALLVALUE DUP1 ISZERO PUSH2 0x22E JUMPI PUSH0 PUSH0 REVERT JUMPDEST POP PUSH2 0x249 PUSH1 0x4 DUP1 CALLDATASIZE SUB DUP2 ADD SWAP1 PUSH2 0x244 SWAP2 SWAP1 PUSH2 0x2259 JUMP JUMPDEST PUSH2 0x618 JUMP JUMPDEST STOP JUMPDEST CALLVALUE DUP1 ISZERO PUSH2 0x256 JUMPI PUSH0 PUSH0 REVERT JUMPDEST POP PUSH2 0x271 PUSH1 0x4 DUP1 CALLDATASIZE SUB DUP2 ADD SWAP1 PUSH2 0x26C SWAP2 SWAP1 PUSH2 0x216E JUMP JUMPDEST PUSH2 0x717 JUMP JUMPDEST STOP JUMPDEST CALLVALUE DUP1 ISZERO PUSH2 0x27E JUMPI PUSH0 PUSH0 REVERT JUMPDEST POP PUSH2 0x299 PUSH1 0x4 DUP1 CALLDATASIZE SUB DUP2 ADD SWAP1 PUSH2 0x294 SWAP2 SWAP1 PUSH2 0x2259 JUMP JUMPDEST PUSH2 0x87A JUMP JUMPDEST STOP JUMPDEST CALLVALUE DUP1 ISZERO PUSH2 0x2A6 JUMPI PUSH0 PUSH0 REVERT JUMPDEST POP PUSH2 0x2C1 PUSH1 0x4 DUP1 CALLDATASIZE SUB DUP2 ADD SWAP1 PUSH2 0x2BC SWAP2 SWAP1 PUSH2 0x216E JUMP JUMPDEST PUSH2 0x899 JUMP JUMPDEST PUSH1 0x40 MLOAD PUSH2 0x2CE SWAP2 SWAP1 PUSH2 0x21D8 JUMP JUMPDEST PUSH1 0x40 MLOAD DUP1 SWAP2 SUB SWAP1 RETURN JUMPDEST CALLVALUE DUP1 ISZERO PUSH2 0x2E2 JUMPI PUSH0 PUSH0 REVERT JUMPDEST POP PUSH2 0x2EB PUSH2 0x8AA JUMP JUMPDEST PUSH1 0x40 MLOAD PUSH2 0x2F8 SWAP2 SWAP1 PUSH2 0x1FD7 JUMP JUMPDEST PUSH1 0x40 MLOAD DUP1 SWAP2 SUB SWAP1 RETURN JUMPDEST CALLVALUE DUP1 ISZERO PUSH2 0x30C JUMPI PUSH0 PUSH0 REVERT JUMPDEST POP PUSH2 0x327 PUSH1 0x4 DUP1 CALLDATASIZE SUB DUP2 ADD SWAP1 PUSH2 0x322 SWAP2 SWAP1 PUSH2 0x22A9 JUMP JUMPDEST PUSH2 0x8B0 JUMP JUMPDEST PUSH1 0x40 MLOAD PUSH2 0x334 SWAP2 SWAP1 PUSH2 0x1FD7 JUMP JUMPDEST PUSH1 0x40 MLOAD DUP1 SWAP2 SUB SWAP1 RETURN JUMPDEST CALLVALUE DUP1 ISZERO PUSH2 0x348 JUMPI PUSH0 PUSH0 REVERT JUMPDEST POP PUSH2 0x351 PUSH2 0x966 JUMP JUMPDEST STOP JUMPDEST CALLVALUE DUP1 ISZERO PUSH2 0x35E JUMPI PUSH0 PUSH0 REVERT JUMPDEST POP PUSH2 0x367 PUSH2 0x979 JUMP JUMPDEST PUSH1 0x40 MLOAD PUSH2 0x374 SWAP2 SWAP1 PUSH2 0x21D8 JUMP JUMPDEST PUSH1 0x40 MLOAD DUP1 SWAP2 SUB SWAP1 RETURN JUMPDEST CALLVALUE DUP1 ISZERO PUSH2 0x388 JUMPI PUSH0 PUSH0 REVERT JUMPDEST POP PUSH2 0x391 PUSH2 0x9A1 JUMP JUMPDEST PUSH1 0x40 MLOAD PUSH2 0x39E SWAP2 SWAP1 PUSH2 0x2124 JUMP JUMPDEST PUSH1 0x40 MLOAD DUP1 SWAP2 SUB SWAP1 RETURN JUMPDEST CALLVALUE DUP1 ISZERO PUSH2 0x3B2 JUMPI PUSH0 PUSH0 REVERT JUMPDEST POP PUSH2 0x3CD PUSH1 0x4 DUP1 CALLDATASIZE SUB DUP2 ADD SWAP1 PUSH2 0x3C8 SWAP2 SWAP1 PUSH2 0x22FE JUMP JUMPDEST PUSH2 0xA31 JUMP JUMPDEST STOP JUMPDEST CALLVALUE DUP1 ISZERO PUSH2 0x3DA JUMPI PUSH0 PUSH0 REVERT JUMPDEST POP PUSH2 0x3F5 PUSH1 0x4 DUP1 CALLDATASIZE SUB DUP2 ADD SWAP1 PUSH2 0x3F0 SWAP2 SWAP1 PUSH2 0x2468 JUMP JUMPDEST PUSH2 0xA47 JUMP JUMPDEST STOP JUMPDEST CALLVALUE DUP1 ISZERO PUSH2 0x402 JUMPI PUSH0 PUSH0 REVERT JUMPDEST POP PUSH2 0x41D PUSH1 0x4 DUP1 CALLDATASIZE SUB DUP2 ADD SWAP1 PUSH2 0x418 SWAP2 SWAP1 PUSH2 0x216E JUMP JUMPDEST PUSH2 0xA64 JUMP JUMPDEST PUSH1 0x40 MLOAD PUSH2 0x42A SWAP2 SWAP1 PUSH2 0x2124 JUMP JUMPDEST PUSH1 0x40 MLOAD DUP1 SWAP2 SUB SWAP1 RETURN JUMPDEST PUSH2 0x44D PUSH1 0x4 DUP1 CALLDATASIZE SUB DUP2 ADD SWAP1 PUSH2 0x448 SWAP2 SWAP1 PUSH2 0x2545 JUMP JUMPDEST PUSH2 0xB6F JUMP JUMPDEST PUSH1 0x40 MLOAD PUSH2 0x45A SWAP2 SWAP1 PUSH2 0x1FD7 JUMP JUMPDEST PUSH1 0x40 MLOAD DUP1 SWAP2 SUB SWAP1 RETURN JUMPDEST CALLVALUE DUP1 ISZERO PUSH2 0x46E JUMPI PUSH0 PUSH0 REVERT JUMPDEST POP PUSH2 0x489 PUSH1 0x4 DUP1 CALLDATASIZE SUB DUP2 ADD SWAP1 PUSH2 0x484 SWAP2 SWAP1 PUSH2 0x2590 JUMP JUMPDEST PUSH2 0xDEB JUMP JUMPDEST PUSH1 0x40 MLOAD PUSH2 0x496 SWAP2 SWAP1 PUSH2 0x209B JUMP JUMPDEST PUSH1 0x40 MLOAD DUP1 SWAP2 SUB SWAP1 RETURN JUMPDEST CALLVALUE DUP1 ISZERO PUSH2 0x4AA JUMPI PUSH0 PUSH0 REVERT JUMPDEST POP PUSH2 0x4C5 PUSH1 0x4 DUP1 CALLDATASIZE SUB DUP2 ADD SWAP1 PUSH2 0x4C0 SWAP2 SWAP1 PUSH2 0x22A9 JUMP JUMPDEST PUSH2 0xE79 JUMP JUMPDEST STOP JUMPDEST CALLVALUE DUP1 ISZERO PUSH2 0x4D2 JUMPI PUSH0 PUSH0 REVERT JUMPDEST POP PUSH2 0x4ED PUSH1 0x4 DUP1 CALLDATASIZE SUB DUP2 ADD SWAP1 PUSH2 0x4E8 SWAP2 SWAP1 PUSH2 0x216E JUMP JUMPDEST PUSH2 0xEFD JUMP JUMPDEST STOP JUMPDEST PUSH0 PUSH1 0x9 SLOAD SWAP1 POP SWAP1 JUMP JUMPDEST PUSH0 PUSH4 0x49064906 PUSH1 0xE0 SHL PUSH28 0xFFFFFFFFFFFFFFFFFFFFFFFFFFFFFFFFFFFFFFFFFFFFFFFFFFFFFFFF NOT AND DUP3 PUSH28 0xFFFFFFFFFFFFFFFFFFFFFFFFFFFFFFFFFFFFFFFFFFFFFFFFFFFFFFFF NOT AND EQ DUP1 PUSH2 0x551 JUMPI POP PUSH2 0x550 DUP3 PUSH2 0xF46 JUMP JUMPDEST JUMPDEST SWAP1 POP SWAP2 SWAP1 POP JUMP JUMPDEST PUSH1 0x60 PUSH0 DUP1 SLOAD PUSH2 0x566 SWAP1 PUSH2 0x25FB JUMP JUMPDEST DUP1 PUSH1 0x1F ADD PUSH1 0x20 DUP1 SWAP2 DIV MUL PUSH1 0x20 ADD PUSH1 0x40 MLOAD SWAP1 DUP2 ADD PUSH1 0x40 MSTORE DUP1 SWAP3 SWAP2 SWAP1 DUP2 DUP2 MSTORE PUSH1 0x20 ADD DUP3 DUP1 SLOAD PUSH2 0x592 SWAP1 PUSH2 0x25FB JUMP JUMPDEST DUP1 ISZERO PUSH2 0x5DD JUMPI DUP1 PUSH1 0x1F LT PUSH2 0x5B4 JUMPI PUSH2 0x100 DUP1 DUP4 SLOAD DIV MUL DUP4 MSTORE SWAP2 PUSH1 0x20 ADD SWAP2 PUSH2 0x5DD JUMP JUMPDEST DUP3 ADD SWAP2 SWAP1 PUSH0 MSTORE PUSH1 0x20 PUSH0 KECCAK256 SWAP1 JUMPDEST DUP2 SLOAD DUP2 MSTORE SWAP1 PUSH1 0x1 ADD SWAP1 PUSH1 0x20 ADD DUP1 DUP4 GT PUSH2 0x5C0 JUMPI DUP3 SWAP1 SUB PUSH1 0x1F AND DUP3 ADD SWAP2 JUMPDEST POP POP POP POP POP SWAP1 POP SWAP1 JUMP JUMPDEST PUSH0 PUSH2 0x5F1 DUP3 PUSH2 0x1027 JUMP JUMPDEST POP PUSH2 0x5FB DUP3 PUSH2 0x10AD JUMP JUMPDEST SWAP1 POP SWAP2 SWAP1 POP JUMP JUMPDEST PUSH2 0x614 DUP3 DUP3 PUSH2 0x60F PUSH2 0x10E6 JUMP JUMPDEST PUSH2 0x10ED JUMP JUMPDEST POP POP JUMP JUMPDEST PUSH0 PUSH20 0xFFFFFFFFFFFFFFFFFFFFFFFFFFFFFFFFFFFFFFFF AND DUP3 PUSH20 0xFFFFFFFFFFFFFFFFFFFFFFFFFFFFFFFFFFFFFFFF AND SUB PUSH2 0x688 JUMPI PUSH0 PUSH1 0x40 MLOAD PUSH32 0x64A0AE9200000000000000000000000000000000000000000000000000000000 DUP2 MSTORE PUSH1 0x4 ADD PUSH2 0x67F SWAP2 SWAP1 PUSH2 0x21D8 JUMP JUMPDEST PUSH1 0x40 MLOAD DUP1 SWAP2 SUB SWAP1 REVERT JUMPDEST PUSH0 PUSH2 0x69B DUP4 DUP4 PUSH2 0x696 PUSH2 0x10E6 JUMP JUMPDEST PUSH2 0x10FF JUMP JUMPDEST SWAP1 POP DUP4 PUSH20 0xFFFFFFFFFFFFFFFFFFFFFFFFFFFFFFFFFFFFFFFF AND DUP2 PUSH20 0xFFFFFFFFFFFFFFFFFFFFFFFFFFFFFFFFFFFFFFFF AND EQ PUSH2 0x711 JUMPI DUP4 DUP3 DUP3 PUSH1 0x40 MLOAD PUSH32 0x64283D7B00000000000000000000000000000000000000000000000000000000 DUP2 MSTORE PUSH1 0x4 ADD PUSH2 0x708 SWAP4 SWAP3 SWAP2 SWAP1 PUSH2 0x262B JUMP JUMPDEST PUSH1 0x40 MLOAD DUP1 SWAP2 SUB SWAP1 REVERT JUMPDEST POP POP POP POP JUMP JUMPDEST PUSH2 0x71F PUSH2 0x130A JUMP JUMPDEST PUSH2 0x727 PUSH2 0x1391 JUMP JUMPDEST DUP1 SELFBALANCE LT ISZERO PUSH2 0x76A JUMPI PUSH1 0x40 MLOAD PUSH32 0x8C379A000000000000000000000000000000000000000000000000000000000 DUP2 MSTORE PUSH1 0x4 ADD PUSH2 0x761 SWAP1 PUSH2 0x26AA JUMP JUMPDEST PUSH1 0x40 MLOAD DUP1 SWAP2 SUB SWAP1 REVERT JUMPDEST PUSH0 PUSH2 0x773 PUSH2 0x979 JUMP JUMPDEST PUSH20 0xFFFFFFFFFFFFFFFFFFFFFFFFFFFFFFFFFFFFFFFF AND DUP3 PUSH1 0x40 MLOAD PUSH2 0x796 SWAP1 PUSH2 0x26F5 JUMP JUMPDEST PUSH0 PUSH1 0x40 MLOAD DUP1 DUP4 SUB DUP2 DUP6 DUP8 GAS CALL SWAP3 POP POP POP RETURNDATASIZE DUP1 PUSH0 DUP2 EQ PUSH2 0x7D0 JUMPI PUSH1 0x40 MLOAD SWAP2 POP PUSH1 0x1F NOT PUSH1 0x3F RETURNDATASIZE ADD AND DUP3 ADD PUSH1 0x40 MSTORE RETURNDATASIZE DUP3 MSTORE RETURNDATASIZE PUSH0 PUSH1 0x20 DUP5 ADD RETURNDATACOPY PUSH2 0x7D5 JUMP JUMPDEST PUSH1 0x60 SWAP2 POP JUMPDEST POP POP SWAP1 POP DUP1 PUSH2 0x819 JUMPI PUSH1 0x40 MLOAD PUSH32 0x8C379A000000000000000000000000000000000000000000000000000000000 DUP2 MSTORE PUSH1 0x4 ADD PUSH2 0x810 SWAP1 PUSH2 0x2753 JUMP JUMPDEST PUSH1 0x40 MLOAD DUP1 SWAP2 SUB SWAP1 REVERT JUMPDEST PUSH2 0x821 PUSH2 0x979 JUMP JUMPDEST PUSH20 0xFFFFFFFFFFFFFFFFFFFFFFFFFFFFFFFFFFFFFFFF AND PUSH32 0xEAFF4B37086828766AD3268786972C0CD24259D4C87A80F9D3963A3C3D999B0D DUP4 PUSH1 0x40 MLOAD PUSH2 0x866 SWAP2 SWAP1 PUSH2 0x1FD7 JUMP JUMPDEST PUSH1 0x40 MLOAD DUP1 SWAP2 SUB SWAP1 LOG2 POP PUSH2 0x877 PUSH2 0x13D7 JUMP JUMPDEST POP JUMP JUMPDEST PUSH2 0x894 DUP4 DUP4 DUP4 PUSH1 0x40 MLOAD DUP1 PUSH1 0x20 ADD PUSH1 0x40 MSTORE DUP1 PUSH0 DUP2 MSTORE POP PUSH2 0xA47 JUMP JUMPDEST POP POP POP JUMP JUMPDEST PUSH0 PUSH2 0x8A3 DUP3 PUSH2 0x1027 JUMP JUMPDEST SWAP1 POP SWAP2 SWAP1 POP JUMP JUMPDEST PUSH1 0xA SLOAD DUP2 JUMP JUMPDEST PUSH0 PUSH0 PUSH20 0xFFFFFFFFFFFFFFFFFFFFFFFFFFFFFFFFFFFFFFFF AND DUP3 PUSH20 0xFFFFFFFFFFFFFFFFFFFFFFFFFFFFFFFFFFFFFFFF AND SUB PUSH2 0x921 JUMPI PUSH0 PUSH1 0x40 MLOAD PUSH32 0x89C62B6400000000000000000000000000000000000000000000000000000000 DUP2 MSTORE PUSH1 0x4 ADD PUSH2 0x918 SWAP2 SWAP1 PUSH2 0x21D8 JUMP JUMPDEST PUSH1 0x40 MLOAD DUP1 SWAP2 SUB SWAP1 REVERT JUMPDEST PUSH1 0x3 PUSH0 DUP4 PUSH20 0xFFFFFFFFFFFFFFFFFFFFFFFFFFFFFFFFFFFFFFFF AND PUSH20 0xFFFFFFFFFFFFFFFFFFFFFFFFFFFFFFFFFFFFFFFF AND DUP2 MSTORE PUSH1 0x20 ADD SWAP1 DUP2 MSTORE PUSH1 0x20 ADD PUSH0 KECCAK256 SLOAD SWAP1 POP SWAP2 SWAP1 POP JUMP JUMPDEST PUSH2 0x96E PUSH2 0x130A JUMP JUMPDEST PUSH2 0x977 PUSH0 PUSH2 0x13E1 JUMP JUMPDEST JUMP JUMPDEST PUSH0 PUSH1 0x8 PUSH0 SWAP1 SLOAD SWAP1 PUSH2 0x100 EXP SWAP1 DIV PUSH20 0xFFFFFFFFFFFFFFFFFFFFFFFFFFFFFFFFFFFFFFFF AND SWAP1 POP SWAP1 JUMP JUMPDEST PUSH1 0x60 PUSH1 0x1 DUP1 SLOAD PUSH2 0x9B0 SWAP1 PUSH2 0x25FB JUMP JUMPDEST DUP1 PUSH1 0x1F ADD PUSH1 0x20 DUP1 SWAP2 DIV MUL PUSH1 0x20 ADD PUSH1 0x40 MLOAD SWAP1 DUP2 ADD PUSH1 0x40 MSTORE DUP1 SWAP3 SWAP2 SWAP1 DUP2 DUP2 MSTORE PUSH1 0x20 ADD DUP3 DUP1 SLOAD PUSH2 0x9DC SWAP1 PUSH2 0x25FB JUMP JUMPDEST DUP1 ISZERO PUSH2 0xA27 JUMPI DUP1 PUSH1 0x1F LT PUSH2 0x9FE JUMPI PUSH2 0x100 DUP1 DUP4 SLOAD DIV MUL DUP4 MSTORE SWAP2 PUSH1 0x20 ADD SWAP2 PUSH2 0xA27 JUMP JUMPDEST DUP3 ADD SWAP2 SWAP1 PUSH0 MSTORE PUSH1 0x20 PUSH0 KECCAK256 SWAP1 JUMPDEST DUP2 SLOAD DUP2 MSTORE SWAP1 PUSH1 0x1 ADD SWAP1 PUSH1 0x20 ADD DUP1 DUP4 GT PUSH2 0xA0A JUMPI DUP3 SWAP1 SUB PUSH1 0x1F AND DUP3 ADD SWAP2 JUMPDEST POP POP POP POP POP SWAP1 POP SWAP1 JUMP JUMPDEST PUSH2 0xA43 PUSH2 0xA3C PUSH2 0x10E6 JUMP JUMPDEST DUP4 DUP4 PUSH2 0x14A4 JUMP JUMPDEST POP POP JUMP JUMPDEST PUSH2 0xA52 DUP5 DUP5 DUP5 PUSH2 0x618 JUMP JUMPDEST PUSH2 0xA5E DUP5 DUP5 DUP5 DUP5 PUSH2 0x160D JUMP JUMPDEST POP POP POP POP JUMP JUMPDEST PUSH1 0x60 PUSH2 0xA6F DUP3 PUSH2 0x1027 JUMP JUMPDEST POP PUSH0 PUSH1 0x6 PUSH0 DUP5 DUP2 MSTORE PUSH1 0x20 ADD SWAP1 DUP2 MSTORE PUSH1 0x20 ADD PUSH0 KECCAK256 DUP1 SLOAD PUSH2 0xA8D SWAP1 PUSH2 0x25FB JUMP JUMPDEST DUP1 PUSH1 0x1F ADD PUSH1 0x20 DUP1 SWAP2 DIV MUL PUSH1 0x20 ADD PUSH1 0x40 MLOAD SWAP1 DUP2 ADD PUSH1 0x40 MSTORE DUP1 SWAP3 SWAP2 SWAP1 DUP2 DUP2 MSTORE PUSH1 0x20 ADD DUP3 DUP1 SLOAD PUSH2 0xAB9 SWAP1 PUSH2 0x25FB JUMP JUMPDEST DUP1 ISZERO PUSH2 0xB04 JUMPI DUP1 PUSH1 0x1F LT PUSH2 0xADB JUMPI PUSH2 0x100 DUP1 DUP4 SLOAD DIV MUL DUP4 MSTORE SWAP2 PUSH1 0x20 ADD SWAP2 PUSH2 0xB04 JUMP JUMPDEST DUP3 ADD SWAP2 SWAP1 PUSH0 MSTORE PUSH1 0x20 PUSH0 KECCAK256 SWAP1 JUMPDEST DUP2 SLOAD DUP2 MSTORE SWAP1 PUSH1 0x1 ADD SWAP1 PUSH1 0x20 ADD DUP1 DUP4 GT PUSH2 0xAE7 JUMPI DUP3 SWAP1 SUB PUSH1 0x1F AND DUP3 ADD SWAP2 JUMPDEST POP POP POP POP POP SWAP1 POP PUSH0 PUSH2 0xB14 PUSH2 0x17BF JUMP JUMPDEST SWAP1 POP PUSH0 DUP2 MLOAD SUB PUSH2 0xB28 JUMPI DUP2 SWAP3 POP POP POP PUSH2 0xB6A JUMP JUMPDEST PUSH0 DUP3 MLOAD GT ISZERO PUSH2 0xB5C JUMPI DUP1 DUP3 PUSH1 0x40 MLOAD PUSH1 0x20 ADD PUSH2 0xB44 SWAP3 SWAP2 SWAP1 PUSH2 0x27AB JUMP JUMPDEST PUSH1 0x40 MLOAD PUSH1 0x20 DUP2 DUP4 SUB SUB DUP2 MSTORE SWAP1 PUSH1 0x40 MSTORE SWAP3 POP POP POP PUSH2 0xB6A JUMP JUMPDEST PUSH2 0xB65 DUP5 PUSH2 0x17D5 JUMP JUMPDEST SWAP3 POP POP POP JUMPDEST SWAP2 SWAP1 POP JUMP JUMPDEST PUSH0 PUSH2 0xB78 PUSH2 0x1391 JUMP JUMPDEST PUSH1 0xA SLOAD CALLVALUE LT ISZERO PUSH2 0xBBD JUMPI PUSH1 0x40 MLOAD PUSH32 0x8C379A000000000000000000000000000000000000000000000000000000000 DUP2 MSTORE PUSH1 0x4 ADD PUSH2 0xBB4 SWAP1 PUSH2 0x2818 JUMP JUMPDEST PUSH1 0x40 MLOAD DUP1 SWAP2 SUB SWAP1 REVERT JUMPDEST PUSH0 DUP4 DUP4 SWAP1 POP GT PUSH2 0xC02 JUMPI PUSH1 0x40 MLOAD PUSH32 0x8C379A000000000000000000000000000000000000000000000000000000000 DUP2 MSTORE PUSH1 0x4 ADD PUSH2 0xBF9 SWAP1 PUSH2 0x2880 JUMP JUMPDEST PUSH1 0x40 MLOAD DUP1 SWAP2 SUB SWAP1 REVERT JUMPDEST PUSH1 0x9 PUSH0 DUP2 SLOAD DUP1 SWAP3 SWAP2 SWAP1 PUSH2 0xC14 SWAP1 PUSH2 0x28CB JUMP JUMPDEST SWAP2 SWAP1 POP SSTORE POP PUSH0 PUSH1 0x9 SLOAD SWAP1 POP PUSH2 0xC29 CALLER DUP3 PUSH2 0x183B JUMP JUMPDEST PUSH2 0xC76 DUP2 DUP6 DUP6 DUP1 DUP1 PUSH1 0x1F ADD PUSH1 0x20 DUP1 SWAP2 DIV MUL PUSH1 0x20 ADD PUSH1 0x40 MLOAD SWAP1 DUP2 ADD PUSH1 0x40 MSTORE DUP1 SWAP4 SWAP3 SWAP2 SWAP1 DUP2 DUP2 MSTORE PUSH1 0x20 ADD DUP4 DUP4 DUP1 DUP3 DUP5 CALLDATACOPY PUSH0 DUP2 DUP5 ADD MSTORE PUSH1 0x1F NOT PUSH1 0x1F DUP3 ADD AND SWAP1 POP DUP1 DUP4 ADD SWAP3 POP POP POP POP POP POP POP PUSH2 0x1858 JUMP JUMPDEST PUSH0 PUSH2 0xC7F PUSH2 0x979 JUMP JUMPDEST PUSH20 0xFFFFFFFFFFFFFFFFFFFFFFFFFFFFFFFFFFFFFFFF AND PUSH1 0xA SLOAD PUSH1 0x40 MLOAD PUSH2 0xCA4 SWAP1 PUSH2 0x26F5 JUMP JUMPDEST PUSH0 PUSH1 0x40 MLOAD DUP1 DUP4 SUB DUP2 DUP6 DUP8 GAS CALL SWAP3 POP POP POP RETURNDATASIZE DUP1 PUSH0 DUP2 EQ PUSH2 0xCDE JUMPI PUSH1 0x40 MLOAD SWAP2 POP PUSH1 0x1F NOT PUSH1 0x3F RETURNDATASIZE ADD AND DUP3 ADD PUSH1 0x40 MSTORE RETURNDATASIZE DUP3 MSTORE RETURNDATASIZE PUSH0 PUSH1 0x20 DUP5 ADD RETURNDATACOPY PUSH2 0xCE3 JUMP JUMPDEST PUSH1 0x60 SWAP2 POP JUMPDEST POP POP SWAP1 POP DUP1 PUSH2 0xD27 JUMPI PUSH1 0x40 MLOAD PUSH32 0x8C379A000000000000000000000000000000000000000000000000000000000 DUP2 MSTORE PUSH1 0x4 ADD PUSH2 0xD1E SWAP1 PUSH2 0x295C JUMP JUMPDEST PUSH1 0x40 MLOAD DUP1 SWAP2 SUB SWAP1 REVERT JUMPDEST PUSH1 0xA SLOAD CALLVALUE GT ISZERO PUSH2 0xD83 JUMPI CALLER PUSH20 0xFFFFFFFFFFFFFFFFFFFFFFFFFFFFFFFFFFFFFFFF AND PUSH2 0x8FC PUSH1 0xA SLOAD CALLVALUE PUSH2 0xD59 SWAP2 SWAP1 PUSH2 0x297A JUMP JUMPDEST SWAP1 DUP2 ISZERO MUL SWAP1 PUSH1 0x40 MLOAD PUSH0 PUSH1 0x40 MLOAD DUP1 DUP4 SUB DUP2 DUP6 DUP9 DUP9 CALL SWAP4 POP POP POP POP ISZERO DUP1 ISZERO PUSH2 0xD81 JUMPI RETURNDATASIZE PUSH0 PUSH0 RETURNDATACOPY RETURNDATASIZE PUSH0 REVERT JUMPDEST POP JUMPDEST DUP2 CALLER PUSH20 0xFFFFFFFFFFFFFFFFFFFFFFFFFFFFFFFFFFFFFFFF AND PUSH32 0xF5C82EDA717141C5F0CFEB894E7B7819C158A337B62EC13D412AECAD30B0AD9E DUP8 DUP8 PUSH1 0xA SLOAD PUSH1 0x40 MLOAD PUSH2 0xDD0 SWAP4 SWAP3 SWAP2 SWAP1 PUSH2 0x29D9 JUMP JUMPDEST PUSH1 0x40 MLOAD DUP1 SWAP2 SUB SWAP1 LOG3 DUP2 SWAP3 POP POP POP PUSH2 0xDE5 PUSH2 0x13D7 JUMP JUMPDEST SWAP3 SWAP2 POP POP JUMP JUMPDEST PUSH0 PUSH1 0x5 PUSH0 DUP5 PUSH20 0xFFFFFFFFFFFFFFFFFFFFFFFFFFFFFFFFFFFFFFFF AND PUSH20 0xFFFFFFFFFFFFFFFFFFFFFFFFFFFFFFFFFFFFFFFF AND DUP2 MSTORE PUSH1 0x20 ADD SWAP1 DUP2 MSTORE PUSH1 0x20 ADD PUSH0 KECCAK256 PUSH0 DUP4 PUSH20 0xFFFFFFFFFFFFFFFFFFFFFFFFFFFFFFFFFFFFFFFF AND PUSH20 0xFFFFFFFFFFFFFFFFFFFFFFFFFFFFFFFFFFFFFFFF AND DUP2 MSTORE PUSH1 0x20 ADD SWAP1 DUP2 MSTORE PUSH1 0x20 ADD PUSH0 KECCAK256 PUSH0 SWAP1 SLOAD SWAP1 PUSH2 0x100 EXP SWAP1 DIV PUSH1 0xFF AND SWAP1 POP SWAP3 SWAP2 POP POP JUMP JUMPDEST PUSH2 0xE81 PUSH2 0x130A JUMP JUMPDEST PUSH0 PUSH20 0xFFFFFFFFFFFFFFFFFFFFFFFFFFFFFFFFFFFFFFFF AND DUP2 PUSH20 0xFFFFFFFFFFFFFFFFFFFFFFFFFFFFFFFFFFFFFFFF AND SUB PUSH2 0xEF1 JUMPI PUSH0 PUSH1 0x40 MLOAD PUSH32 0x1E4FBDF700000000000000000000000000000000000000000000000000000000 DUP2 MSTORE PUSH1 0x4 ADD PUSH2 0xEE8 SWAP2 SWAP1 PUSH2 0x21D8 JUMP JUMPDEST PUSH1 0x40 MLOAD DUP1 SWAP2 SUB SWAP1 REVERT JUMPDEST PUSH2 0xEFA DUP2 PUSH2 0x13E1 JUMP JUMPDEST POP JUMP JUMPDEST PUSH2 0xF05 PUSH2 0x130A JUMP JUMPDEST DUP1 PUSH1 0xA DUP2 SWAP1 SSTORE POP PUSH32 0x525B762709CC2A983AEC5CCDFD807A061F993C91090B5BCD7DA92CA254976AAA DUP2 PUSH1 0x40 MLOAD PUSH2 0xF3B SWAP2 SWAP1 PUSH2 0x1FD7 JUMP JUMPDEST PUSH1 0x40 MLOAD DUP1 SWAP2 SUB SWAP1 LOG1 POP JUMP JUMPDEST PUSH0 PUSH32 0x80AC58CD00000000000000000000000000000000000000000000000000000000 PUSH28 0xFFFFFFFFFFFFFFFFFFFFFFFFFFFFFFFFFFFFFFFFFFFFFFFFFFFFFFFF NOT AND DUP3 PUSH28 0xFFFFFFFFFFFFFFFFFFFFFFFFFFFFFFFFFFFFFFFFFFFFFFFFFFFFFFFF NOT AND EQ DUP1 PUSH2 0x1010 JUMPI POP PUSH32 0x5B5E139F00000000000000000000000000000000000000000000000000000000 PUSH28 0xFFFFFFFFFFFFFFFFFFFFFFFFFFFFFFFFFFFFFFFFFFFFFFFFFFFFFFFF NOT AND DUP3 PUSH28 0xFFFFFFFFFFFFFFFFFFFFFFFFFFFFFFFFFFFFFFFFFFFFFFFFFFFFFFFF NOT AND EQ JUMPDEST DUP1 PUSH2 0x1020 JUMPI POP PUSH2 0x101F DUP3 PUSH2 0x18B2 JUMP JUMPDEST JUMPDEST SWAP1 POP SWAP2 SWAP1 POP JUMP JUMPDEST PUSH0 PUSH0 PUSH2 0x1032 DUP4 PUSH2 0x191B JUMP JUMPDEST SWAP1 POP PUSH0 PUSH20 0xFFFFFFFFFFFFFFFFFFFFFFFFFFFFFFFFFFFFFFFF AND DUP2 PUSH20 0xFFFFFFFFFFFFFFFFFFFFFFFFFFFFFFFFFFFFFFFF AND SUB PUSH2 0x10A4 JUMPI DUP3 PUSH1 0x40 MLOAD PUSH32 0x7E27328900000000000000000000000000000000000000000000000000000000 DUP2 MSTORE PUSH1 0x4 ADD PUSH2 0x109B SWAP2 SWAP1 PUSH2 0x1FD7 JUMP JUMPDEST PUSH1 0x40 MLOAD DUP1 SWAP2 SUB SWAP1 REVERT JUMPDEST DUP1 SWAP2 POP POP SWAP2 SWAP1 POP JUMP JUMPDEST PUSH0 PUSH1 0x4 PUSH0 DUP4 DUP2 MSTORE PUSH1 0x20 ADD SWAP1 DUP2 MSTORE PUSH1 0x20 ADD PUSH0 KECCAK256 PUSH0 SWAP1 SLOAD SWAP1 PUSH2 0x100 EXP SWAP1 DIV PUSH20 0xFFFFFFFFFFFFFFFFFFFFFFFFFFFFFFFFFFFFFFFF AND SWAP1 POP SWAP2 SWAP1 POP JUMP JUMPDEST PUSH0 CALLER SWAP1 POP SWAP1 JUMP JUMPDEST PUSH2 0x10FA DUP4 DUP4 DUP4 PUSH1 0x1 PUSH2 0x1954 JUMP JUMPDEST POP POP POP JUMP JUMPDEST PUSH0 PUSH0 PUSH2 0x110A DUP5 PUSH2 0x191B JUMP JUMPDEST SWAP1 POP PUSH0 PUSH20 0xFFFFFFFFFFFFFFFFFFFFFFFFFFFFFFFFFFFFFFFF AND DUP4 PUSH20 0xFFFFFFFFFFFFFFFFFFFFFFFFFFFFFFFFFFFFFFFF AND EQ PUSH2 0x114B JUMPI PUSH2 0x114A DUP2 DUP5 DUP7 PUSH2 0x1B13 JUMP JUMPDEST JUMPDEST PUSH0 PUSH20 0xFFFFFFFFFFFFFFFFFFFFFFFFFFFFFFFFFFFFFFFF AND DUP2 PUSH20 0xFFFFFFFFFFFFFFFFFFFFFFFFFFFFFFFFFFFFFFFF AND EQ PUSH2 0x11D6 JUMPI PUSH2 0x118A PUSH0 DUP6 PUSH0 PUSH0 PUSH2 0x1954 JUMP JUMPDEST PUSH1 0x1 PUSH1 0x3 PUSH0 DUP4 PUSH20 0xFFFFFFFFFFFFFFFFFFFFFFFFFFFFFFFFFFFFFFFF AND PUSH20 0xFFFFFFFFFFFFFFFFFFFFFFFFFFFFFFFFFFFFFFFF AND DUP2 MSTORE PUSH1 0x20 ADD SWAP1 DUP2 MSTORE PUSH1 0x20 ADD PUSH0 KECCAK256 PUSH0 DUP3 DUP3 SLOAD SUB SWAP3 POP POP DUP2 SWAP1 SSTORE POP JUMPDEST PUSH0 PUSH20 0xFFFFFFFFFFFFFFFFFFFFFFFFFFFFFFFFFFFFFFFF AND DUP6 PUSH20 0xFFFFFFFFFFFFFFFFFFFFFFFFFFFFFFFFFFFFFFFF AND EQ PUSH2 0x1255 JUMPI PUSH1 0x1 PUSH1 0x3 PUSH0 DUP8 PUSH20 0xFFFFFFFFFFFFFFFFFFFFFFFFFFFFFFFFFFFFFFFF AND PUSH20 0xFFFFFFFFFFFFFFFFFFFFFFFFFFFFFFFFFFFFFFFF AND DUP2 MSTORE PUSH1 0x20 ADD SWAP1 DUP2 MSTORE PUSH1 0x20 ADD PUSH0 KECCAK256 PUSH0 DUP3 DUP3 SLOAD ADD SWAP3 POP POP DUP2 SWAP1 SSTORE POP JUMPDEST DUP5 PUSH1 0x2 PUSH0 DUP7 DUP2 MSTORE PUSH1 0x20 ADD SWAP1 DUP2 MSTORE PUSH1 0x20 ADD PUSH0 KECCAK256 PUSH0 PUSH2 0x100 EXP DUP2 SLOAD DUP2 PUSH20 0xFFFFFFFFFFFFFFFFFFFFFFFFFFFFFFFFFFFFFFFF MUL NOT AND SWAP1 DUP4 PUSH20 0xFFFFFFFFFFFFFFFFFFFFFFFFFFFFFFFFFFFFFFFF AND MUL OR SWAP1 SSTORE POP DUP4 DUP6 PUSH20 0xFFFFFFFFFFFFFFFFFFFFFFFFFFFFFFFFFFFFFFFF AND DUP3 PUSH20 0xFFFFFFFFFFFFFFFFFFFFFFFFFFFFFFFFFFFFFFFF AND PUSH32 0xDDF252AD1BE2C89B69C2B068FC378DAA952BA7F163C4A11628F55A4DF523B3EF PUSH1 0x40 MLOAD PUSH1 0x40 MLOAD DUP1 SWAP2 SUB SWAP1 LOG4 DUP1 SWAP2 POP POP SWAP4 SWAP3 POP POP POP JUMP JUMPDEST PUSH2 0x1312 PUSH2 0x10E6 JUMP JUMPDEST PUSH20 0xFFFFFFFFFFFFFFFFFFFFFFFFFFFFFFFFFFFFFFFF AND PUSH2 0x1330 PUSH2 0x979 JUMP JUMPDEST PUSH20 0xFFFFFFFFFFFFFFFFFFFFFFFFFFFFFFFFFFFFFFFF AND EQ PUSH2 0x138F JUMPI PUSH2 0x1353 PUSH2 0x10E6 JUMP JUMPDEST PUSH1 0x40 MLOAD PUSH32 0x118CDAA700000000000000000000000000000000000000000000000000000000 DUP2 MSTORE PUSH1 0x4 ADD PUSH2 0x1386 SWAP2 SWAP1 PUSH2 0x21D8 JUMP JUMPDEST PUSH1 0x40 MLOAD DUP1 SWAP2 SUB SWAP1 REVERT JUMPDEST JUMP JUMPDEST PUSH1 0x2 PUSH1 0x7 SLOAD SUB PUSH2 0x13CD JUMPI PUSH1 0x40 MLOAD PUSH32 0x3EE5AEB500000000000000000000000000000000000000000000000000000000 DUP2 MSTORE PUSH1 0x4 ADD PUSH1 0x40 MLOAD DUP1 SWAP2 SUB SWAP1 REVERT JUMPDEST PUSH1 0x2 PUSH1 0x7 DUP2 SWAP1 SSTORE POP JUMP JUMPDEST PUSH1 0x1 PUSH1 0x7 DUP2 SWAP1 SSTORE POP JUMP JUMPDEST PUSH0 PUSH1 0x8 PUSH0 SWAP1 SLOAD SWAP1 PUSH2 0x100 EXP SWAP1 DIV PUSH20 0xFFFFFFFFFFFFFFFFFFFFFFFFFFFFFFFFFFFFFFFF AND SWAP1 POP DUP2 PUSH1 0x8 PUSH0 PUSH2 0x100 EXP DUP2 SLOAD DUP2 PUSH20 0xFFFFFFFFFFFFFFFFFFFFFFFFFFFFFFFFFFFFFFFF MUL NOT AND SWAP1 DUP4 PUSH20 0xFFFFFFFFFFFFFFFFFFFFFFFFFFFFFFFFFFFFFFFF AND MUL OR SWAP1 SSTORE POP DUP2 PUSH20 0xFFFFFFFFFFFFFFFFFFFFFFFFFFFFFFFFFFFFFFFF AND DUP2 PUSH20 0xFFFFFFFFFFFFFFFFFFFFFFFFFFFFFFFFFFFFFFFF AND PUSH32 0x8BE0079C531659141344CD1FD0A4F28419497F9722A3DAAFE3B4186F6B6457E0 PUSH1 0x40 MLOAD PUSH1 0x40 MLOAD DUP1 SWAP2 SUB SWAP1 LOG3 POP POP JUMP JUMPDEST PUSH0 PUSH20 0xFFFFFFFFFFFFFFFFFFFFFFFFFFFFFFFFFFFFFFFF AND DUP3 PUSH20 0xFFFFFFFFFFFFFFFFFFFFFFFFFFFFFFFFFFFFFFFF AND SUB PUSH2 0x1514 JUMPI DUP2 PUSH1 0x40 MLOAD PUSH32 0x5B08BA1800000000000000000000000000000000000000000000000000000000 DUP2 MSTORE PUSH1 0x4 ADD PUSH2 0x150B SWAP2 SWAP1 PUSH2 0x21D8 JUMP JUMPDEST PUSH1 0x40 MLOAD DUP1 SWAP2 SUB SWAP1 REVERT JUMPDEST DUP1 PUSH1 0x5 PUSH0 DUP6 PUSH20 0xFFFFFFFFFFFFFFFFFFFFFFFFFFFFFFFFFFFFFFFF AND PUSH20 0xFFFFFFFFFFFFFFFFFFFFFFFFFFFFFFFFFFFFFFFF AND DUP2 MSTORE PUSH1 0x20 ADD SWAP1 DUP2 MSTORE PUSH1 0x20 ADD PUSH0 KECCAK256 PUSH0 DUP5 PUSH20 0xFFFFFFFFFFFFFFFFFFFFFFFFFFFFFFFFFFFFFFFF AND PUSH20 0xFFFFFFFFFFFFFFFFFFFFFFFFFFFFFFFFFFFFFFFF AND DUP2 MSTORE PUSH1 0x20 ADD SWAP1 DUP2 MSTORE PUSH1 0x20 ADD PUSH0 KECCAK256 PUSH0 PUSH2 0x100 EXP DUP2 SLOAD DUP2 PUSH1 0xFF MUL NOT AND SWAP1 DUP4 ISZERO ISZERO MUL OR SWAP1 SSTORE POP DUP2 PUSH20 0xFFFFFFFFFFFFFFFFFFFFFFFFFFFFFFFFFFFFFFFF AND DUP4 PUSH20 0xFFFFFFFFFFFFFFFFFFFFFFFFFFFFFFFFFFFFFFFF AND PUSH32 0x17307EAB39AB6107E8899845AD3D59BD9653F200F220920489CA2B5937696C31 DUP4 PUSH1 0x40 MLOAD PUSH2 0x1600 SWAP2 SWAP1 PUSH2 0x209B JUMP JUMPDEST PUSH1 0x40 MLOAD DUP1 SWAP2 SUB SWAP1 LOG3 POP POP POP JUMP JUMPDEST PUSH0 DUP4 PUSH20 0xFFFFFFFFFFFFFFFFFFFFFFFFFFFFFFFFFFFFFFFF AND EXTCODESIZE GT ISZERO PUSH2 0x17B9 JUMPI DUP3 PUSH20 0xFFFFFFFFFFFFFFFFFFFFFFFFFFFFFFFFFFFFFFFF AND PUSH4 0x150B7A02 PUSH2 0x1650 PUSH2 0x10E6 JUMP JUMPDEST DUP7 DUP6 DUP6 PUSH1 0x40 MLOAD DUP6 PUSH4 0xFFFFFFFF AND PUSH1 0xE0 SHL DUP2 MSTORE PUSH1 0x4 ADD PUSH2 0x1672 SWAP5 SWAP4 SWAP3 SWAP2 SWAP1 PUSH2 0x2A5B JUMP JUMPDEST PUSH1 0x20 PUSH1 0x40 MLOAD DUP1 DUP4 SUB DUP2 PUSH0 DUP8 GAS CALL SWAP3 POP POP POP DUP1 ISZERO PUSH2 0x16AD JUMPI POP PUSH1 0x40 MLOAD RETURNDATASIZE PUSH1 0x1F NOT PUSH1 0x1F DUP3 ADD AND DUP3 ADD DUP1 PUSH1 0x40 MSTORE POP DUP2 ADD SWAP1 PUSH2 0x16AA SWAP2 SWAP1 PUSH2 0x2AB9 JUMP JUMPDEST PUSH1 0x1 JUMPDEST PUSH2 0x172E JUMPI RETURNDATASIZE DUP1 PUSH0 DUP2 EQ PUSH2 0x16DB JUMPI PUSH1 0x40 MLOAD SWAP2 POP PUSH1 0x1F NOT PUSH1 0x3F RETURNDATASIZE ADD AND DUP3 ADD PUSH1 0x40 MSTORE RETURNDATASIZE DUP3 MSTORE RETURNDATASIZE PUSH0 PUSH1 0x20 DUP5 ADD RETURNDATACOPY PUSH2 0x16E0 JUMP JUMPDEST PUSH1 0x60 SWAP2 POP JUMPDEST POP PUSH0 DUP2 MLOAD SUB PUSH2 0x1726 JUMPI DUP4 PUSH1 0x40 MLOAD PUSH32 0x64A0AE9200000000000000000000000000000000000000000000000000000000 DUP2 MSTORE PUSH1 0x4 ADD PUSH2 0x171D SWAP2 SWAP1 PUSH2 0x21D8 JUMP JUMPDEST PUSH1 0x40 MLOAD DUP1 SWAP2 SUB SWAP1 REVERT JUMPDEST DUP1 MLOAD DUP2 PUSH1 0x20 ADD REVERT JUMPDEST PUSH4 0x150B7A02 PUSH1 0xE0 SHL PUSH28 0xFFFFFFFFFFFFFFFFFFFFFFFFFFFFFFFFFFFFFFFFFFFFFFFFFFFFFFFF NOT AND DUP2 PUSH28 0xFFFFFFFFFFFFFFFFFFFFFFFFFFFFFFFFFFFFFFFFFFFFFFFFFFFFFFFF NOT AND EQ PUSH2 0x17B7 JUMPI DUP4 PUSH1 0x40 MLOAD PUSH32 0x64A0AE9200000000000000000000000000000000000000000000000000000000 DUP2 MSTORE PUSH1 0x4 ADD PUSH2 0x17AE SWAP2 SWAP1 PUSH2 0x21D8 JUMP JUMPDEST PUSH1 0x40 MLOAD DUP1 SWAP2 SUB SWAP1 REVERT JUMPDEST POP JUMPDEST POP POP POP POP JUMP JUMPDEST PUSH1 0x60 PUSH1 0x40 MLOAD DUP1 PUSH1 0x20 ADD PUSH1 0x40 MSTORE DUP1 PUSH0 DUP2 MSTORE POP SWAP1 POP SWAP1 JUMP JUMPDEST PUSH1 0x60 PUSH2 0x17E0 DUP3 PUSH2 0x1027 JUMP JUMPDEST POP PUSH0 PUSH2 0x17EA PUSH2 0x17BF JUMP JUMPDEST SWAP1 POP PUSH0 DUP2 MLOAD GT PUSH2 0x1808 JUMPI PUSH1 0x40 MLOAD DUP1 PUSH1 0x20 ADD PUSH1 0x40 MSTORE DUP1 PUSH0 DUP2 MSTORE POP PUSH2 0x1833 JUMP JUMPDEST DUP1 PUSH2 0x1812 DUP5 PUSH2 0x1BD6 JUMP JUMPDEST PUSH1 0x40 MLOAD PUSH1 0x20 ADD PUSH2 0x1823 SWAP3 SWAP2 SWAP1 PUSH2 0x27AB JUMP JUMPDEST PUSH1 0x40 MLOAD PUSH1 0x20 DUP2 DUP4 SUB SUB DUP2 MSTORE SWAP1 PUSH1 0x40 MSTORE JUMPDEST SWAP2 POP POP SWAP2 SWAP1 POP JUMP JUMPDEST PUSH2 0x1854 DUP3 DUP3 PUSH1 0x40 MLOAD DUP1 PUSH1 0x20 ADD PUSH1 0x40 MSTORE DUP1 PUSH0 DUP2 MSTORE POP PUSH2 0x1CA0 JUMP JUMPDEST POP POP JUMP JUMPDEST DUP1 PUSH1 0x6 PUSH0 DUP5 DUP2 MSTORE PUSH1 0x20 ADD SWAP1 DUP2 MSTORE PUSH1 0x20 ADD PUSH0 KECCAK256 SWAP1 DUP2 PUSH2 0x1876 SWAP2 SWAP1 PUSH2 0x2C84 JUMP JUMPDEST POP PUSH32 0xF8E1A15ABA9398E019F0B49DF1A4FDE98EE17AE345CB5F6B5E2C27F5033E8CE7 DUP3 PUSH1 0x40 MLOAD PUSH2 0x18A6 SWAP2 SWAP1 PUSH2 0x1FD7 JUMP JUMPDEST PUSH1 0x40 MLOAD DUP1 SWAP2 SUB SWAP1 LOG1 POP POP JUMP JUMPDEST PUSH0 PUSH32 0x1FFC9A700000000000000000000000000000000000000000000000000000000 PUSH28 0xFFFFFFFFFFFFFFFFFFFFFFFFFFFFFFFFFFFFFFFFFFFFFFFFFFFFFFFF NOT AND DUP3 PUSH28 0xFFFFFFFFFFFFFFFFFFFFFFFFFFFFFFFFFFFFFFFFFFFFFFFFFFFFFFFF NOT AND EQ SWAP1 POP SWAP2 SWAP1 POP JUMP JUMPDEST PUSH0 PUSH1 0x2 PUSH0 DUP4 DUP2 MSTORE PUSH1 0x20 ADD SWAP1 DUP2 MSTORE PUSH1 0x20 ADD PUSH0 KECCAK256 PUSH0 SWAP1 SLOAD SWAP1 PUSH2 0x100 EXP SWAP1 DIV PUSH20 0xFFFFFFFFFFFFFFFFFFFFFFFFFFFFFFFFFFFFFFFF AND SWAP1 POP SWAP2 SWAP1 POP JUMP JUMPDEST DUP1 DUP1 PUSH2 0x198C JUMPI POP PUSH0 PUSH20 0xFFFFFFFFFFFFFFFFFFFFFFFFFFFFFFFFFFFFFFFF AND DUP3 PUSH20 0xFFFFFFFFFFFFFFFFFFFFFFFFFFFFFFFFFFFFFFFF AND EQ ISZERO JUMPDEST ISZERO PUSH2 0x1ABE JUMPI PUSH0 PUSH2 0x199B DUP5 PUSH2 0x1027 JUMP JUMPDEST SWAP1 POP PUSH0 PUSH20 0xFFFFFFFFFFFFFFFFFFFFFFFFFFFFFFFFFFFFFFFF AND DUP4 PUSH20 0xFFFFFFFFFFFFFFFFFFFFFFFFFFFFFFFFFFFFFFFF AND EQ ISZERO DUP1 ISZERO PUSH2 0x1A05 JUMPI POP DUP3 PUSH20 0xFFFFFFFFFFFFFFFFFFFFFFFFFFFFFFFFFFFFFFFF AND DUP2 PUSH20 0xFFFFFFFFFFFFFFFFFFFFFFFFFFFFFFFFFFFFFFFF AND EQ ISZERO JUMPDEST DUP1 ISZERO PUSH2 0x1A18 JUMPI POP PUSH2 0x1A16 DUP2 DUP5 PUSH2 0xDEB JUMP JUMPDEST ISZERO JUMPDEST ISZERO PUSH2 0x1A5A JUMPI DUP3 PUSH1 0x40 MLOAD PUSH32 0xA9FBF51F00000000000000000000000000000000000000000000000000000000 DUP2 MSTORE PUSH1 0x4 ADD PUSH2 0x1A51 SWAP2 SWAP1 PUSH2 0x21D8 JUMP JUMPDEST PUSH1 0x40 MLOAD DUP1 SWAP2 SUB SWAP1 REVERT JUMPDEST DUP2 ISZERO PUSH2 0x1ABC JUMPI DUP4 DUP6 PUSH20 0xFFFFFFFFFFFFFFFFFFFFFFFFFFFFFFFFFFFFFFFF AND DUP3 PUSH20 0xFFFFFFFFFFFFFFFFFFFFFFFFFFFFFFFFFFFFFFFF AND PUSH32 0x8C5BE1E5EBEC7D5BD14F71427D1E84F3DD0314C0F7B2291E5B200AC8C7C3B925 PUSH1 0x40 MLOAD PUSH1 0x40 MLOAD DUP1 SWAP2 SUB SWAP1 LOG4 JUMPDEST POP JUMPDEST DUP4 PUSH1 0x4 PUSH0 DUP6 DUP2 MSTORE PUSH1 0x20 ADD SWAP1 DUP2 MSTORE PUSH1 0x20 ADD PUSH0 KECCAK256 PUSH0 PUSH2 0x100 EXP DUP2 SLOAD DUP2 PUSH20 0xFFFFFFFFFFFFFFFFFFFFFFFFFFFFFFFFFFFFFFFF MUL NOT AND SWAP1 DUP4 PUSH20 0xFFFFFFFFFFFFFFFFFFFFFFFFFFFFFFFFFFFFFFFF AND MUL OR SWAP1 SSTORE POP POP POP POP POP JUMP JUMPDEST PUSH2 0x1B1E DUP4 DUP4 DUP4 PUSH2 0x1CBB JUMP JUMPDEST PUSH2 0x1BD1 JUMPI PUSH0 PUSH20 0xFFFFFFFFFFFFFFFFFFFFFFFFFFFFFFFFFFFFFFFF AND DUP4 PUSH20 0xFFFFFFFFFFFFFFFFFFFFFFFFFFFFFFFFFFFFFFFF AND SUB PUSH2 0x1B92 JUMPI DUP1 PUSH1 0x40 MLOAD PUSH32 0x7E27328900000000000000000000000000000000000000000000000000000000 DUP2 MSTORE PUSH1 0x4 ADD PUSH2 0x1B89 SWAP2 SWAP1 PUSH2 0x1FD7 JUMP JUMPDEST PUSH1 0x40 MLOAD DUP1 SWAP2 SUB SWAP1 REVERT JUMPDEST DUP2 DUP2 PUSH1 0x40 MLOAD PUSH32 0x177E802F00000000000000000000000000000000000000000000000000000000 DUP2 MSTORE PUSH1 0x4 ADD PUSH2 0x1BC8 SWAP3 SWAP2 SWAP1 PUSH2 0x2D53 JUMP JUMPDEST PUSH1 0x40 MLOAD DUP1 SWAP2 SUB SWAP1 REVERT JUMPDEST POP POP POP JUMP JUMPDEST PUSH1 0x60 PUSH0 PUSH1 0x1 PUSH2 0x1BE4 DUP5 PUSH2 0x1D7B JUMP JUMPDEST ADD SWAP1 POP PUSH0 DUP2 PUSH8 0xFFFFFFFFFFFFFFFF DUP2 GT ISZERO PUSH2 0x1C02 JUMPI PUSH2 0x1C01 PUSH2 0x2344 JUMP JUMPDEST JUMPDEST PUSH1 0x40 MLOAD SWAP1 DUP1 DUP3 MSTORE DUP1 PUSH1 0x1F ADD PUSH1 0x1F NOT AND PUSH1 0x20 ADD DUP3 ADD PUSH1 0x40 MSTORE DUP1 ISZERO PUSH2 0x1C34 JUMPI DUP2 PUSH1 0x20 ADD PUSH1 0x1 DUP3 MUL DUP1 CALLDATASIZE DUP4 CALLDATACOPY DUP1 DUP3 ADD SWAP2 POP POP SWAP1 POP JUMPDEST POP SWAP1 POP PUSH0 DUP3 PUSH1 0x20 ADD DUP3 ADD SWAP1 POP JUMPDEST PUSH1 0x1 ISZERO PUSH2 0x1C95 JUMPI DUP1 DUP1 PUSH1 0x1 SWAP1 SUB SWAP2 POP POP PUSH32 0x3031323334353637383961626364656600000000000000000000000000000000 PUSH1 0xA DUP7 MOD BYTE DUP2 MSTORE8 PUSH1 0xA DUP6 DUP2 PUSH2 0x1C8A JUMPI PUSH2 0x1C89 PUSH2 0x2D7A JUMP JUMPDEST JUMPDEST DIV SWAP5 POP PUSH0 DUP6 SUB PUSH2 0x1C41 JUMPI JUMPDEST DUP2 SWAP4 POP POP POP POP SWAP2 SWAP1 POP JUMP JUMPDEST PUSH2 0x1CAA DUP4 DUP4 PUSH2 0x1ECC JUMP JUMPDEST PUSH2 0x1CB6 PUSH0 DUP5 DUP5 DUP5 PUSH2 0x160D JUMP JUMPDEST POP POP POP JUMP JUMPDEST PUSH0 PUSH0 PUSH20 0xFFFFFFFFFFFFFFFFFFFFFFFFFFFFFFFFFFFFFFFF AND DUP4 PUSH20 0xFFFFFFFFFFFFFFFFFFFFFFFFFFFFFFFFFFFFFFFF AND EQ ISZERO DUP1 ISZERO PUSH2 0x1D72 JUMPI POP DUP3 PUSH20 0xFFFFFFFFFFFFFFFFFFFFFFFFFFFFFFFFFFFFFFFF AND DUP5 PUSH20 0xFFFFFFFFFFFFFFFFFFFFFFFFFFFFFFFFFFFFFFFF AND EQ DUP1 PUSH2 0x1D33 JUMPI POP PUSH2 0x1D32 DUP5 DUP5 PUSH2 0xDEB JUMP JUMPDEST JUMPDEST DUP1 PUSH2 0x1D71 JUMPI POP DUP3 PUSH20 0xFFFFFFFFFFFFFFFFFFFFFFFFFFFFFFFFFFFFFFFF AND PUSH2 0x1D59 DUP4 PUSH2 0x10AD JUMP JUMPDEST PUSH20 0xFFFFFFFFFFFFFFFFFFFFFFFFFFFFFFFFFFFFFFFF AND EQ JUMPDEST JUMPDEST SWAP1 POP SWAP4 SWAP3 POP POP POP JUMP JUMPDEST PUSH0 PUSH0 PUSH0 SWAP1 POP PUSH27 0x184F03E93FF9F4DAA797ED6E38ED64BF6A1F010000000000000000 DUP4 LT PUSH2 0x1DD7 JUMPI PUSH27 0x184F03E93FF9F4DAA797ED6E38ED64BF6A1F010000000000000000 DUP4 DUP2 PUSH2 0x1DCD JUMPI PUSH2 0x1DCC PUSH2 0x2D7A JUMP JUMPDEST JUMPDEST DIV SWAP3 POP PUSH1 0x40 DUP2 ADD SWAP1 POP JUMPDEST PUSH14 0x4EE2D6D415B85ACEF8100000000 DUP4 LT PUSH2 0x1E14 JUMPI PUSH14 0x4EE2D6D415B85ACEF8100000000 DUP4 DUP2 PUSH2 0x1E0A JUMPI PUSH2 0x1E09 PUSH2 0x2D7A JUMP JUMPDEST JUMPDEST DIV SWAP3 POP PUSH1 0x20 DUP2 ADD SWAP1 POP JUMPDEST PUSH7 0x2386F26FC10000 DUP4 LT PUSH2 0x1E43 JUMPI PUSH7 0x2386F26FC10000 DUP4 DUP2 PUSH2 0x1E39 JUMPI PUSH2 0x1E38 PUSH2 0x2D7A JUMP JUMPDEST JUMPDEST DIV SWAP3 POP PUSH1 0x10 DUP2 ADD SWAP1 POP JUMPDEST PUSH4 0x5F5E100 DUP4 LT PUSH2 0x1E6C JUMPI PUSH4 0x5F5E100 DUP4 DUP2 PUSH2 0x1E62 JUMPI PUSH2 0x1E61 PUSH2 0x2D7A JUMP JUMPDEST JUMPDEST DIV SWAP3 POP PUSH1 0x8 DUP2 ADD SWAP1 POP JUMPDEST PUSH2 0x2710 DUP4 LT PUSH2 0x1E91 JUMPI PUSH2 0x2710 DUP4 DUP2 PUSH2 0x1E87 JUMPI PUSH2 0x1E86 PUSH2 0x2D7A JUMP JUMPDEST JUMPDEST DIV SWAP3 POP PUSH1 0x4 DUP2 ADD SWAP1 POP JUMPDEST PUSH1 0x64 DUP4 LT PUSH2 0x1EB4 JUMPI PUSH1 0x64 DUP4 DUP2 PUSH2 0x1EAA JUMPI PUSH2 0x1EA9 PUSH2 0x2D7A JUMP JUMPDEST JUMPDEST DIV SWAP3 POP PUSH1 0x2 DUP2 ADD SWAP1 POP JUMPDEST PUSH1 0xA DUP4 LT PUSH2 0x1EC3 JUMPI PUSH1 0x1 DUP2 ADD SWAP1 POP JUMPDEST DUP1 SWAP2 POP POP SWAP2 SWAP1 POP JUMP JUMPDEST PUSH0 PUSH20 0xFFFFFFFFFFFFFFFFFFFFFFFFFFFFFFFFFFFFFFFF AND DUP3 PUSH20 0xFFFFFFFFFFFFFFFFFFFFFFFFFFFFFFFFFFFFFFFF AND SUB PUSH2 0x1F3C JUMPI PUSH0 PUSH1 0x40 MLOAD PUSH32 0x64A0AE9200000000000000000000000000000000000000000000000000000000 DUP2 MSTORE PUSH1 0x4 ADD PUSH2 0x1F33 SWAP2 SWAP1 PUSH2 0x21D8 JUMP JUMPDEST PUSH1 0x40 MLOAD DUP1 SWAP2 SUB SWAP1 REVERT JUMPDEST PUSH0 PUSH2 0x1F48 DUP4 DUP4 PUSH0 PUSH2 0x10FF JUMP JUMPDEST SWAP1 POP PUSH0 PUSH20 0xFFFFFFFFFFFFFFFFFFFFFFFFFFFFFFFFFFFFFFFF AND DUP2 PUSH20 0xFFFFFFFFFFFFFFFFFFFFFFFFFFFFFFFFFFFFFFFF AND EQ PUSH2 0x1FBA JUMPI PUSH0 PUSH1 0x40 MLOAD PUSH32 0x73C6AC6E00000000000000000000000000000000000000000000000000000000 DUP2 MSTORE PUSH1 0x4 ADD PUSH2 0x1FB1 SWAP2 SWAP1 PUSH2 0x21D8 JUMP JUMPDEST PUSH1 0x40 MLOAD DUP1 SWAP2 SUB SWAP1 REVERT JUMPDEST POP POP POP JUMP JUMPDEST PUSH0 DUP2 SWAP1 POP SWAP2 SWAP1 POP JUMP JUMPDEST PUSH2 0x1FD1 DUP2 PUSH2 0x1FBF JUMP JUMPDEST DUP3 MSTORE POP POP JUMP JUMPDEST PUSH0 PUSH1 0x20 DUP3 ADD SWAP1 POP PUSH2 0x1FEA PUSH0 DUP4 ADD DUP5 PUSH2 0x1FC8 JUMP JUMPDEST SWAP3 SWAP2 POP POP JUMP JUMPDEST PUSH0 PUSH1 0x40 MLOAD SWAP1 POP SWAP1 JUMP JUMPDEST PUSH0 PUSH0 REVERT JUMPDEST PUSH0 PUSH0 REVERT JUMPDEST PUSH0 PUSH32 0xFFFFFFFF00000000000000000000000000000000000000000000000000000000 DUP3 AND SWAP1 POP SWAP2 SWAP1 POP JUMP JUMPDEST PUSH2 0x2035 DUP2 PUSH2 0x2001 JUMP JUMPDEST DUP2 EQ PUSH2 0x203F JUMPI PUSH0 PUSH0 REVERT JUMPDEST POP JUMP JUMPDEST PUSH0 DUP2 CALLDATALOAD SWAP1 POP PUSH2 0x2050 DUP2 PUSH2 0x202C JUMP JUMPDEST SWAP3 SWAP2 POP POP JUMP JUMPDEST PUSH0 PUSH1 0x20 DUP3 DUP5 SUB SLT ISZERO PUSH2 0x206B JUMPI PUSH2 0x206A PUSH2 0x1FF9 JUMP JUMPDEST JUMPDEST PUSH0 PUSH2 0x2078 DUP5 DUP3 DUP6 ADD PUSH2 0x2042 JUMP JUMPDEST SWAP2 POP POP SWAP3 SWAP2 POP POP JUMP JUMPDEST PUSH0 DUP2 ISZERO ISZERO SWAP1 POP SWAP2 SWAP1 POP JUMP JUMPDEST PUSH2 0x2095 DUP2 PUSH2 0x2081 JUMP JUMPDEST DUP3 MSTORE POP POP JUMP JUMPDEST PUSH0 PUSH1 0x20 DUP3 ADD SWAP1 POP PUSH2 0x20AE PUSH0 DUP4 ADD DUP5 PUSH2 0x208C JUMP JUMPDEST SWAP3 SWAP2 POP POP JUMP JUMPDEST PUSH0 DUP2 MLOAD SWAP1 POP SWAP2 SWAP1 POP JUMP JUMPDEST PUSH0 DUP3 DUP3 MSTORE PUSH1 0x20 DUP3 ADD SWAP1 POP SWAP3 SWAP2 POP POP JUMP JUMPDEST DUP3 DUP2 DUP4 MCOPY PUSH0 DUP4 DUP4 ADD MSTORE POP POP POP JUMP JUMPDEST PUSH0 PUSH1 0x1F NOT PUSH1 0x1F DUP4 ADD AND SWAP1 POP SWAP2 SWAP1 POP JUMP JUMPDEST PUSH0 PUSH2 0x20F6 DUP3 PUSH2 0x20B4 JUMP JUMPDEST PUSH2 0x2100 DUP2 DUP6 PUSH2 0x20BE JUMP JUMPDEST SWAP4 POP PUSH2 0x2110 DUP2 DUP6 PUSH1 0x20 DUP7 ADD PUSH2 0x20CE JUMP JUMPDEST PUSH2 0x2119 DUP2 PUSH2 0x20DC JUMP JUMPDEST DUP5 ADD SWAP2 POP POP SWAP3 SWAP2 POP POP JUMP JUMPDEST PUSH0 PUSH1 0x20 DUP3 ADD SWAP1 POP DUP2 DUP2 SUB PUSH0 DUP4 ADD MSTORE PUSH2 0x213C DUP2 DUP5 PUSH2 0x20EC JUMP JUMPDEST SWAP1 POP SWAP3 SWAP2 POP POP JUMP JUMPDEST PUSH2 0x214D DUP2 PUSH2 0x1FBF JUMP JUMPDEST DUP2 EQ PUSH2 0x2157 JUMPI PUSH0 PUSH0 REVERT JUMPDEST POP JUMP JUMPDEST PUSH0 DUP2 CALLDATALOAD SWAP1 POP PUSH2 0x2168 DUP2 PUSH2 0x2144 JUMP JUMPDEST SWAP3 SWAP2 POP POP JUMP JUMPDEST PUSH0 PUSH1 0x20 DUP3 DUP5 SUB SLT ISZERO PUSH2 0x2183 JUMPI PUSH2 0x2182 PUSH2 0x1FF9 JUMP JUMPDEST JUMPDEST PUSH0 PUSH2 0x2190 DUP5 DUP3 DUP6 ADD PUSH2 0x215A JUMP JUMPDEST SWAP2 POP POP SWAP3 SWAP2 POP POP JUMP JUMPDEST PUSH0 PUSH20 0xFFFFFFFFFFFFFFFFFFFFFFFFFFFFFFFFFFFFFFFF DUP3 AND SWAP1 POP SWAP2 SWAP1 POP JUMP JUMPDEST PUSH0 PUSH2 0x21C2 DUP3 PUSH2 0x2199 JUMP JUMPDEST SWAP1 POP SWAP2 SWAP1 POP JUMP JUMPDEST PUSH2 0x21D2 DUP2 PUSH2 0x21B8 JUMP JUMPDEST DUP3 MSTORE POP POP JUMP JUMPDEST PUSH0 PUSH1 0x20 DUP3 ADD SWAP1 POP PUSH2 0x21EB PUSH0 DUP4 ADD DUP5 PUSH2 0x21C9 JUMP JUMPDEST SWAP3 SWAP2 POP POP JUMP JUMPDEST PUSH2 0x21FA DUP2 PUSH2 0x21B8 JUMP JUMPDEST DUP2 EQ PUSH2 0x2204 JUMPI PUSH0 PUSH0 REVERT JUMPDEST POP JUMP JUMPDEST PUSH0 DUP2 CALLDATALOAD SWAP1 POP PUSH2 0x2215 DUP2 PUSH2 0x21F1 JUMP JUMPDEST SWAP3 SWAP2 POP POP JUMP JUMPDEST PUSH0 PUSH0 PUSH1 0x40 DUP4 DUP6 SUB SLT ISZERO PUSH2 0x2231 JUMPI PUSH2 0x2230 PUSH2 0x1FF9 JUMP JUMPDEST JUMPDEST PUSH0 PUSH2 0x223E DUP6 DUP3 DUP7 ADD PUSH2 0x2207 JUMP JUMPDEST SWAP3 POP POP PUSH1 0x20 PUSH2 0x224F DUP6 DUP3 DUP7 ADD PUSH2 0x215A JUMP JUMPDEST SWAP2 POP POP SWAP3 POP SWAP3 SWAP1 POP JUMP JUMPDEST PUSH0 PUSH0 PUSH0 PUSH1 0x60 DUP5 DUP7 SUB SLT ISZERO PUSH2 0x2270 JUMPI PUSH2 0x226F PUSH2 0x1FF9 JUMP JUMPDEST JUMPDEST PUSH0 PUSH2 0x227D DUP7 DUP3 DUP8 ADD PUSH2 0x2207 JUMP JUMPDEST SWAP4 POP POP PUSH1 0x20 PUSH2 0x228E DUP7 DUP3 DUP8 ADD PUSH2 0x2207 JUMP JUMPDEST SWAP3 POP POP PUSH1 0x40 PUSH2 0x229F DUP7 DUP3 DUP8 ADD PUSH2 0x215A JUMP JUMPDEST SWAP2 POP POP SWAP3 POP SWAP3 POP SWAP3 JUMP JUMPDEST PUSH0 PUSH1 0x20 DUP3 DUP5 SUB SLT ISZERO PUSH2 0x22BE JUMPI PUSH2 0x22BD PUSH2 0x1FF9 JUMP JUMPDEST JUMPDEST PUSH0 PUSH2 0x22CB DUP5 DUP3 DUP6 ADD PUSH2 0x2207 JUMP JUMPDEST SWAP2 POP POP SWAP3 SWAP2 POP POP JUMP JUMPDEST PUSH2 0x22DD DUP2 PUSH2 0x2081 JUMP JUMPDEST DUP2 EQ PUSH2 0x22E7 JUMPI PUSH0 PUSH0 REVERT JUMPDEST POP JUMP JUMPDEST PUSH0 DUP2 CALLDATALOAD SWAP1 POP PUSH2 0x22F8 DUP2 PUSH2 0x22D4 JUMP JUMPDEST SWAP3 SWAP2 POP POP JUMP JUMPDEST PUSH0 PUSH0 PUSH1 0x40 DUP4 DUP6 SUB SLT ISZERO PUSH2 0x2314 JUMPI PUSH2 0x2313 PUSH2 0x1FF9 JUMP JUMPDEST JUMPDEST PUSH0 PUSH2 0x2321 DUP6 DUP3 DUP7 ADD PUSH2 0x2207 JUMP JUMPDEST SWAP3 POP POP PUSH1 0x20 PUSH2 0x2332 DUP6 DUP3 DUP7 ADD PUSH2 0x22EA JUMP JUMPDEST SWAP2 POP POP SWAP3 POP SWAP3 SWAP1 POP JUMP JUMPDEST PUSH0 PUSH0 REVERT JUMPDEST PUSH0 PUSH0 REVERT JUMPDEST PUSH32 0x4E487B7100000000000000000000000000000000000000000000000000000000 PUSH0 MSTORE PUSH1 0x41 PUSH1 0x4 MSTORE PUSH1 0x24 PUSH0 REVERT JUMPDEST PUSH2 0x237A DUP3 PUSH2 0x20DC JUMP JUMPDEST DUP2 ADD DUP2 DUP2 LT PUSH8 0xFFFFFFFFFFFFFFFF DUP3 GT OR ISZERO PUSH2 0x2399 JUMPI PUSH2 0x2398 PUSH2 0x2344 JUMP JUMPDEST JUMPDEST DUP1 PUSH1 0x40 MSTORE POP POP POP JUMP JUMPDEST PUSH0 PUSH2 0x23AB PUSH2 0x1FF0 JUMP JUMPDEST SWAP1 POP PUSH2 0x23B7 DUP3 DUP3 PUSH2 0x2371 JUMP JUMPDEST SWAP2 SWAP1 POP JUMP JUMPDEST PUSH0 PUSH8 0xFFFFFFFFFFFFFFFF DUP3 GT ISZERO PUSH2 0x23D6 JUMPI PUSH2 0x23D5 PUSH2 0x2344 JUMP JUMPDEST JUMPDEST PUSH2 0x23DF DUP3 PUSH2 0x20DC JUMP JUMPDEST SWAP1 POP PUSH1 0x20 DUP2 ADD SWAP1 POP SWAP2 SWAP1 POP JUMP JUMPDEST DUP3 DUP2 DUP4 CALLDATACOPY PUSH0 DUP4 DUP4 ADD MSTORE POP POP POP JUMP JUMPDEST PUSH0 PUSH2 0x240C PUSH2 0x2407 DUP5 PUSH2 0x23BC JUMP JUMPDEST PUSH2 0x23A2 JUMP JUMPDEST SWAP1 POP DUP3 DUP2 MSTORE PUSH1 0x20 DUP2 ADD DUP5 DUP5 DUP5 ADD GT ISZERO PUSH2 0x2428 JUMPI PUSH2 0x2427 PUSH2 0x2340 JUMP JUMPDEST JUMPDEST PUSH2 0x2433 DUP5 DUP3 DUP6 PUSH2 0x23EC JUMP JUMPDEST POP SWAP4 SWAP3 POP POP POP JUMP JUMPDEST PUSH0 DUP3 PUSH1 0x1F DUP4 ADD SLT PUSH2 0x244F JUMPI PUSH2 0x244E PUSH2 0x233C JUMP JUMPDEST JUMPDEST DUP2 CALLDATALOAD PUSH2 0x245F DUP5 DUP3 PUSH1 0x20 DUP7 ADD PUSH2 0x23FA JUMP JUMPDEST SWAP2 POP POP SWAP3 SWAP2 POP POP JUMP JUMPDEST PUSH0 PUSH0 PUSH0 PUSH0 PUSH1 0x80 DUP6 DUP8 SUB SLT ISZERO PUSH2 0x2480 JUMPI PUSH2 0x247F PUSH2 0x1FF9 JUMP JUMPDEST JUMPDEST PUSH0 PUSH2 0x248D DUP8 DUP3 DUP9 ADD PUSH2 0x2207 JUMP JUMPDEST SWAP5 POP POP PUSH1 0x20 PUSH2 0x249E DUP8 DUP3 DUP9 ADD PUSH2 0x2207 JUMP JUMPDEST SWAP4 POP POP PUSH1 0x40 PUSH2 0x24AF DUP8 DUP3 DUP9 ADD PUSH2 0x215A JUMP JUMPDEST SWAP3 POP POP PUSH1 0x60 DUP6 ADD CALLDATALOAD PUSH8 0xFFFFFFFFFFFFFFFF DUP2 GT ISZERO PUSH2 0x24D0 JUMPI PUSH2 0x24CF PUSH2 0x1FFD JUMP JUMPDEST JUMPDEST PUSH2 0x24DC DUP8 DUP3 DUP9 ADD PUSH2 0x243B JUMP JUMPDEST SWAP2 POP POP SWAP3 SWAP6 SWAP2 SWAP5 POP SWAP3 POP JUMP JUMPDEST PUSH0 PUSH0 REVERT JUMPDEST PUSH0 PUSH0 REVERT JUMPDEST PUSH0 PUSH0 DUP4 PUSH1 0x1F DUP5 ADD SLT PUSH2 0x2505 JUMPI PUSH2 0x2504 PUSH2 0x233C JUMP JUMPDEST JUMPDEST DUP3 CALLDATALOAD SWAP1 POP PUSH8 0xFFFFFFFFFFFFFFFF DUP2 GT ISZERO PUSH2 0x2522 JUMPI PUSH2 0x2521 PUSH2 0x24E8 JUMP JUMPDEST JUMPDEST PUSH1 0x20 DUP4 ADD SWAP2 POP DUP4 PUSH1 0x1 DUP3 MUL DUP4 ADD GT ISZERO PUSH2 0x253E JUMPI PUSH2 0x253D PUSH2 0x24EC JUMP JUMPDEST JUMPDEST SWAP3 POP SWAP3 SWAP1 POP JUMP JUMPDEST PUSH0 PUSH0 PUSH1 0x20 DUP4 DUP6 SUB SLT ISZERO PUSH2 0x255B JUMPI PUSH2 0x255A PUSH2 0x1FF9 JUMP JUMPDEST JUMPDEST PUSH0 DUP4 ADD CALLDATALOAD PUSH8 0xFFFFFFFFFFFFFFFF DUP2 GT ISZERO PUSH2 0x2578 JUMPI PUSH2 0x2577 PUSH2 0x1FFD JUMP JUMPDEST JUMPDEST PUSH2 0x2584 DUP6 DUP3 DUP7 ADD PUSH2 0x24F0 JUMP JUMPDEST SWAP3 POP SWAP3 POP POP SWAP3 POP SWAP3 SWAP1 POP JUMP JUMPDEST PUSH0 PUSH0 PUSH1 0x40 DUP4 DUP6 SUB SLT ISZERO PUSH2 0x25A6 JUMPI PUSH2 0x25A5 PUSH2 0x1FF9 JUMP JUMPDEST JUMPDEST PUSH0 PUSH2 0x25B3 DUP6 DUP3 DUP7 ADD PUSH2 0x2207 JUMP JUMPDEST SWAP3 POP POP PUSH1 0x20 PUSH2 0x25C4 DUP6 DUP3 DUP7 ADD PUSH2 0x2207 JUMP JUMPDEST SWAP2 POP POP SWAP3 POP SWAP3 SWAP1 POP JUMP JUMPDEST PUSH32 0x4E487B7100000000000000000000000000000000000000000000000000000000 PUSH0 MSTORE PUSH1 0x22 PUSH1 0x4 MSTORE PUSH1 0x24 PUSH0 REVERT JUMPDEST PUSH0 PUSH1 0x2 DUP3 DIV SWAP1 POP PUSH1 0x1 DUP3 AND DUP1 PUSH2 0x2612 JUMPI PUSH1 0x7F DUP3 AND SWAP2 POP JUMPDEST PUSH1 0x20 DUP3 LT DUP2 SUB PUSH2 0x2625 JUMPI PUSH2 0x2624 PUSH2 0x25CE JUMP JUMPDEST JUMPDEST POP SWAP2 SWAP1 POP JUMP JUMPDEST PUSH0 PUSH1 0x60 DUP3 ADD SWAP1 POP PUSH2 0x263E PUSH0 DUP4 ADD DUP7 PUSH2 0x21C9 JUMP JUMPDEST PUSH2 0x264B PUSH1 0x20 DUP4 ADD DUP6 PUSH2 0x1FC8 JUMP JUMPDEST PUSH2 0x2658 PUSH1 0x40 DUP4 ADD DUP5 PUSH2 0x21C9 JUMP JUMPDEST SWAP5 SWAP4 POP POP POP POP JUMP JUMPDEST PUSH32 0x496E73756666696369656E742062616C616E6365000000000000000000000000 PUSH0 DUP3 ADD MSTORE POP JUMP JUMPDEST PUSH0 PUSH2 0x2694 PUSH1 0x14 DUP4 PUSH2 0x20BE JUMP JUMPDEST SWAP2 POP PUSH2 0x269F DUP3 PUSH2 0x2660 JUMP JUMPDEST PUSH1 0x20 DUP3 ADD SWAP1 POP SWAP2 SWAP1 POP JUMP JUMPDEST PUSH0 PUSH1 0x20 DUP3 ADD SWAP1 POP DUP2 DUP2 SUB PUSH0 DUP4 ADD MSTORE PUSH2 0x26C1 DUP2 PUSH2 0x2688 JUMP JUMPDEST SWAP1 POP SWAP2 SWAP1 POP JUMP JUMPDEST PUSH0 DUP2 SWAP1 POP SWAP3 SWAP2 POP POP JUMP JUMPDEST POP JUMP JUMPDEST PUSH0 PUSH2 0x26E0 PUSH0 DUP4 PUSH2 0x26C8 JUMP JUMPDEST SWAP2 POP PUSH2 0x26EB DUP3 PUSH2 0x26D2 JUMP JUMPDEST PUSH0 DUP3 ADD SWAP1 POP SWAP2 SWAP1 POP JUMP JUMPDEST PUSH0 PUSH2 0x26FF DUP3 PUSH2 0x26D5 JUMP JUMPDEST SWAP2 POP DUP2 SWAP1 POP SWAP2 SWAP1 POP JUMP JUMPDEST PUSH32 0x5769746864726177206661696C65640000000000000000000000000000000000 PUSH0 DUP3 ADD MSTORE POP JUMP JUMPDEST PUSH0 PUSH2 0x273D PUSH1 0xF DUP4 PUSH2 0x20BE JUMP JUMPDEST SWAP2 POP PUSH2 0x2748 DUP3 PUSH2 0x2709 JUMP JUMPDEST PUSH1 0x20 DUP3 ADD SWAP1 POP SWAP2 SWAP1 POP JUMP JUMPDEST PUSH0 PUSH1 0x20 DUP3 ADD SWAP1 POP DUP2 DUP2 SUB PUSH0 DUP4 ADD MSTORE PUSH2 0x276A DUP2 PUSH2 0x2731 JUMP JUMPDEST SWAP1 POP SWAP2 SWAP1 POP JUMP JUMPDEST PUSH0 DUP2 SWAP1 POP SWAP3 SWAP2 POP POP JUMP JUMPDEST PUSH0 PUSH2 0x2785 DUP3 PUSH2 0x20B4 JUMP JUMPDEST PUSH2 0x278F DUP2 DUP6 PUSH2 0x2771 JUMP JUMPDEST SWAP4 POP PUSH2 0x279F DUP2 DUP6 PUSH1 0x20 DUP7 ADD PUSH2 0x20CE JUMP JUMPDEST DUP1 DUP5 ADD SWAP2 POP POP SWAP3 SWAP2 POP POP JUMP JUMPDEST PUSH0 PUSH2 0x27B6 DUP3 DUP6 PUSH2 0x277B JUMP JUMPDEST SWAP2 POP PUSH2 0x27C2 DUP3 DUP5 PUSH2 0x277B JUMP JUMPDEST SWAP2 POP DUP2 SWAP1 POP SWAP4 SWAP3 POP POP POP JUMP JUMPDEST PUSH32 0x4E6F7420656E6F7567682045544820746F206D696E7400000000000000000000 PUSH0 DUP3 ADD MSTORE POP JUMP JUMPDEST PUSH0 PUSH2 0x2802 PUSH1 0x16 DUP4 PUSH2 0x20BE JUMP JUMPDEST SWAP2 POP PUSH2 0x280D DUP3 PUSH2 0x27CE JUMP JUMPDEST PUSH1 0x20 DUP3 ADD SWAP1 POP SWAP2 SWAP1 POP JUMP JUMPDEST PUSH0 PUSH1 0x20 DUP3 ADD SWAP1 POP DUP2 DUP2 SUB PUSH0 DUP4 ADD MSTORE PUSH2 0x282F DUP2 PUSH2 0x27F6 JUMP JUMPDEST SWAP1 POP SWAP2 SWAP1 POP JUMP JUMPDEST PUSH32 0x546F6B656E205552492072657175697265640000000000000000000000000000 PUSH0 DUP3 ADD MSTORE POP JUMP JUMPDEST PUSH0 PUSH2 0x286A PUSH1 0x12 DUP4 PUSH2 0x20BE JUMP JUMPDEST SWAP2 POP PUSH2 0x2875 DUP3 PUSH2 0x2836 JUMP JUMPDEST PUSH1 0x20 DUP3 ADD SWAP1 POP SWAP2 SWAP1 POP JUMP JUMPDEST PUSH0 PUSH1 0x20 DUP3 ADD SWAP1 POP DUP2 DUP2 SUB PUSH0 DUP4 ADD MSTORE PUSH2 0x2897 DUP2 PUSH2 0x285E JUMP JUMPDEST SWAP1 POP SWAP2 SWAP1 POP JUMP JUMPDEST PUSH32 0x4E487B7100000000000000000000000000000000000000000000000000000000 PUSH0 MSTORE PUSH1 0x11 PUSH1 0x4 MSTORE PUSH1 0x24 PUSH0 REVERT JUMPDEST PUSH0 PUSH2 0x28D5 DUP3 PUSH2 0x1FBF JUMP JUMPDEST SWAP2 POP PUSH32 0xFFFFFFFFFFFFFFFFFFFFFFFFFFFFFFFFFFFFFFFFFFFFFFFFFFFFFFFFFFFFFFFF DUP3 SUB PUSH2 0x2907 JUMPI PUSH2 0x2906 PUSH2 0x289E JUMP JUMPDEST JUMPDEST PUSH1 0x1 DUP3 ADD SWAP1 POP SWAP2 SWAP1 POP JUMP JUMPDEST PUSH32 0x5061796D656E7420746F206F776E6572206661696C6564000000000000000000 PUSH0 DUP3 ADD MSTORE POP JUMP JUMPDEST PUSH0 PUSH2 0x2946 PUSH1 0x17 DUP4 PUSH2 0x20BE JUMP JUMPDEST SWAP2 POP PUSH2 0x2951 DUP3 PUSH2 0x2912 JUMP JUMPDEST PUSH1 0x20 DUP3 ADD SWAP1 POP SWAP2 SWAP1 POP JUMP JUMPDEST PUSH0 PUSH1 0x20 DUP3 ADD SWAP1 POP DUP2 DUP2 SUB PUSH0 DUP4 ADD MSTORE PUSH2 0x2973 DUP2 PUSH2 0x293A JUMP JUMPDEST SWAP1 POP SWAP2 SWAP1 POP JUMP JUMPDEST PUSH0 PUSH2 0x2984 DUP3 PUSH2 0x1FBF JUMP JUMPDEST SWAP2 POP PUSH2 0x298F DUP4 PUSH2 0x1FBF JUMP JUMPDEST SWAP3 POP DUP3 DUP3 SUB SWAP1 POP DUP2 DUP2 GT ISZERO PUSH2 0x29A7 JUMPI PUSH2 0x29A6 PUSH2 0x289E JUMP JUMPDEST JUMPDEST SWAP3 SWAP2 POP POP JUMP JUMPDEST PUSH0 PUSH2 0x29B8 DUP4 DUP6 PUSH2 0x20BE JUMP JUMPDEST SWAP4 POP PUSH2 0x29C5 DUP4 DUP6 DUP5 PUSH2 0x23EC JUMP JUMPDEST PUSH2 0x29CE DUP4 PUSH2 0x20DC JUMP JUMPDEST DUP5 ADD SWAP1 POP SWAP4 SWAP3 POP POP POP JUMP JUMPDEST PUSH0 PUSH1 0x40 DUP3 ADD SWAP1 POP DUP2 DUP2 SUB PUSH0 DUP4 ADD MSTORE PUSH2 0x29F2 DUP2 DUP6 DUP8 PUSH2 0x29AD JUMP JUMPDEST SWAP1 POP PUSH2 0x2A01 PUSH1 0x20 DUP4 ADD DUP5 PUSH2 0x1FC8 JUMP JUMPDEST SWAP5 SWAP4 POP POP POP POP JUMP JUMPDEST PUSH0 DUP2 MLOAD SWAP1 POP SWAP2 SWAP1 POP JUMP JUMPDEST PUSH0 DUP3 DUP3 MSTORE PUSH1 0x20 DUP3 ADD SWAP1 POP SWAP3 SWAP2 POP POP JUMP JUMPDEST PUSH0 PUSH2 0x2A2D DUP3 PUSH2 0x2A09 JUMP JUMPDEST PUSH2 0x2A37 DUP2 DUP6 PUSH2 0x2A13 JUMP JUMPDEST SWAP4 POP PUSH2 0x2A47 DUP2 DUP6 PUSH1 0x20 DUP7 ADD PUSH2 0x20CE JUMP JUMPDEST PUSH2 0x2A50 DUP2 PUSH2 0x20DC JUMP JUMPDEST DUP5 ADD SWAP2 POP POP SWAP3 SWAP2 POP POP JUMP JUMPDEST PUSH0 PUSH1 0x80 DUP3 ADD SWAP1 POP PUSH2 0x2A6E PUSH0 DUP4 ADD DUP8 PUSH2 0x21C9 JUMP JUMPDEST PUSH2 0x2A7B PUSH1 0x20 DUP4 ADD DUP7 PUSH2 0x21C9 JUMP JUMPDEST PUSH2 0x2A88 PUSH1 0x40 DUP4 ADD DUP6 PUSH2 0x1FC8 JUMP JUMPDEST DUP2 DUP2 SUB PUSH1 0x60 DUP4 ADD MSTORE PUSH2 0x2A9A DUP2 DUP5 PUSH2 0x2A23 JUMP JUMPDEST SWAP1 POP SWAP6 SWAP5 POP POP POP POP POP JUMP JUMPDEST PUSH0 DUP2 MLOAD SWAP1 POP PUSH2 0x2AB3 DUP2 PUSH2 0x202C JUMP JUMPDEST SWAP3 SWAP2 POP POP JUMP JUMPDEST PUSH0 PUSH1 0x20 DUP3 DUP5 SUB SLT ISZERO PUSH2 0x2ACE JUMPI PUSH2 0x2ACD PUSH2 0x1FF9 JUMP JUMPDEST JUMPDEST PUSH0 PUSH2 0x2ADB DUP5 DUP3 DUP6 ADD PUSH2 0x2AA5 JUMP JUMPDEST SWAP2 POP POP SWAP3 SWAP2 POP POP JUMP JUMPDEST PUSH0 DUP2 SWAP1 POP DUP2 PUSH0 MSTORE PUSH1 0x20 PUSH0 KECCAK256 SWAP1 POP SWAP2 SWAP1 POP JUMP JUMPDEST PUSH0 PUSH1 0x20 PUSH1 0x1F DUP4 ADD DIV SWAP1 POP SWAP2 SWAP1 POP JUMP JUMPDEST PUSH0 DUP3 DUP3 SHL SWAP1 POP SWAP3 SWAP2 POP POP JUMP JUMPDEST PUSH0 PUSH1 0x8 DUP4 MUL PUSH2 0x2B40 PUSH32 0xFFFFFFFFFFFFFFFFFFFFFFFFFFFFFFFFFFFFFFFFFFFFFFFFFFFFFFFFFFFFFFFF DUP3 PUSH2 0x2B05 JUMP JUMPDEST PUSH2 0x2B4A DUP7 DUP4 PUSH2 0x2B05 JUMP JUMPDEST SWAP6 POP DUP1 NOT DUP5 AND SWAP4 POP DUP1 DUP7 AND DUP5 OR SWAP3 POP POP POP SWAP4 SWAP3 POP POP POP JUMP JUMPDEST PUSH0 DUP2 SWAP1 POP SWAP2 SWAP1 POP JUMP JUMPDEST PUSH0 PUSH2 0x2B85 PUSH2 0x2B80 PUSH2 0x2B7B DUP5 PUSH2 0x1FBF JUMP JUMPDEST PUSH2 0x2B62 JUMP JUMPDEST PUSH2 0x1FBF JUMP JUMPDEST SWAP1 POP SWAP2 SWAP1 POP JUMP JUMPDEST PUSH0 DUP2 SWAP1 POP SWAP2 SWAP1 POP JUMP JUMPDEST PUSH2 0x2B9E DUP4 PUSH2 0x2B6B JUMP JUMPDEST PUSH2 0x2BB2 PUSH2 0x2BAA DUP3 PUSH2 0x2B8C JUMP JUMPDEST DUP5 DUP5 SLOAD PUSH2 0x2B11 JUMP JUMPDEST DUP3 SSTORE POP POP POP POP JUMP JUMPDEST PUSH0 PUSH0 SWAP1 POP SWAP1 JUMP JUMPDEST PUSH2 0x2BC9 PUSH2 0x2BBA JUMP JUMPDEST PUSH2 0x2BD4 DUP2 DUP5 DUP5 PUSH2 0x2B95 JUMP JUMPDEST POP POP POP JUMP JUMPDEST JUMPDEST DUP2 DUP2 LT ISZERO PUSH2 0x2BF7 JUMPI PUSH2 0x2BEC PUSH0 DUP3 PUSH2 0x2BC1 JUMP JUMPDEST PUSH1 0x1 DUP2 ADD SWAP1 POP PUSH2 0x2BDA JUMP JUMPDEST POP POP JUMP JUMPDEST PUSH1 0x1F DUP3 GT ISZERO PUSH2 0x2C3C JUMPI PUSH2 0x2C0D DUP2 PUSH2 0x2AE4 JUMP JUMPDEST PUSH2 0x2C16 DUP5 PUSH2 0x2AF6 JUMP JUMPDEST DUP2 ADD PUSH1 0x20 DUP6 LT ISZERO PUSH2 0x2C25 JUMPI DUP2 SWAP1 POP JUMPDEST PUSH2 0x2C39 PUSH2 0x2C31 DUP6 PUSH2 0x2AF6 JUMP JUMPDEST DUP4 ADD DUP3 PUSH2 0x2BD9 JUMP JUMPDEST POP POP JUMPDEST POP POP POP JUMP JUMPDEST PUSH0 DUP3 DUP3 SHR SWAP1 POP SWAP3 SWAP2 POP POP JUMP JUMPDEST PUSH0 PUSH2 0x2C5C PUSH0 NOT DUP5 PUSH1 0x8 MUL PUSH2 0x2C41 JUMP JUMPDEST NOT DUP1 DUP4 AND SWAP2 POP POP SWAP3 SWAP2 POP POP JUMP JUMPDEST PUSH0 PUSH2 0x2C74 DUP4 DUP4 PUSH2 0x2C4D JUMP JUMPDEST SWAP2 POP DUP3 PUSH1 0x2 MUL DUP3 OR SWAP1 POP SWAP3 SWAP2 POP POP JUMP JUMPDEST PUSH2 0x2C8D DUP3 PUSH2 0x20B4 JUMP JUMPDEST PUSH8 0xFFFFFFFFFFFFFFFF DUP2 GT ISZERO PUSH2 0x2CA6 JUMPI PUSH2 0x2CA5 PUSH2 0x2344 JUMP JUMPDEST JUMPDEST PUSH2 0x2CB0 DUP3 SLOAD PUSH2 0x25FB JUMP JUMPDEST PUSH2 0x2CBB DUP3 DUP3 DUP6 PUSH2 0x2BFB JUMP JUMPDEST PUSH0 PUSH1 0x20 SWAP1 POP PUSH1 0x1F DUP4 GT PUSH1 0x1 DUP2 EQ PUSH2 0x2CEC JUMPI PUSH0 DUP5 ISZERO PUSH2 0x2CDA JUMPI DUP3 DUP8 ADD MLOAD SWAP1 POP JUMPDEST PUSH2 0x2CE4 DUP6 DUP3 PUSH2 0x2C69 JUMP JUMPDEST DUP7 SSTORE POP PUSH2 0x2D4B JUMP JUMPDEST PUSH1 0x1F NOT DUP5 AND PUSH2 0x2CFA DUP7 PUSH2 0x2AE4 JUMP JUMPDEST PUSH0 JUMPDEST DUP3 DUP2 LT ISZERO PUSH2 0x2D21 JUMPI DUP5 DUP10 ADD MLOAD DUP3 SSTORE PUSH1 0x1 DUP3 ADD SWAP2 POP PUSH1 0x20 DUP6 ADD SWAP5 POP PUSH1 0x20 DUP2 ADD SWAP1 POP PUSH2 0x2CFC JUMP JUMPDEST DUP7 DUP4 LT ISZERO PUSH2 0x2D3E JUMPI DUP5 DUP10 ADD MLOAD PUSH2 0x2D3A PUSH1 0x1F DUP10 AND DUP3 PUSH2 0x2C4D JUMP JUMPDEST DUP4 SSTORE POP JUMPDEST PUSH1 0x1 PUSH1 0x2 DUP9 MUL ADD DUP9 SSTORE POP POP POP JUMPDEST POP POP POP POP POP POP JUMP JUMPDEST PUSH0 PUSH1 0x40 DUP3 ADD SWAP1 POP PUSH2 0x2D66 PUSH0 DUP4 ADD DUP6 PUSH2 0x21C9 JUMP JUMPDEST PUSH2 0x2D73 PUSH1 0x20 DUP4 ADD DUP5 PUSH2 0x1FC8 JUMP JUMPDEST SWAP4 SWAP3 POP POP POP JUMP JUMPDEST PUSH32 0x4E487B7100000000000000000000000000000000000000000000000000000000 PUSH0 MSTORE PUSH1 0x12 PUSH1 0x4 MSTORE PUSH1 0x24 PUSH0 REVERT INVALID LOG2 PUSH5 0x6970667358 0x22 SLT KECCAK256 SWAP7 PUSH21 0x939AC2820B13B0EF648A489629095CE621F65A7914 CREATE2 AND 0xCD RJUMPI 0x44AE PUSH11 0x151C64736F6C634300081E STOP CALLER "
		},
		"gasEstimates": {
			"creation": {
				"codeDepositCost": "2348200",
				"executionCost": "infinite",
				"totalCost": "infinite"
			},
			"external": {
				"": "218",
				"approve(address,uint256)": "infinite",
				"balanceOf(address)": "infinite",
				"currentTokenId()": "2456",
				"getApproved(uint256)": "infinite",
				"isApprovedForAll(address,address)": "infinite",
				"mint(string)": "infinite",
				"mintPrice()": "2536",
				"name()": "infinite",
				"owner()": "2582",
				"ownerOf(uint256)": "infinite",
				"renounceOwnership()": "infinite",
				"safeTransferFrom(address,address,uint256)": "infinite",
				"safeTransferFrom(address,address,uint256,bytes)": "infinite",
				"setApprovalForAll(address,bool)": "infinite",
				"setMintPrice(uint256)": "infinite",
				"supportsInterface(bytes4)": "903",
				"symbol()": "infinite",
				"tokenURI(uint256)": "infinite",
				"transferFrom(address,address,uint256)": "infinite",
				"transferOwnership(address)": "infinite",
				"withdraw(uint256)": "infinite"
			}
		},
		"methodIdentifiers": {
			"approve(address,uint256)": "095ea7b3",
			"balanceOf(address)": "70a08231",
			"currentTokenId()": "009a9b7b",
			"getApproved(uint256)": "081812fc",
			"isApprovedForAll(address,address)": "e985e9c5",
			"mint(string)": "d85d3d27",
			"mintPrice()": "6817c76c",
			"name()": "06fdde03",
			"owner()": "8da5cb5b",
			"ownerOf(uint256)": "6352211e",
			"renounceOwnership()": "715018a6",
			"safeTransferFrom(address,address,uint256)": "42842e0e",
			"safeTransferFrom(address,address,uint256,bytes)": "b88d4fde",
			"setApprovalForAll(address,bool)": "a22cb465",
			"setMintPrice(uint256)": "f4a0a528",
			"supportsInterface(bytes4)": "01ffc9a7",
			"symbol()": "95d89b41",
			"tokenURI(uint256)": "c87b56dd",
			"transferFrom(address,address,uint256)": "23b872dd",
			"transferOwnership(address)": "f2fde38b",
			"withdraw(uint256)": "2e1a7d4d"
		}
	},
	"abi": [
		{
			"inputs": [
				{
					"internalType": "string",
					"name": "name_",
					"type": "string"
				},
				{
					"internalType": "string",
					"name": "symbol_",
					"type": "string"
				}
			],
			"stateMutability": "nonpayable",
			"type": "constructor"
		},
		{
			"inputs": [
				{
					"internalType": "address",
					"name": "sender",
					"type": "address"
				},
				{
					"internalType": "uint256",
					"name": "tokenId",
					"type": "uint256"
				},
				{
					"internalType": "address",
					"name": "owner",
					"type": "address"
				}
			],
			"name": "ERC721IncorrectOwner",
			"type": "error"
		},
		{
			"inputs": [
				{
					"internalType": "address",
					"name": "operator",
					"type": "address"
				},
				{
					"internalType": "uint256",
					"name": "tokenId",
					"type": "uint256"
				}
			],
			"name": "ERC721InsufficientApproval",
			"type": "error"
		},
		{
			"inputs": [
				{
					"internalType": "address",
					"name": "approver",
					"type": "address"
				}
			],
			"name": "ERC721InvalidApprover",
			"type": "error"
		},
		{
			"inputs": [
				{
					"internalType": "address",
					"name": "operator",
					"type": "address"
				}
			],
			"name": "ERC721InvalidOperator",
			"type": "error"
		},
		{
			"inputs": [
				{
					"internalType": "address",
					"name": "owner",
					"type": "address"
				}
			],
			"name": "ERC721InvalidOwner",
			"type": "error"
		},
		{
			"inputs": [
				{
					"internalType": "address",
					"name": "receiver",
					"type": "address"
				}
			],
			"name": "ERC721InvalidReceiver",
			"type": "error"
		},
		{
			"inputs": [
				{
					"internalType": "address",
					"name": "sender",
					"type": "address"
				}
			],
			"name": "ERC721InvalidSender",
			"type": "error"
		},
		{
			"inputs": [
				{
					"internalType": "uint256",
					"name": "tokenId",
					"type": "uint256"
				}
			],
			"name": "ERC721NonexistentToken",
			"type": "error"
		},
		{
			"inputs": [
				{
					"internalType": "address",
					"name": "owner",
					"type": "address"
				}
			],
			"name": "OwnableInvalidOwner",
			"type": "error"
		},
		{
			"inputs": [
				{
					"internalType": "address",
					"name": "account",
					"type": "address"
				}
			],
			"name": "OwnableUnauthorizedAccount",
			"type": "error"
		},
		{
			"inputs": [],
			"name": "ReentrancyGuardReentrantCall",
			"type": "error"
		},
		{
			"anonymous": false,
			"inputs": [
				{
					"indexed": true,
					"internalType": "address",
					"name": "owner",
					"type": "address"
				},
				{
					"indexed": true,
					"internalType": "address",
					"name": "approved",
					"type": "address"
				},
				{
					"indexed": true,
					"internalType": "uint256",
					"name": "tokenId",
					"type": "uint256"
				}
			],
			"name": "Approval",
			"type": "event"
		},
		{
			"anonymous": false,
			"inputs": [
				{
					"indexed": true,
					"internalType": "address",
					"name": "owner",
					"type": "address"
				},
				{
					"indexed": true,
					"internalType": "address",
					"name": "operator",
					"type": "address"
				},
				{
					"indexed": false,
					"internalType": "bool",
					"name": "approved",
					"type": "bool"
				}
			],
			"name": "ApprovalForAll",
			"type": "event"
		},
		{
			"anonymous": false,
			"inputs": [
				{
					"indexed": false,
					"internalType": "uint256",
					"name": "_fromTokenId",
					"type": "uint256"
				},
				{
					"indexed": false,
					"internalType": "uint256",
					"name": "_toTokenId",
					"type": "uint256"
				}
			],
			"name": "BatchMetadataUpdate",
			"type": "event"
		},
		{
			"anonymous": false,
			"inputs": [
				{
					"indexed": true,
					"internalType": "address",
					"name": "owner",
					"type": "address"
				},
				{
					"indexed": false,
					"internalType": "uint256",
					"name": "amount",
					"type": "uint256"
				}
			],
			"name": "FundsWithdrawn",
			"type": "event"
		},
		{
			"anonymous": false,
			"inputs": [
				{
					"indexed": false,
					"internalType": "uint256",
					"name": "_tokenId",
					"type": "uint256"
				}
			],
			"name": "MetadataUpdate",
			"type": "event"
		},
		{
			"anonymous": false,
			"inputs": [
				{
					"indexed": false,
					"internalType": "uint256",
					"name": "newPrice",
					"type": "uint256"
				}
			],
			"name": "MintPriceUpdated",
			"type": "event"
		},
		{
			"anonymous": false,
			"inputs": [
				{
					"indexed": true,
					"internalType": "address",
					"name": "buyer",
					"type": "address"
				},
				{
					"indexed": true,
					"internalType": "uint256",
					"name": "tokenId",
					"type": "uint256"
				},
				{
					"indexed": false,
					"internalType": "string",
					"name": "tokenURI",
					"type": "string"
				},
				{
					"indexed": false,
					"internalType": "uint256",
					"name": "price",
					"type": "uint256"
				}
			],
			"name": "Minted",
			"type": "event"
		},
		{
			"anonymous": false,
			"inputs": [
				{
					"indexed": true,
					"internalType": "address",
					"name": "previousOwner",
					"type": "address"
				},
				{
					"indexed": true,
					"internalType": "address",
					"name": "newOwner",
					"type": "address"
				}
			],
			"name": "OwnershipTransferred",
			"type": "event"
		},
		{
			"anonymous": false,
			"inputs": [
				{
					"indexed": true,
					"internalType": "address",
					"name": "from",
					"type": "address"
				},
				{
					"indexed": true,
					"internalType": "address",
					"name": "to",
					"type": "address"
				},
				{
					"indexed": true,
					"internalType": "uint256",
					"name": "tokenId",
					"type": "uint256"
				}
			],
			"name": "Transfer",
			"type": "event"
		},
		{
			"stateMutability": "payable",
			"type": "fallback"
		},
		{
			"inputs": [
				{
					"internalType": "address",
					"name": "to",
					"type": "address"
				},
				{
					"internalType": "uint256",
					"name": "tokenId",
					"type": "uint256"
				}
			],
			"name": "approve",
			"outputs": [],
			"stateMutability": "nonpayable",
			"type": "function"
		},
		{
			"inputs": [
				{
					"internalType": "address",
					"name": "owner",
					"type": "address"
				}
			],
			"name": "balanceOf",
			"outputs": [
				{
					"internalType": "uint256",
					"name": "",
					"type": "uint256"
				}
			],
			"stateMutability": "view",
			"type": "function"
		},
		{
			"inputs": [],
			"name": "currentTokenId",
			"outputs": [
				{
					"internalType": "uint256",
					"name": "",
					"type": "uint256"
				}
			],
			"stateMutability": "view",
			"type": "function"
		},
		{
			"inputs": [
				{
					"internalType": "uint256",
					"name": "tokenId",
					"type": "uint256"
				}
			],
			"name": "getApproved",
			"outputs": [
				{
					"internalType": "address",
					"name": "",
					"type": "address"
				}
			],
			"stateMutability": "view",
			"type": "function"
		},
		{
			"inputs": [
				{
					"internalType": "address",
					"name": "owner",
					"type": "address"
				},
				{
					"internalType": "address",
					"name": "operator",
					"type": "address"
				}
			],
			"name": "isApprovedForAll",
			"outputs": [
				{
					"internalType": "bool",
					"name": "",
					"type": "bool"
				}
			],
			"stateMutability": "view",
			"type": "function"
		},
		{
			"inputs": [
				{
					"internalType": "string",
					"name": "tokenURI_",
					"type": "string"
				}
			],
			"name": "mint",
			"outputs": [
				{
					"internalType": "uint256",
					"name": "",
					"type": "uint256"
				}
			],
			"stateMutability": "payable",
			"type": "function"
		},
		{
			"inputs": [],
			"name": "mintPrice",
			"outputs": [
				{
					"internalType": "uint256",
					"name": "",
					"type": "uint256"
				}
			],
			"stateMutability": "view",
			"type": "function"
		},
		{
			"inputs": [],
			"name": "name",
			"outputs": [
				{
					"internalType": "string",
					"name": "",
					"type": "string"
				}
			],
			"stateMutability": "view",
			"type": "function"
		},
		{
			"inputs": [],
			"name": "owner",
			"outputs": [
				{
					"internalType": "address",
					"name": "",
					"type": "address"
				}
			],
			"stateMutability": "view",
			"type": "function"
		},
		{
			"inputs": [
				{
					"internalType": "uint256",
					"name": "tokenId",
					"type": "uint256"
				}
			],
			"name": "ownerOf",
			"outputs": [
				{
					"internalType": "address",
					"name": "",
					"type": "address"
				}
			],
			"stateMutability": "view",
			"type": "function"
		},
		{
			"inputs": [],
			"name": "renounceOwnership",
			"outputs": [],
			"stateMutability": "nonpayable",
			"type": "function"
		},
		{
			"inputs": [
				{
					"internalType": "address",
					"name": "from",
					"type": "address"
				},
				{
					"internalType": "address",
					"name": "to",
					"type": "address"
				},
				{
					"internalType": "uint256",
					"name": "tokenId",
					"type": "uint256"
				}
			],
			"name": "safeTransferFrom",
			"outputs": [],
			"stateMutability": "nonpayable",
			"type": "function"
		},
		{
			"inputs": [
				{
					"internalType": "address",
					"name": "from",
					"type": "address"
				},
				{
					"internalType": "address",
					"name": "to",
					"type": "address"
				},
				{
					"internalType": "uint256",
					"name": "tokenId",
					"type": "uint256"
				},
				{
					"internalType": "bytes",
					"name": "data",
					"type": "bytes"
				}
			],
			"name": "safeTransferFrom",
			"outputs": [],
			"stateMutability": "nonpayable",
			"type": "function"
		},
		{
			"inputs": [
				{
					"internalType": "address",
					"name": "operator",
					"type": "address"
				},
				{
					"internalType": "bool",
					"name": "approved",
					"type": "bool"
				}
			],
			"name": "setApprovalForAll",
			"outputs": [],
			"stateMutability": "nonpayable",
			"type": "function"
		},
		{
			"inputs": [
				{
					"internalType": "uint256",
					"name": "_newPrice",
					"type": "uint256"
				}
			],
			"name": "setMintPrice",
			"outputs": [],
			"stateMutability": "nonpayable",
			"type": "function"
		},
		{
			"inputs": [
				{
					"internalType": "bytes4",
					"name": "interfaceId",
					"type": "bytes4"
				}
			],
			"name": "supportsInterface",
			"outputs": [
				{
					"internalType": "bool",
					"name": "",
					"type": "bool"
				}
			],
			"stateMutability": "view",
			"type": "function"
		},
		{
			"inputs": [],
			"name": "symbol",
			"outputs": [
				{
					"internalType": "string",
					"name": "",
					"type": "string"
				}
			],
			"stateMutability": "view",
			"type": "function"
		},
		{
			"inputs": [
				{
					"internalType": "uint256",
					"name": "tokenId",
					"type": "uint256"
				}
			],
			"name": "tokenURI",
			"outputs": [
				{
					"internalType": "string",
					"name": "",
					"type": "string"
				}
			],
			"stateMutability": "view",
			"type": "function"
		},
		{
			"inputs": [
				{
					"internalType": "address",
					"name": "from",
					"type": "address"
				},
				{
					"internalType": "address",
					"name": "to",
					"type": "address"
				},
				{
					"internalType": "uint256",
					"name": "tokenId",
					"type": "uint256"
				}
			],
			"name": "transferFrom",
			"outputs": [],
			"stateMutability": "nonpayable",
			"type": "function"
		},
		{
			"inputs": [
				{
					"internalType": "address",
					"name": "newOwner",
					"type": "address"
				}
			],
			"name": "transferOwnership",
			"outputs": [],
			"stateMutability": "nonpayable",
			"type": "function"
		},
		{
			"inputs": [
				{
					"internalType": "uint256",
					"name": "amount",
					"type": "uint256"
				}
			],
			"name": "withdraw",
			"outputs": [],
			"stateMutability": "nonpayable",
			"type": "function"
		},
		{
			"stateMutability": "payable",
			"type": "receive"
		}
	]
}