{
	"data": {
		"bytecode": {
			"linkReferences": {},
			"object": "608060405234801561000f575f5ffd5b50336040518060400160405280601281526020017f4172746966696369616c20476c616369657200000000000000000000000000008152506040518060400160405280600481526020017f474c435200000000000000000000000000000000000000000000000000000000815250815f908161008b9190610423565b50806001908161009b9190610423565b5050505f73ffffffffffffffffffffffffffffffffffffffff168173ffffffffffffffffffffffffffffffffffffffff160361010e575f6040517f1e4fbdf70000000000000000000000000000000000000000000000000000000081526004016101059190610531565b60405180910390fd5b61011d8161012360201b60201c565b5061054a565b5f60075f9054906101000a900473ffffffffffffffffffffffffffffffffffffffff1690508160075f6101000a81548173ffffffffffffffffffffffffffffffffffffffff021916908373ffffffffffffffffffffffffffffffffffffffff1602179055508173ffffffffffffffffffffffffffffffffffffffff168173ffffffffffffffffffffffffffffffffffffffff167f8be0079c531659141344cd1fd0a4f28419497f9722a3daafe3b4186f6b6457e060405160405180910390a35050565b5f81519050919050565b7f4e487b71000000000000000000000000000000000000000000000000000000005f52604160045260245ffd5b7f4e487b71000000000000000000000000000000000000000000000000000000005f52602260045260245ffd5b5f600282049050600182168061026157607f821691505b6020821081036102745761027361021d565b5b50919050565b5f819050815f5260205f209050919050565b5f6020601f8301049050919050565b5f82821b905092915050565b5f600883026102d67fffffffffffffffffffffffffffffffffffffffffffffffffffffffffffffffff8261029b565b6102e0868361029b565b95508019841693508086168417925050509392505050565b5f819050919050565b5f819050919050565b5f61032461031f61031a846102f8565b610301565b6102f8565b9050919050565b5f819050919050565b61033d8361030a565b6103516103498261032b565b8484546102a7565b825550505050565b5f5f905090565b610368610359565b610373818484610334565b505050565b5b818110156103965761038b5f82610360565b600181019050610379565b5050565b601f8211156103db576103ac8161027a565b6103b58461028c565b810160208510156103c4578190505b6103d86103d08561028c565b830182610378565b50505b505050565b5f82821c905092915050565b5f6103fb5f19846008026103e0565b1980831691505092915050565b5f61041383836103ec565b9150826002028217905092915050565b61042c826101e6565b67ffffffffffffffff811115610445576104446101f0565b5b61044f825461024a565b61045a82828561039a565b5f60209050601f83116001811461048b575f8415610479578287015190505b6104838582610408565b8655506104ea565b601f1984166104998661027a565b5f5b828110156104c05784890151825560018201915060208501945060208101905061049b565b868310156104dd57848901516104d9601f8916826103ec565b8355505b6001600288020188555050505b505050505050565b5f73ffffffffffffffffffffffffffffffffffffffff82169050919050565b5f61051b826104f2565b9050919050565b61052b81610511565b82525050565b5f6020820190506105445f830184610522565b92915050565b612a77806105575f395ff3fe608060405260043610610134575f3560e01c806370a08231116100aa578063a22cb4651161006e578063a22cb46514610404578063b88d4fde1461042c578063c87b56dd14610454578063e8b5e51f14610490578063e985e9c51461049a578063f2fde38b146104d657610134565b806370a0823114610334578063715018a6146103705780638b7afe2e146103865780638da5cb5b146103b057806395d89b41146103da57610134565b80633ccfd60b116100fc5780633ccfd60b1461022a57806342842e0e146102405780635216aeec1461026857806361b8ce8c146102925780636352211e146102bc57806366138686146102f857610134565b806301ffc9a71461013857806306fdde0314610174578063081812fc1461019e578063095ea7b3146101da57806323b872dd14610202575b5f5ffd5b348015610143575f5ffd5b5061015e60048036038101906101599190611e34565b6104fe565b60405161016b9190611e79565b60405180910390f35b34801561017f575f5ffd5b5061018861055e565b6040516101959190611f02565b60405180910390f35b3480156101a9575f5ffd5b506101c460048036038101906101bf9190611f55565b6105ed565b6040516101d19190611fbf565b60405180910390f35b3480156101e5575f5ffd5b5061020060048036038101906101fb9190612002565b610608565b005b34801561020d575f5ffd5b5061022860048036038101906102239190612040565b61061e565b005b348015610235575f5ffd5b5061023e61071d565b005b34801561024b575f5ffd5b5061026660048036038101906102619190612040565b61080e565b005b348015610273575f5ffd5b5061027c61082d565b604051610289919061209f565b60405180910390f35b34801561029d575f5ffd5b506102a6610833565b6040516102b3919061209f565b60405180910390f35b3480156102c7575f5ffd5b506102e260048036038101906102dd9190611f55565b610839565b6040516102ef9190611fbf565b60405180910390f35b348015610303575f5ffd5b5061031e60048036038101906103199190612119565b61084a565b60405161032b919061209f565b60405180910390f35b34801561033f575f5ffd5b5061035a60048036038101906103559190612176565b610923565b604051610367919061209f565b60405180910390f35b34801561037b575f5ffd5b506103846109d9565b005b348015610391575f5ffd5b5061039a6109ec565b6040516103a7919061209f565b60405180910390f35b3480156103bb575f5ffd5b506103c46109f3565b6040516103d19190611fbf565b60405180910390f35b3480156103e5575f5ffd5b506103ee610a1b565b6040516103fb9190611f02565b60405180910390f35b34801561040f575f5ffd5b5061042a600480360381019061042591906121cb565b610aab565b005b348015610437575f5ffd5b50610452600480360381019061044d9190612331565b610ac1565b005b34801561045f575f5ffd5b5061047a60048036038101906104759190611f55565b610ade565b6040516104879190611f02565b60405180910390f35b610498610be9565b005b3480156104a5575f5ffd5b506104c060048036038101906104bb91906123b1565b610c93565b6040516104cd9190611e79565b60405180910390f35b3480156104e1575f5ffd5b506104fc60048036038101906104f79190612176565b610d21565b005b5f634906490660e01b7bffffffffffffffffffffffffffffffffffffffffffffffffffffffff1916827bffffffffffffffffffffffffffffffffffffffffffffffffffffffff19161480610557575061055682610da5565b5b9050919050565b60605f805461056c9061241c565b80601f01602080910402602001604051908101604052809291908181526020018280546105989061241c565b80156105e35780601f106105ba576101008083540402835291602001916105e3565b820191905f5260205f20905b8154815290600101906020018083116105c657829003601f168201915b5050505050905090565b5f6105f782610e86565b5061060182610f0c565b9050919050565b61061a8282610615610f45565b610f4c565b5050565b5f73ffffffffffffffffffffffffffffffffffffffff168273ffffffffffffffffffffffffffffffffffffffff160361068e575f6040517f64a0ae920000000000000000000000000000000000000000000000000000000081526004016106859190611fbf565b60405180910390fd5b5f6106a1838361069c610f45565b610f5e565b90508373ffffffffffffffffffffffffffffffffffffffff168173ffffffffffffffffffffffffffffffffffffffff1614610717578382826040517f64283d7b00000000000000000000000000000000000000000000000000000000815260040161070e9392919061244c565b60405180910390fd5b50505050565b610725611169565b5f4790505f811161076b576040517f08c379a0000000000000000000000000000000000000000000000000000000008152600401610762906124cb565b60405180910390fd5b6107736109f3565b73ffffffffffffffffffffffffffffffffffffffff166108fc8290811502906040515f60405180830381858888f193505050501580156107b5573d5f5f3e3d5ffd5b506107be6109f3565b73ffffffffffffffffffffffffffffffffffffffff167f7084f5476618d8e60b11ef0d7d3f06914655adb8793e28ff7f018d4c76d505d582604051610803919061209f565b60405180910390a250565b61082883838360405180602001604052805f815250610ac1565b505050565b60095481565b60085481565b5f61084382610e86565b9050919050565b5f610853611169565b60085f81548092919061086590612516565b91905055505f600854905061087a85826111f0565b6108c78185858080601f0160208091040260200160405190810160405280939291908181526020018383808284375f81840152601f19601f8201169050808301925050505050505061120d565b8473ffffffffffffffffffffffffffffffffffffffff16817f882006e3fbde4079837ba4268239c83e7c1da123adac4e517402aa5331f1aa808686604051610910929190612589565b60405180910390a3809150509392505050565b5f5f73ffffffffffffffffffffffffffffffffffffffff168273ffffffffffffffffffffffffffffffffffffffff1603610994575f6040517f89c62b6400000000000000000000000000000000000000000000000000000000815260040161098b9190611fbf565b60405180910390fd5b60035f8373ffffffffffffffffffffffffffffffffffffffff1673ffffffffffffffffffffffffffffffffffffffff1681526020019081526020015f20549050919050565b6109e1611169565b6109ea5f611267565b565b5f47905090565b5f60075f9054906101000a900473ffffffffffffffffffffffffffffffffffffffff16905090565b606060018054610a2a9061241c565b80601f0160208091040260200160405190810160405280929190818152602001828054610a569061241c565b8015610aa15780601f10610a7857610100808354040283529160200191610aa1565b820191905f5260205f20905b815481529060010190602001808311610a8457829003601f168201915b5050505050905090565b610abd610ab6610f45565b838361132a565b5050565b610acc84848461061e565b610ad884848484611493565b50505050565b6060610ae982610e86565b505f60065f8481526020019081526020015f208054610b079061241c565b80601f0160208091040260200160405190810160405280929190818152602001828054610b339061241c565b8015610b7e5780601f10610b5557610100808354040283529160200191610b7e565b820191905f5260205f20905b815481529060010190602001808311610b6157829003601f168201915b505050505090505f610b8e611645565b90505f815103610ba2578192505050610be4565b5f82511115610bd6578082604051602001610bbe9291906125e5565b60405160208183030381529060405292505050610be4565b610bdf8461165b565b925050505b919050565b5f3411610c2b576040517f08c379a0000000000000000000000000000000000000000000000000000000008152600401610c2290612652565b60405180910390fd5b3460095f828254610c3c9190612670565b925050819055503373ffffffffffffffffffffffffffffffffffffffff167fc3f75dfc78f6efac88ad5abb5e606276b903647d97b2a62a1ef89840a658bbc334604051610c89919061209f565b60405180910390a2565b5f60055f8473ffffffffffffffffffffffffffffffffffffffff1673ffffffffffffffffffffffffffffffffffffffff1681526020019081526020015f205f8373ffffffffffffffffffffffffffffffffffffffff1673ffffffffffffffffffffffffffffffffffffffff1681526020019081526020015f205f9054906101000a900460ff16905092915050565b610d29611169565b5f73ffffffffffffffffffffffffffffffffffffffff168173ffffffffffffffffffffffffffffffffffffffff1603610d99575f6040517f1e4fbdf7000000000000000000000000000000000000000000000000000000008152600401610d909190611fbf565b60405180910390fd5b610da281611267565b50565b5f7f80ac58cd000000000000000000000000000000000000000000000000000000007bffffffffffffffffffffffffffffffffffffffffffffffffffffffff1916827bffffffffffffffffffffffffffffffffffffffffffffffffffffffff19161480610e6f57507f5b5e139f000000000000000000000000000000000000000000000000000000007bffffffffffffffffffffffffffffffffffffffffffffffffffffffff1916827bffffffffffffffffffffffffffffffffffffffffffffffffffffffff1916145b80610e7f5750610e7e826116c1565b5b9050919050565b5f5f610e918361172a565b90505f73ffffffffffffffffffffffffffffffffffffffff168173ffffffffffffffffffffffffffffffffffffffff1603610f0357826040517f7e273289000000000000000000000000000000000000000000000000000000008152600401610efa919061209f565b60405180910390fd5b80915050919050565b5f60045f8381526020019081526020015f205f9054906101000a900473ffffffffffffffffffffffffffffffffffffffff169050919050565b5f33905090565b610f598383836001611763565b505050565b5f5f610f698461172a565b90505f73ffffffffffffffffffffffffffffffffffffffff168373ffffffffffffffffffffffffffffffffffffffff1614610faa57610fa9818486611922565b5b5f73ffffffffffffffffffffffffffffffffffffffff168173ffffffffffffffffffffffffffffffffffffffff161461103557610fe95f855f5f611763565b600160035f8373ffffffffffffffffffffffffffffffffffffffff1673ffffffffffffffffffffffffffffffffffffffff1681526020019081526020015f205f82825403925050819055505b5f73ffffffffffffffffffffffffffffffffffffffff168573ffffffffffffffffffffffffffffffffffffffff16146110b457600160035f8773ffffffffffffffffffffffffffffffffffffffff1673ffffffffffffffffffffffffffffffffffffffff1681526020019081526020015f205f82825401925050819055505b8460025f8681526020019081526020015f205f6101000a81548173ffffffffffffffffffffffffffffffffffffffff021916908373ffffffffffffffffffffffffffffffffffffffff160217905550838573ffffffffffffffffffffffffffffffffffffffff168273ffffffffffffffffffffffffffffffffffffffff167fddf252ad1be2c89b69c2b068fc378daa952ba7f163c4a11628f55a4df523b3ef60405160405180910390a4809150509392505050565b611171610f45565b73ffffffffffffffffffffffffffffffffffffffff1661118f6109f3565b73ffffffffffffffffffffffffffffffffffffffff16146111ee576111b2610f45565b6040517f118cdaa70000000000000000000000000000000000000000000000000000000081526004016111e59190611fbf565b60405180910390fd5b565b611209828260405180602001604052805f8152506119e5565b5050565b8060065f8481526020019081526020015f20908161122b9190612843565b507ff8e1a15aba9398e019f0b49df1a4fde98ee17ae345cb5f6b5e2c27f5033e8ce78260405161125b919061209f565b60405180910390a15050565b5f60075f9054906101000a900473ffffffffffffffffffffffffffffffffffffffff1690508160075f6101000a81548173ffffffffffffffffffffffffffffffffffffffff021916908373ffffffffffffffffffffffffffffffffffffffff1602179055508173ffffffffffffffffffffffffffffffffffffffff168173ffffffffffffffffffffffffffffffffffffffff167f8be0079c531659141344cd1fd0a4f28419497f9722a3daafe3b4186f6b6457e060405160405180910390a35050565b5f73ffffffffffffffffffffffffffffffffffffffff168273ffffffffffffffffffffffffffffffffffffffff160361139a57816040517f5b08ba180000000000000000000000000000000000000000000000000000000081526004016113919190611fbf565b60405180910390fd5b8060055f8573ffffffffffffffffffffffffffffffffffffffff1673ffffffffffffffffffffffffffffffffffffffff1681526020019081526020015f205f8473ffffffffffffffffffffffffffffffffffffffff1673ffffffffffffffffffffffffffffffffffffffff1681526020019081526020015f205f6101000a81548160ff0219169083151502179055508173ffffffffffffffffffffffffffffffffffffffff168373ffffffffffffffffffffffffffffffffffffffff167f17307eab39ab6107e8899845ad3d59bd9653f200f220920489ca2b5937696c31836040516114869190611e79565b60405180910390a3505050565b5f8373ffffffffffffffffffffffffffffffffffffffff163b111561163f578273ffffffffffffffffffffffffffffffffffffffff1663150b7a026114d6610f45565b8685856040518563ffffffff1660e01b81526004016114f89493929190612964565b6020604051808303815f875af192505050801561153357506040513d601f19601f8201168201806040525081019061153091906129c2565b60015b6115b4573d805f8114611561576040519150601f19603f3d011682016040523d82523d5f602084013e611566565b606091505b505f8151036115ac57836040517f64a0ae920000000000000000000000000000000000000000000000000000000081526004016115a39190611fbf565b60405180910390fd5b805181602001fd5b63150b7a0260e01b7bffffffffffffffffffffffffffffffffffffffffffffffffffffffff1916817bffffffffffffffffffffffffffffffffffffffffffffffffffffffff19161461163d57836040517f64a0ae920000000000000000000000000000000000000000000000000000000081526004016116349190611fbf565b60405180910390fd5b505b50505050565b606060405180602001604052805f815250905090565b606061166682610e86565b505f611670611645565b90505f81511161168e5760405180602001604052805f8152506116b9565b8061169884611a00565b6040516020016116a99291906125e5565b6040516020818303038152906040525b915050919050565b5f7f01ffc9a7000000000000000000000000000000000000000000000000000000007bffffffffffffffffffffffffffffffffffffffffffffffffffffffff1916827bffffffffffffffffffffffffffffffffffffffffffffffffffffffff1916149050919050565b5f60025f8381526020019081526020015f205f9054906101000a900473ffffffffffffffffffffffffffffffffffffffff169050919050565b808061179b57505f73ffffffffffffffffffffffffffffffffffffffff168273ffffffffffffffffffffffffffffffffffffffff1614155b156118cd575f6117aa84610e86565b90505f73ffffffffffffffffffffffffffffffffffffffff168373ffffffffffffffffffffffffffffffffffffffff161415801561181457508273ffffffffffffffffffffffffffffffffffffffff168173ffffffffffffffffffffffffffffffffffffffff1614155b801561182757506118258184610c93565b155b1561186957826040517fa9fbf51f0000000000000000000000000000000000000000000000000000000081526004016118609190611fbf565b60405180910390fd5b81156118cb57838573ffffffffffffffffffffffffffffffffffffffff168273ffffffffffffffffffffffffffffffffffffffff167f8c5be1e5ebec7d5bd14f71427d1e84f3dd0314c0f7b2291e5b200ac8c7c3b92560405160405180910390a45b505b8360045f8581526020019081526020015f205f6101000a81548173ffffffffffffffffffffffffffffffffffffffff021916908373ffffffffffffffffffffffffffffffffffffffff16021790555050505050565b61192d838383611aca565b6119e0575f73ffffffffffffffffffffffffffffffffffffffff168373ffffffffffffffffffffffffffffffffffffffff16036119a157806040517f7e273289000000000000000000000000000000000000000000000000000000008152600401611998919061209f565b60405180910390fd5b81816040517f177e802f0000000000000000000000000000000000000000000000000000000081526004016119d79291906129ed565b60405180910390fd5b505050565b6119ef8383611b8a565b6119fb5f848484611493565b505050565b60605f6001611a0e84611c7d565b0190505f8167ffffffffffffffff811115611a2c57611a2b61220d565b5b6040519080825280601f01601f191660200182016040528015611a5e5781602001600182028036833780820191505090505b5090505f82602001820190505b600115611abf578080600190039150507f3031323334353637383961626364656600000000000000000000000000000000600a86061a8153600a8581611ab457611ab3612a14565b5b0494505f8503611a6b575b819350505050919050565b5f5f73ffffffffffffffffffffffffffffffffffffffff168373ffffffffffffffffffffffffffffffffffffffff1614158015611b8157508273ffffffffffffffffffffffffffffffffffffffff168473ffffffffffffffffffffffffffffffffffffffff161480611b425750611b418484610c93565b5b80611b8057508273ffffffffffffffffffffffffffffffffffffffff16611b6883610f0c565b73ffffffffffffffffffffffffffffffffffffffff16145b5b90509392505050565b5f73ffffffffffffffffffffffffffffffffffffffff168273ffffffffffffffffffffffffffffffffffffffff1603611bfa575f6040517f64a0ae92000000000000000000000000000000000000000000000000000000008152600401611bf19190611fbf565b60405180910390fd5b5f611c0683835f610f5e565b90505f73ffffffffffffffffffffffffffffffffffffffff168173ffffffffffffffffffffffffffffffffffffffff1614611c78575f6040517f73c6ac6e000000000000000000000000000000000000000000000000000000008152600401611c6f9190611fbf565b60405180910390fd5b505050565b5f5f5f90507a184f03e93ff9f4daa797ed6e38ed64bf6a1f0100000000000000008310611cd9577a184f03e93ff9f4daa797ed6e38ed64bf6a1f0100000000000000008381611ccf57611cce612a14565b5b0492506040810190505b6d04ee2d6d415b85acef81000000008310611d16576d04ee2d6d415b85acef81000000008381611d0c57611d0b612a14565b5b0492506020810190505b662386f26fc100008310611d4557662386f26fc100008381611d3b57611d3a612a14565b5b0492506010810190505b6305f5e1008310611d6e576305f5e1008381611d6457611d63612a14565b5b0492506008810190505b6127108310611d93576127108381611d8957611d88612a14565b5b0492506004810190505b60648310611db65760648381611dac57611dab612a14565b5b0492506002810190505b600a8310611dc5576001810190505b80915050919050565b5f604051905090565b5f5ffd5b5f5ffd5b5f7fffffffff0000000000000000000000000000000000000000000000000000000082169050919050565b611e1381611ddf565b8114611e1d575f5ffd5b50565b5f81359050611e2e81611e0a565b92915050565b5f60208284031215611e4957611e48611dd7565b5b5f611e5684828501611e20565b91505092915050565b5f8115159050919050565b611e7381611e5f565b82525050565b5f602082019050611e8c5f830184611e6a565b92915050565b5f81519050919050565b5f82825260208201905092915050565b8281835e5f83830152505050565b5f601f19601f8301169050919050565b5f611ed482611e92565b611ede8185611e9c565b9350611eee818560208601611eac565b611ef781611eba565b840191505092915050565b5f6020820190508181035f830152611f1a8184611eca565b905092915050565b5f819050919050565b611f3481611f22565b8114611f3e575f5ffd5b50565b5f81359050611f4f81611f2b565b92915050565b5f60208284031215611f6a57611f69611dd7565b5b5f611f7784828501611f41565b91505092915050565b5f73ffffffffffffffffffffffffffffffffffffffff82169050919050565b5f611fa982611f80565b9050919050565b611fb981611f9f565b82525050565b5f602082019050611fd25f830184611fb0565b92915050565b611fe181611f9f565b8114611feb575f5ffd5b50565b5f81359050611ffc81611fd8565b92915050565b5f5f6040838503121561201857612017611dd7565b5b5f61202585828601611fee565b925050602061203685828601611f41565b9150509250929050565b5f5f5f6060848603121561205757612056611dd7565b5b5f61206486828701611fee565b935050602061207586828701611fee565b925050604061208686828701611f41565b9150509250925092565b61209981611f22565b82525050565b5f6020820190506120b25f830184612090565b92915050565b5f5ffd5b5f5ffd5b5f5ffd5b5f5f83601f8401126120d9576120d86120b8565b5b8235905067ffffffffffffffff8111156120f6576120f56120bc565b5b602083019150836001820283011115612112576121116120c0565b5b9250929050565b5f5f5f604084860312156121305761212f611dd7565b5b5f61213d86828701611fee565b935050602084013567ffffffffffffffff81111561215e5761215d611ddb565b5b61216a868287016120c4565b92509250509250925092565b5f6020828403121561218b5761218a611dd7565b5b5f61219884828501611fee565b91505092915050565b6121aa81611e5f565b81146121b4575f5ffd5b50565b5f813590506121c5816121a1565b92915050565b5f5f604083850312156121e1576121e0611dd7565b5b5f6121ee85828601611fee565b92505060206121ff858286016121b7565b9150509250929050565b5f5ffd5b7f4e487b71000000000000000000000000000000000000000000000000000000005f52604160045260245ffd5b61224382611eba565b810181811067ffffffffffffffff821117156122625761226161220d565b5b80604052505050565b5f612274611dce565b9050612280828261223a565b919050565b5f67ffffffffffffffff82111561229f5761229e61220d565b5b6122a882611eba565b9050602081019050919050565b828183375f83830152505050565b5f6122d56122d084612285565b61226b565b9050828152602081018484840111156122f1576122f0612209565b5b6122fc8482856122b5565b509392505050565b5f82601f830112612318576123176120b8565b5b81356123288482602086016122c3565b91505092915050565b5f5f5f5f6080858703121561234957612348611dd7565b5b5f61235687828801611fee565b945050602061236787828801611fee565b935050604061237887828801611f41565b925050606085013567ffffffffffffffff81111561239957612398611ddb565b5b6123a587828801612304565b91505092959194509250565b5f5f604083850312156123c7576123c6611dd7565b5b5f6123d485828601611fee565b92505060206123e585828601611fee565b9150509250929050565b7f4e487b71000000000000000000000000000000000000000000000000000000005f52602260045260245ffd5b5f600282049050600182168061243357607f821691505b602082108103612446576124456123ef565b5b50919050565b5f60608201905061245f5f830186611fb0565b61246c6020830185612090565b6124796040830184611fb0565b949350505050565b7f4e6f7468696e6720746f207769746864726177000000000000000000000000005f82015250565b5f6124b5601383611e9c565b91506124c082612481565b602082019050919050565b5f6020820190508181035f8301526124e2816124a9565b9050919050565b7f4e487b71000000000000000000000000000000000000000000000000000000005f52601160045260245ffd5b5f61252082611f22565b91507fffffffffffffffffffffffffffffffffffffffffffffffffffffffffffffffff8203612552576125516124e9565b5b600182019050919050565b5f6125688385611e9c565b93506125758385846122b5565b61257e83611eba565b840190509392505050565b5f6020820190508181035f8301526125a281848661255d565b90509392505050565b5f81905092915050565b5f6125bf82611e92565b6125c981856125ab565b93506125d9818560208601611eac565b80840191505092915050565b5f6125f082856125b5565b91506125fc82846125b5565b91508190509392505050565b7f496e766573746d656e74206d757374206265203e2030000000000000000000005f82015250565b5f61263c601683611e9c565b915061264782612608565b602082019050919050565b5f6020820190508181035f83015261266981612630565b9050919050565b5f61267a82611f22565b915061268583611f22565b925082820190508082111561269d5761269c6124e9565b5b92915050565b5f819050815f5260205f209050919050565b5f6020601f8301049050919050565b5f82821b905092915050565b5f600883026126ff7fffffffffffffffffffffffffffffffffffffffffffffffffffffffffffffffff826126c4565b61270986836126c4565b95508019841693508086168417925050509392505050565b5f819050919050565b5f61274461273f61273a84611f22565b612721565b611f22565b9050919050565b5f819050919050565b61275d8361272a565b6127716127698261274b565b8484546126d0565b825550505050565b5f5f905090565b612788612779565b612793818484612754565b505050565b5b818110156127b6576127ab5f82612780565b600181019050612799565b5050565b601f8211156127fb576127cc816126a3565b6127d5846126b5565b810160208510156127e4578190505b6127f86127f0856126b5565b830182612798565b50505b505050565b5f82821c905092915050565b5f61281b5f1984600802612800565b1980831691505092915050565b5f612833838361280c565b9150826002028217905092915050565b61284c82611e92565b67ffffffffffffffff8111156128655761286461220d565b5b61286f825461241c565b61287a8282856127ba565b5f60209050601f8311600181146128ab575f8415612899578287015190505b6128a38582612828565b86555061290a565b601f1984166128b9866126a3565b5f5b828110156128e0578489015182556001820191506020850194506020810190506128bb565b868310156128fd57848901516128f9601f89168261280c565b8355505b6001600288020188555050505b505050505050565b5f81519050919050565b5f82825260208201905092915050565b5f61293682612912565b612940818561291c565b9350612950818560208601611eac565b61295981611eba565b840191505092915050565b5f6080820190506129775f830187611fb0565b6129846020830186611fb0565b6129916040830185612090565b81810360608301526129a3818461292c565b905095945050505050565b5f815190506129bc81611e0a565b92915050565b5f602082840312156129d7576129d6611dd7565b5b5f6129e4848285016129ae565b91505092915050565b5f604082019050612a005f830185611fb0565b612a0d6020830184612090565b9392505050565b7f4e487b71000000000000000000000000000000000000000000000000000000005f52601260045260245ffdfea264697066735822122018cbdc5836b714e18d0831e957349deaa45037a1dd133a22f75af7b692da555964736f6c634300081e0033",
			"opcodes": "PUSH1 0x80 PUSH1 0x40 MSTORE CALLVALUE DUP1 ISZERO PUSH2 0xF JUMPI PUSH0 PUSH0 REVERT JUMPDEST POP CALLER PUSH1 0x40 MLOAD DUP1 PUSH1 0x40 ADD PUSH1 0x40 MSTORE DUP1 PUSH1 0x12 DUP2 MSTORE PUSH1 0x20 ADD PUSH32 0x4172746966696369616C20476C61636965720000000000000000000000000000 DUP2 MSTORE POP PUSH1 0x40 MLOAD DUP1 PUSH1 0x40 ADD PUSH1 0x40 MSTORE DUP1 PUSH1 0x4 DUP2 MSTORE PUSH1 0x20 ADD PUSH32 0x474C435200000000000000000000000000000000000000000000000000000000 DUP2 MSTORE POP DUP2 PUSH0 SWAP1 DUP2 PUSH2 0x8B SWAP2 SWAP1 PUSH2 0x423 JUMP JUMPDEST POP DUP1 PUSH1 0x1 SWAP1 DUP2 PUSH2 0x9B SWAP2 SWAP1 PUSH2 0x423 JUMP JUMPDEST POP POP POP PUSH0 PUSH20 0xFFFFFFFFFFFFFFFFFFFFFFFFFFFFFFFFFFFFFFFF AND DUP2 PUSH20 0xFFFFFFFFFFFFFFFFFFFFFFFFFFFFFFFFFFFFFFFF AND SUB PUSH2 0x10E JUMPI PUSH0 PUSH1 0x40 MLOAD PUSH32 0x1E4FBDF700000000000000000000000000000000000000000000000000000000 DUP2 MSTORE PUSH1 0x4 ADD PUSH2 0x105 SWAP2 SWAP1 PUSH2 0x531 JUMP JUMPDEST PUSH1 0x40 MLOAD DUP1 SWAP2 SUB SWAP1 REVERT JUMPDEST PUSH2 0x11D DUP2 PUSH2 0x123 PUSH1 0x20 SHL PUSH1 0x20 SHR JUMP JUMPDEST POP PUSH2 0x54A JUMP JUMPDEST PUSH0 PUSH1 0x7 PUSH0 SWAP1 SLOAD SWAP1 PUSH2 0x100 EXP SWAP1 DIV PUSH20 0xFFFFFFFFFFFFFFFFFFFFFFFFFFFFFFFFFFFFFFFF AND SWAP1 POP DUP2 PUSH1 0x7 PUSH0 PUSH2 0x100 EXP DUP2 SLOAD DUP2 PUSH20 0xFFFFFFFFFFFFFFFFFFFFFFFFFFFFFFFFFFFFFFFF MUL NOT AND SWAP1 DUP4 PUSH20 0xFFFFFFFFFFFFFFFFFFFFFFFFFFFFFFFFFFFFFFFF AND MUL OR SWAP1 SSTORE POP DUP2 PUSH20 0xFFFFFFFFFFFFFFFFFFFFFFFFFFFFFFFFFFFFFFFF AND DUP2 PUSH20 0xFFFFFFFFFFFFFFFFFFFFFFFFFFFFFFFFFFFFFFFF AND PUSH32 0x8BE0079C531659141344CD1FD0A4F28419497F9722A3DAAFE3B4186F6B6457E0 PUSH1 0x40 MLOAD PUSH1 0x40 MLOAD DUP1 SWAP2 SUB SWAP1 LOG3 POP POP JUMP JUMPDEST PUSH0 DUP2 MLOAD SWAP1 POP SWAP2 SWAP1 POP JUMP JUMPDEST PUSH32 0x4E487B7100000000000000000000000000000000000000000000000000000000 PUSH0 MSTORE PUSH1 0x41 PUSH1 0x4 MSTORE PUSH1 0x24 PUSH0 REVERT JUMPDEST PUSH32 0x4E487B7100000000000000000000000000000000000000000000000000000000 PUSH0 MSTORE PUSH1 0x22 PUSH1 0x4 MSTORE PUSH1 0x24 PUSH0 REVERT JUMPDEST PUSH0 PUSH1 0x2 DUP3 DIV SWAP1 POP PUSH1 0x1 DUP3 AND DUP1 PUSH2 0x261 JUMPI PUSH1 0x7F DUP3 AND SWAP2 POP JUMPDEST PUSH1 0x20 DUP3 LT DUP2 SUB PUSH2 0x274 JUMPI PUSH2 0x273 PUSH2 0x21D JUMP JUMPDEST JUMPDEST POP SWAP2 SWAP1 POP JUMP JUMPDEST PUSH0 DUP2 SWAP1 POP DUP2 PUSH0 MSTORE PUSH1 0x20 PUSH0 KECCAK256 SWAP1 POP SWAP2 SWAP1 POP JUMP JUMPDEST PUSH0 PUSH1 0x20 PUSH1 0x1F DUP4 ADD DIV SWAP1 POP SWAP2 SWAP1 POP JUMP JUMPDEST PUSH0 DUP3 DUP3 SHL SWAP1 POP SWAP3 SWAP2 POP POP JUMP JUMPDEST PUSH0 PUSH1 0x8 DUP4 MUL PUSH2 0x2D6 PUSH32 0xFFFFFFFFFFFFFFFFFFFFFFFFFFFFFFFFFFFFFFFFFFFFFFFFFFFFFFFFFFFFFFFF DUP3 PUSH2 0x29B JUMP JUMPDEST PUSH2 0x2E0 DUP7 DUP4 PUSH2 0x29B JUMP JUMPDEST SWAP6 POP DUP1 NOT DUP5 AND SWAP4 POP DUP1 DUP7 AND DUP5 OR SWAP3 POP POP POP SWAP4 SWAP3 POP POP POP JUMP JUMPDEST PUSH0 DUP2 SWAP1 POP SWAP2 SWAP1 POP JUMP JUMPDEST PUSH0 DUP2 SWAP1 POP SWAP2 SWAP1 POP JUMP JUMPDEST PUSH0 PUSH2 0x324 PUSH2 0x31F PUSH2 0x31A DUP5 PUSH2 0x2F8 JUMP JUMPDEST PUSH2 0x301 JUMP JUMPDEST PUSH2 0x2F8 JUMP JUMPDEST SWAP1 POP SWAP2 SWAP1 POP JUMP JUMPDEST PUSH0 DUP2 SWAP1 POP SWAP2 SWAP1 POP JUMP JUMPDEST PUSH2 0x33D DUP4 PUSH2 0x30A JUMP JUMPDEST PUSH2 0x351 PUSH2 0x349 DUP3 PUSH2 0x32B JUMP JUMPDEST DUP5 DUP5 SLOAD PUSH2 0x2A7 JUMP JUMPDEST DUP3 SSTORE POP POP POP POP JUMP JUMPDEST PUSH0 PUSH0 SWAP1 POP SWAP1 JUMP JUMPDEST PUSH2 0x368 PUSH2 0x359 JUMP JUMPDEST PUSH2 0x373 DUP2 DUP5 DUP5 PUSH2 0x334 JUMP JUMPDEST POP POP POP JUMP JUMPDEST JUMPDEST DUP2 DUP2 LT ISZERO PUSH2 0x396 JUMPI PUSH2 0x38B PUSH0 DUP3 PUSH2 0x360 JUMP JUMPDEST PUSH1 0x1 DUP2 ADD SWAP1 POP PUSH2 0x379 JUMP JUMPDEST POP POP JUMP JUMPDEST PUSH1 0x1F DUP3 GT ISZERO PUSH2 0x3DB JUMPI PUSH2 0x3AC DUP2 PUSH2 0x27A JUMP JUMPDEST PUSH2 0x3B5 DUP5 PUSH2 0x28C JUMP JUMPDEST DUP2 ADD PUSH1 0x20 DUP6 LT ISZERO PUSH2 0x3C4 JUMPI DUP2 SWAP1 POP JUMPDEST PUSH2 0x3D8 PUSH2 0x3D0 DUP6 PUSH2 0x28C JUMP JUMPDEST DUP4 ADD DUP3 PUSH2 0x378 JUMP JUMPDEST POP POP JUMPDEST POP POP POP JUMP JUMPDEST PUSH0 DUP3 DUP3 SHR SWAP1 POP SWAP3 SWAP2 POP POP JUMP JUMPDEST PUSH0 PUSH2 0x3FB PUSH0 NOT DUP5 PUSH1 0x8 MUL PUSH2 0x3E0 JUMP JUMPDEST NOT DUP1 DUP4 AND SWAP2 POP POP SWAP3 SWAP2 POP POP JUMP JUMPDEST PUSH0 PUSH2 0x413 DUP4 DUP4 PUSH2 0x3EC JUMP JUMPDEST SWAP2 POP DUP3 PUSH1 0x2 MUL DUP3 OR SWAP1 POP SWAP3 SWAP2 POP POP JUMP JUMPDEST PUSH2 0x42C DUP3 PUSH2 0x1E6 JUMP JUMPDEST PUSH8 0xFFFFFFFFFFFFFFFF DUP2 GT ISZERO PUSH2 0x445 JUMPI PUSH2 0x444 PUSH2 0x1F0 JUMP JUMPDEST JUMPDEST PUSH2 0x44F DUP3 SLOAD PUSH2 0x24A JUMP JUMPDEST PUSH2 0x45A DUP3 DUP3 DUP6 PUSH2 0x39A JUMP JUMPDEST PUSH0 PUSH1 0x20 SWAP1 POP PUSH1 0x1F DUP4 GT PUSH1 0x1 DUP2 EQ PUSH2 0x48B JUMPI PUSH0 DUP5 ISZERO PUSH2 0x479 JUMPI DUP3 DUP8 ADD MLOAD SWAP1 POP JUMPDEST PUSH2 0x483 DUP6 DUP3 PUSH2 0x408 JUMP JUMPDEST DUP7 SSTORE POP PUSH2 0x4EA JUMP JUMPDEST PUSH1 0x1F NOT DUP5 AND PUSH2 0x499 DUP7 PUSH2 0x27A JUMP JUMPDEST PUSH0 JUMPDEST DUP3 DUP2 LT ISZERO PUSH2 0x4C0 JUMPI DUP5 DUP10 ADD MLOAD DUP3 SSTORE PUSH1 0x1 DUP3 ADD SWAP2 POP PUSH1 0x20 DUP6 ADD SWAP5 POP PUSH1 0x20 DUP2 ADD SWAP1 POP PUSH2 0x49B JUMP JUMPDEST DUP7 DUP4 LT ISZERO PUSH2 0x4DD JUMPI DUP5 DUP10 ADD MLOAD PUSH2 0x4D9 PUSH1 0x1F DUP10 AND DUP3 PUSH2 0x3EC JUMP JUMPDEST DUP4 SSTORE POP JUMPDEST PUSH1 0x1 PUSH1 0x2 DUP9 MUL ADD DUP9 SSTORE POP POP POP JUMPDEST POP POP POP POP POP POP JUMP JUMPDEST PUSH0 PUSH20 0xFFFFFFFFFFFFFFFFFFFFFFFFFFFFFFFFFFFFFFFF DUP3 AND SWAP1 POP SWAP2 SWAP1 POP JUMP JUMPDEST PUSH0 PUSH2 0x51B DUP3 PUSH2 0x4F2 JUMP JUMPDEST SWAP1 POP SWAP2 SWAP1 POP JUMP JUMPDEST PUSH2 0x52B DUP2 PUSH2 0x511 JUMP JUMPDEST DUP3 MSTORE POP POP JUMP JUMPDEST PUSH0 PUSH1 0x20 DUP3 ADD SWAP1 POP PUSH2 0x544 PUSH0 DUP4 ADD DUP5 PUSH2 0x522 JUMP JUMPDEST SWAP3 SWAP2 POP POP JUMP JUMPDEST PUSH2 0x2A77 DUP1 PUSH2 0x557 PUSH0 CODECOPY PUSH0 RETURN INVALID PUSH1 0x80 PUSH1 0x40 MSTORE PUSH1 0x4 CALLDATASIZE LT PUSH2 0x134 JUMPI PUSH0 CALLDATALOAD PUSH1 0xE0 SHR DUP1 PUSH4 0x70A08231 GT PUSH2 0xAA JUMPI DUP1 PUSH4 0xA22CB465 GT PUSH2 0x6E JUMPI DUP1 PUSH4 0xA22CB465 EQ PUSH2 0x404 JUMPI DUP1 PUSH4 0xB88D4FDE EQ PUSH2 0x42C JUMPI DUP1 PUSH4 0xC87B56DD EQ PUSH2 0x454 JUMPI DUP1 PUSH4 0xE8B5E51F EQ PUSH2 0x490 JUMPI DUP1 PUSH4 0xE985E9C5 EQ PUSH2 0x49A JUMPI DUP1 PUSH4 0xF2FDE38B EQ PUSH2 0x4D6 JUMPI PUSH2 0x134 JUMP JUMPDEST DUP1 PUSH4 0x70A08231 EQ PUSH2 0x334 JUMPI DUP1 PUSH4 0x715018A6 EQ PUSH2 0x370 JUMPI DUP1 PUSH4 0x8B7AFE2E EQ PUSH2 0x386 JUMPI DUP1 PUSH4 0x8DA5CB5B EQ PUSH2 0x3B0 JUMPI DUP1 PUSH4 0x95D89B41 EQ PUSH2 0x3DA JUMPI PUSH2 0x134 JUMP JUMPDEST DUP1 PUSH4 0x3CCFD60B GT PUSH2 0xFC JUMPI DUP1 PUSH4 0x3CCFD60B EQ PUSH2 0x22A JUMPI DUP1 PUSH4 0x42842E0E EQ PUSH2 0x240 JUMPI DUP1 PUSH4 0x5216AEEC EQ PUSH2 0x268 JUMPI DUP1 PUSH4 0x61B8CE8C EQ PUSH2 0x292 JUMPI DUP1 PUSH4 0x6352211E EQ PUSH2 0x2BC JUMPI DUP1 PUSH4 0x66138686 EQ PUSH2 0x2F8 JUMPI PUSH2 0x134 JUMP JUMPDEST DUP1 PUSH4 0x1FFC9A7 EQ PUSH2 0x138 JUMPI DUP1 PUSH4 0x6FDDE03 EQ PUSH2 0x174 JUMPI DUP1 PUSH4 0x81812FC EQ PUSH2 0x19E JUMPI DUP1 PUSH4 0x95EA7B3 EQ PUSH2 0x1DA JUMPI DUP1 PUSH4 0x23B872DD EQ PUSH2 0x202 JUMPI JUMPDEST PUSH0 PUSH0 REVERT JUMPDEST CALLVALUE DUP1 ISZERO PUSH2 0x143 JUMPI PUSH0 PUSH0 REVERT JUMPDEST POP PUSH2 0x15E PUSH1 0x4 DUP1 CALLDATASIZE SUB DUP2 ADD SWAP1 PUSH2 0x159 SWAP2 SWAP1 PUSH2 0x1E34 JUMP JUMPDEST PUSH2 0x4FE JUMP JUMPDEST PUSH1 0x40 MLOAD PUSH2 0x16B SWAP2 SWAP1 PUSH2 0x1E79 JUMP JUMPDEST PUSH1 0x40 MLOAD DUP1 SWAP2 SUB SWAP1 RETURN JUMPDEST CALLVALUE DUP1 ISZERO PUSH2 0x17F JUMPI PUSH0 PUSH0 REVERT JUMPDEST POP PUSH2 0x188 PUSH2 0x55E JUMP JUMPDEST PUSH1 0x40 MLOAD PUSH2 0x195 SWAP2 SWAP1 PUSH2 0x1F02 JUMP JUMPDEST PUSH1 0x40 MLOAD DUP1 SWAP2 SUB SWAP1 RETURN JUMPDEST CALLVALUE DUP1 ISZERO PUSH2 0x1A9 JUMPI PUSH0 PUSH0 REVERT JUMPDEST POP PUSH2 0x1C4 PUSH1 0x4 DUP1 CALLDATASIZE SUB DUP2 ADD SWAP1 PUSH2 0x1BF SWAP2 SWAP1 PUSH2 0x1F55 JUMP JUMPDEST PUSH2 0x5ED JUMP JUMPDEST PUSH1 0x40 MLOAD PUSH2 0x1D1 SWAP2 SWAP1 PUSH2 0x1FBF JUMP JUMPDEST PUSH1 0x40 MLOAD DUP1 SWAP2 SUB SWAP1 RETURN JUMPDEST CALLVALUE DUP1 ISZERO PUSH2 0x1E5 JUMPI PUSH0 PUSH0 REVERT JUMPDEST POP PUSH2 0x200 PUSH1 0x4 DUP1 CALLDATASIZE SUB DUP2 ADD SWAP1 PUSH2 0x1FB SWAP2 SWAP1 PUSH2 0x2002 JUMP JUMPDEST PUSH2 0x608 JUMP JUMPDEST STOP JUMPDEST CALLVALUE DUP1 ISZERO PUSH2 0x20D JUMPI PUSH0 PUSH0 REVERT JUMPDEST POP PUSH2 0x228 PUSH1 0x4 DUP1 CALLDATASIZE SUB DUP2 ADD SWAP1 PUSH2 0x223 SWAP2 SWAP1 PUSH2 0x2040 JUMP JUMPDEST PUSH2 0x61E JUMP JUMPDEST STOP JUMPDEST CALLVALUE DUP1 ISZERO PUSH2 0x235 JUMPI PUSH0 PUSH0 REVERT JUMPDEST POP PUSH2 0x23E PUSH2 0x71D JUMP JUMPDEST STOP JUMPDEST CALLVALUE DUP1 ISZERO PUSH2 0x24B JUMPI PUSH0 PUSH0 REVERT JUMPDEST POP PUSH2 0x266 PUSH1 0x4 DUP1 CALLDATASIZE SUB DUP2 ADD SWAP1 PUSH2 0x261 SWAP2 SWAP1 PUSH2 0x2040 JUMP JUMPDEST PUSH2 0x80E JUMP JUMPDEST STOP JUMPDEST CALLVALUE DUP1 ISZERO PUSH2 0x273 JUMPI PUSH0 PUSH0 REVERT JUMPDEST POP PUSH2 0x27C PUSH2 0x82D JUMP JUMPDEST PUSH1 0x40 MLOAD PUSH2 0x289 SWAP2 SWAP1 PUSH2 0x209F JUMP JUMPDEST PUSH1 0x40 MLOAD DUP1 SWAP2 SUB SWAP1 RETURN JUMPDEST CALLVALUE DUP1 ISZERO PUSH2 0x29D JUMPI PUSH0 PUSH0 REVERT JUMPDEST POP PUSH2 0x2A6 PUSH2 0x833 JUMP JUMPDEST PUSH1 0x40 MLOAD PUSH2 0x2B3 SWAP2 SWAP1 PUSH2 0x209F JUMP JUMPDEST PUSH1 0x40 MLOAD DUP1 SWAP2 SUB SWAP1 RETURN JUMPDEST CALLVALUE DUP1 ISZERO PUSH2 0x2C7 JUMPI PUSH0 PUSH0 REVERT JUMPDEST POP PUSH2 0x2E2 PUSH1 0x4 DUP1 CALLDATASIZE SUB DUP2 ADD SWAP1 PUSH2 0x2DD SWAP2 SWAP1 PUSH2 0x1F55 JUMP JUMPDEST PUSH2 0x839 JUMP JUMPDEST PUSH1 0x40 MLOAD PUSH2 0x2EF SWAP2 SWAP1 PUSH2 0x1FBF JUMP JUMPDEST PUSH1 0x40 MLOAD DUP1 SWAP2 SUB SWAP1 RETURN JUMPDEST CALLVALUE DUP1 ISZERO PUSH2 0x303 JUMPI PUSH0 PUSH0 REVERT JUMPDEST POP PUSH2 0x31E PUSH1 0x4 DUP1 CALLDATASIZE SUB DUP2 ADD SWAP1 PUSH2 0x319 SWAP2 SWAP1 PUSH2 0x2119 JUMP JUMPDEST PUSH2 0x84A JUMP JUMPDEST PUSH1 0x40 MLOAD PUSH2 0x32B SWAP2 SWAP1 PUSH2 0x209F JUMP JUMPDEST PUSH1 0x40 MLOAD DUP1 SWAP2 SUB SWAP1 RETURN JUMPDEST CALLVALUE DUP1 ISZERO PUSH2 0x33F JUMPI PUSH0 PUSH0 REVERT JUMPDEST POP PUSH2 0x35A PUSH1 0x4 DUP1 CALLDATASIZE SUB DUP2 ADD SWAP1 PUSH2 0x355 SWAP2 SWAP1 PUSH2 0x2176 JUMP JUMPDEST PUSH2 0x923 JUMP JUMPDEST PUSH1 0x40 MLOAD PUSH2 0x367 SWAP2 SWAP1 PUSH2 0x209F JUMP JUMPDEST PUSH1 0x40 MLOAD DUP1 SWAP2 SUB SWAP1 RETURN JUMPDEST CALLVALUE DUP1 ISZERO PUSH2 0x37B JUMPI PUSH0 PUSH0 REVERT JUMPDEST POP PUSH2 0x384 PUSH2 0x9D9 JUMP JUMPDEST STOP JUMPDEST CALLVALUE DUP1 ISZERO PUSH2 0x391 JUMPI PUSH0 PUSH0 REVERT JUMPDEST POP PUSH2 0x39A PUSH2 0x9EC JUMP JUMPDEST PUSH1 0x40 MLOAD PUSH2 0x3A7 SWAP2 SWAP1 PUSH2 0x209F JUMP JUMPDEST PUSH1 0x40 MLOAD DUP1 SWAP2 SUB SWAP1 RETURN JUMPDEST CALLVALUE DUP1 ISZERO PUSH2 0x3BB JUMPI PUSH0 PUSH0 REVERT JUMPDEST POP PUSH2 0x3C4 PUSH2 0x9F3 JUMP JUMPDEST PUSH1 0x40 MLOAD PUSH2 0x3D1 SWAP2 SWAP1 PUSH2 0x1FBF JUMP JUMPDEST PUSH1 0x40 MLOAD DUP1 SWAP2 SUB SWAP1 RETURN JUMPDEST CALLVALUE DUP1 ISZERO PUSH2 0x3E5 JUMPI PUSH0 PUSH0 REVERT JUMPDEST POP PUSH2 0x3EE PUSH2 0xA1B JUMP JUMPDEST PUSH1 0x40 MLOAD PUSH2 0x3FB SWAP2 SWAP1 PUSH2 0x1F02 JUMP JUMPDEST PUSH1 0x40 MLOAD DUP1 SWAP2 SUB SWAP1 RETURN JUMPDEST CALLVALUE DUP1 ISZERO PUSH2 0x40F JUMPI PUSH0 PUSH0 REVERT JUMPDEST POP PUSH2 0x42A PUSH1 0x4 DUP1 CALLDATASIZE SUB DUP2 ADD SWAP1 PUSH2 0x425 SWAP2 SWAP1 PUSH2 0x21CB JUMP JUMPDEST PUSH2 0xAAB JUMP JUMPDEST STOP JUMPDEST CALLVALUE DUP1 ISZERO PUSH2 0x437 JUMPI PUSH0 PUSH0 REVERT JUMPDEST POP PUSH2 0x452 PUSH1 0x4 DUP1 CALLDATASIZE SUB DUP2 ADD SWAP1 PUSH2 0x44D SWAP2 SWAP1 PUSH2 0x2331 JUMP JUMPDEST PUSH2 0xAC1 JUMP JUMPDEST STOP JUMPDEST CALLVALUE DUP1 ISZERO PUSH2 0x45F JUMPI PUSH0 PUSH0 REVERT JUMPDEST POP PUSH2 0x47A PUSH1 0x4 DUP1 CALLDATASIZE SUB DUP2 ADD SWAP1 PUSH2 0x475 SWAP2 SWAP1 PUSH2 0x1F55 JUMP JUMPDEST PUSH2 0xADE JUMP JUMPDEST PUSH1 0x40 MLOAD PUSH2 0x487 SWAP2 SWAP1 PUSH2 0x1F02 JUMP JUMPDEST PUSH1 0x40 MLOAD DUP1 SWAP2 SUB SWAP1 RETURN JUMPDEST PUSH2 0x498 PUSH2 0xBE9 JUMP JUMPDEST STOP JUMPDEST CALLVALUE DUP1 ISZERO PUSH2 0x4A5 JUMPI PUSH0 PUSH0 REVERT JUMPDEST POP PUSH2 0x4C0 PUSH1 0x4 DUP1 CALLDATASIZE SUB DUP2 ADD SWAP1 PUSH2 0x4BB SWAP2 SWAP1 PUSH2 0x23B1 JUMP JUMPDEST PUSH2 0xC93 JUMP JUMPDEST PUSH1 0x40 MLOAD PUSH2 0x4CD SWAP2 SWAP1 PUSH2 0x1E79 JUMP JUMPDEST PUSH1 0x40 MLOAD DUP1 SWAP2 SUB SWAP1 RETURN JUMPDEST CALLVALUE DUP1 ISZERO PUSH2 0x4E1 JUMPI PUSH0 PUSH0 REVERT JUMPDEST POP PUSH2 0x4FC PUSH1 0x4 DUP1 CALLDATASIZE SUB DUP2 ADD SWAP1 PUSH2 0x4F7 SWAP2 SWAP1 PUSH2 0x2176 JUMP JUMPDEST PUSH2 0xD21 JUMP JUMPDEST STOP JUMPDEST PUSH0 PUSH4 0x49064906 PUSH1 0xE0 SHL PUSH28 0xFFFFFFFFFFFFFFFFFFFFFFFFFFFFFFFFFFFFFFFFFFFFFFFFFFFFFFFF NOT AND DUP3 PUSH28 0xFFFFFFFFFFFFFFFFFFFFFFFFFFFFFFFFFFFFFFFFFFFFFFFFFFFFFFFF NOT AND EQ DUP1 PUSH2 0x557 JUMPI POP PUSH2 0x556 DUP3 PUSH2 0xDA5 JUMP JUMPDEST JUMPDEST SWAP1 POP SWAP2 SWAP1 POP JUMP JUMPDEST PUSH1 0x60 PUSH0 DUP1 SLOAD PUSH2 0x56C SWAP1 PUSH2 0x241C JUMP JUMPDEST DUP1 PUSH1 0x1F ADD PUSH1 0x20 DUP1 SWAP2 DIV MUL PUSH1 0x20 ADD PUSH1 0x40 MLOAD SWAP1 DUP2 ADD PUSH1 0x40 MSTORE DUP1 SWAP3 SWAP2 SWAP1 DUP2 DUP2 MSTORE PUSH1 0x20 ADD DUP3 DUP1 SLOAD PUSH2 0x598 SWAP1 PUSH2 0x241C JUMP JUMPDEST DUP1 ISZERO PUSH2 0x5E3 JUMPI DUP1 PUSH1 0x1F LT PUSH2 0x5BA JUMPI PUSH2 0x100 DUP1 DUP4 SLOAD DIV MUL DUP4 MSTORE SWAP2 PUSH1 0x20 ADD SWAP2 PUSH2 0x5E3 JUMP JUMPDEST DUP3 ADD SWAP2 SWAP1 PUSH0 MSTORE PUSH1 0x20 PUSH0 KECCAK256 SWAP1 JUMPDEST DUP2 SLOAD DUP2 MSTORE SWAP1 PUSH1 0x1 ADD SWAP1 PUSH1 0x20 ADD DUP1 DUP4 GT PUSH2 0x5C6 JUMPI DUP3 SWAP1 SUB PUSH1 0x1F AND DUP3 ADD SWAP2 JUMPDEST POP POP POP POP POP SWAP1 POP SWAP1 JUMP JUMPDEST PUSH0 PUSH2 0x5F7 DUP3 PUSH2 0xE86 JUMP JUMPDEST POP PUSH2 0x601 DUP3 PUSH2 0xF0C JUMP JUMPDEST SWAP1 POP SWAP2 SWAP1 POP JUMP JUMPDEST PUSH2 0x61A DUP3 DUP3 PUSH2 0x615 PUSH2 0xF45 JUMP JUMPDEST PUSH2 0xF4C JUMP JUMPDEST POP POP JUMP JUMPDEST PUSH0 PUSH20 0xFFFFFFFFFFFFFFFFFFFFFFFFFFFFFFFFFFFFFFFF AND DUP3 PUSH20 0xFFFFFFFFFFFFFFFFFFFFFFFFFFFFFFFFFFFFFFFF AND SUB PUSH2 0x68E JUMPI PUSH0 PUSH1 0x40 MLOAD PUSH32 0x64A0AE9200000000000000000000000000000000000000000000000000000000 DUP2 MSTORE PUSH1 0x4 ADD PUSH2 0x685 SWAP2 SWAP1 PUSH2 0x1FBF JUMP JUMPDEST PUSH1 0x40 MLOAD DUP1 SWAP2 SUB SWAP1 REVERT JUMPDEST PUSH0 PUSH2 0x6A1 DUP4 DUP4 PUSH2 0x69C PUSH2 0xF45 JUMP JUMPDEST PUSH2 0xF5E JUMP JUMPDEST SWAP1 POP DUP4 PUSH20 0xFFFFFFFFFFFFFFFFFFFFFFFFFFFFFFFFFFFFFFFF AND DUP2 PUSH20 0xFFFFFFFFFFFFFFFFFFFFFFFFFFFFFFFFFFFFFFFF AND EQ PUSH2 0x717 JUMPI DUP4 DUP3 DUP3 PUSH1 0x40 MLOAD PUSH32 0x64283D7B00000000000000000000000000000000000000000000000000000000 DUP2 MSTORE PUSH1 0x4 ADD PUSH2 0x70E SWAP4 SWAP3 SWAP2 SWAP1 PUSH2 0x244C JUMP JUMPDEST PUSH1 0x40 MLOAD DUP1 SWAP2 SUB SWAP1 REVERT JUMPDEST POP POP POP POP JUMP JUMPDEST PUSH2 0x725 PUSH2 0x1169 JUMP JUMPDEST PUSH0 SELFBALANCE SWAP1 POP PUSH0 DUP2 GT PUSH2 0x76B JUMPI PUSH1 0x40 MLOAD PUSH32 0x8C379A000000000000000000000000000000000000000000000000000000000 DUP2 MSTORE PUSH1 0x4 ADD PUSH2 0x762 SWAP1 PUSH2 0x24CB JUMP JUMPDEST PUSH1 0x40 MLOAD DUP1 SWAP2 SUB SWAP1 REVERT JUMPDEST PUSH2 0x773 PUSH2 0x9F3 JUMP JUMPDEST PUSH20 0xFFFFFFFFFFFFFFFFFFFFFFFFFFFFFFFFFFFFFFFF AND PUSH2 0x8FC DUP3 SWAP1 DUP2 ISZERO MUL SWAP1 PUSH1 0x40 MLOAD PUSH0 PUSH1 0x40 MLOAD DUP1 DUP4 SUB DUP2 DUP6 DUP9 DUP9 CALL SWAP4 POP POP POP POP ISZERO DUP1 ISZERO PUSH2 0x7B5 JUMPI RETURNDATASIZE PUSH0 PUSH0 RETURNDATACOPY RETURNDATASIZE PUSH0 REVERT JUMPDEST POP PUSH2 0x7BE PUSH2 0x9F3 JUMP JUMPDEST PUSH20 0xFFFFFFFFFFFFFFFFFFFFFFFFFFFFFFFFFFFFFFFF AND PUSH32 0x7084F5476618D8E60B11EF0D7D3F06914655ADB8793E28FF7F018D4C76D505D5 DUP3 PUSH1 0x40 MLOAD PUSH2 0x803 SWAP2 SWAP1 PUSH2 0x209F JUMP JUMPDEST PUSH1 0x40 MLOAD DUP1 SWAP2 SUB SWAP1 LOG2 POP JUMP JUMPDEST PUSH2 0x828 DUP4 DUP4 DUP4 PUSH1 0x40 MLOAD DUP1 PUSH1 0x20 ADD PUSH1 0x40 MSTORE DUP1 PUSH0 DUP2 MSTORE POP PUSH2 0xAC1 JUMP JUMPDEST POP POP POP JUMP JUMPDEST PUSH1 0x9 SLOAD DUP2 JUMP JUMPDEST PUSH1 0x8 SLOAD DUP2 JUMP JUMPDEST PUSH0 PUSH2 0x843 DUP3 PUSH2 0xE86 JUMP JUMPDEST SWAP1 POP SWAP2 SWAP1 POP JUMP JUMPDEST PUSH0 PUSH2 0x853 PUSH2 0x1169 JUMP JUMPDEST PUSH1 0x8 PUSH0 DUP2 SLOAD DUP1 SWAP3 SWAP2 SWAP1 PUSH2 0x865 SWAP1 PUSH2 0x2516 JUMP JUMPDEST SWAP2 SWAP1 POP SSTORE POP PUSH0 PUSH1 0x8 SLOAD SWAP1 POP PUSH2 0x87A DUP6 DUP3 PUSH2 0x11F0 JUMP JUMPDEST PUSH2 0x8C7 DUP2 DUP6 DUP6 DUP1 DUP1 PUSH1 0x1F ADD PUSH1 0x20 DUP1 SWAP2 DIV MUL PUSH1 0x20 ADD PUSH1 0x40 MLOAD SWAP1 DUP2 ADD PUSH1 0x40 MSTORE DUP1 SWAP4 SWAP3 SWAP2 SWAP1 DUP2 DUP2 MSTORE PUSH1 0x20 ADD DUP4 DUP4 DUP1 DUP3 DUP5 CALLDATACOPY PUSH0 DUP2 DUP5 ADD MSTORE PUSH1 0x1F NOT PUSH1 0x1F DUP3 ADD AND SWAP1 POP DUP1 DUP4 ADD SWAP3 POP POP POP POP POP POP POP PUSH2 0x120D JUMP JUMPDEST DUP5 PUSH20 0xFFFFFFFFFFFFFFFFFFFFFFFFFFFFFFFFFFFFFFFF AND DUP2 PUSH32 0x882006E3FBDE4079837BA4268239C83E7C1DA123ADAC4E517402AA5331F1AA80 DUP7 DUP7 PUSH1 0x40 MLOAD PUSH2 0x910 SWAP3 SWAP2 SWAP1 PUSH2 0x2589 JUMP JUMPDEST PUSH1 0x40 MLOAD DUP1 SWAP2 SUB SWAP1 LOG3 DUP1 SWAP2 POP POP SWAP4 SWAP3 POP POP POP JUMP JUMPDEST PUSH0 PUSH0 PUSH20 0xFFFFFFFFFFFFFFFFFFFFFFFFFFFFFFFFFFFFFFFF AND DUP3 PUSH20 0xFFFFFFFFFFFFFFFFFFFFFFFFFFFFFFFFFFFFFFFF AND SUB PUSH2 0x994 JUMPI PUSH0 PUSH1 0x40 MLOAD PUSH32 0x89C62B6400000000000000000000000000000000000000000000000000000000 DUP2 MSTORE PUSH1 0x4 ADD PUSH2 0x98B SWAP2 SWAP1 PUSH2 0x1FBF JUMP JUMPDEST PUSH1 0x40 MLOAD DUP1 SWAP2 SUB SWAP1 REVERT JUMPDEST PUSH1 0x3 PUSH0 DUP4 PUSH20 0xFFFFFFFFFFFFFFFFFFFFFFFFFFFFFFFFFFFFFFFF AND PUSH20 0xFFFFFFFFFFFFFFFFFFFFFFFFFFFFFFFFFFFFFFFF AND DUP2 MSTORE PUSH1 0x20 ADD SWAP1 DUP2 MSTORE PUSH1 0x20 ADD PUSH0 KECCAK256 SLOAD SWAP1 POP SWAP2 SWAP1 POP JUMP JUMPDEST PUSH2 0x9E1 PUSH2 0x1169 JUMP JUMPDEST PUSH2 0x9EA PUSH0 PUSH2 0x1267 JUMP JUMPDEST JUMP JUMPDEST PUSH0 SELFBALANCE SWAP1 POP SWAP1 JUMP JUMPDEST PUSH0 PUSH1 0x7 PUSH0 SWAP1 SLOAD SWAP1 PUSH2 0x100 EXP SWAP1 DIV PUSH20 0xFFFFFFFFFFFFFFFFFFFFFFFFFFFFFFFFFFFFFFFF AND SWAP1 POP SWAP1 JUMP JUMPDEST PUSH1 0x60 PUSH1 0x1 DUP1 SLOAD PUSH2 0xA2A SWAP1 PUSH2 0x241C JUMP JUMPDEST DUP1 PUSH1 0x1F ADD PUSH1 0x20 DUP1 SWAP2 DIV MUL PUSH1 0x20 ADD PUSH1 0x40 MLOAD SWAP1 DUP2 ADD PUSH1 0x40 MSTORE DUP1 SWAP3 SWAP2 SWAP1 DUP2 DUP2 MSTORE PUSH1 0x20 ADD DUP3 DUP1 SLOAD PUSH2 0xA56 SWAP1 PUSH2 0x241C JUMP JUMPDEST DUP1 ISZERO PUSH2 0xAA1 JUMPI DUP1 PUSH1 0x1F LT PUSH2 0xA78 JUMPI PUSH2 0x100 DUP1 DUP4 SLOAD DIV MUL DUP4 MSTORE SWAP2 PUSH1 0x20 ADD SWAP2 PUSH2 0xAA1 JUMP JUMPDEST DUP3 ADD SWAP2 SWAP1 PUSH0 MSTORE PUSH1 0x20 PUSH0 KECCAK256 SWAP1 JUMPDEST DUP2 SLOAD DUP2 MSTORE SWAP1 PUSH1 0x1 ADD SWAP1 PUSH1 0x20 ADD DUP1 DUP4 GT PUSH2 0xA84 JUMPI DUP3 SWAP1 SUB PUSH1 0x1F AND DUP3 ADD SWAP2 JUMPDEST POP POP POP POP POP SWAP1 POP SWAP1 JUMP JUMPDEST PUSH2 0xABD PUSH2 0xAB6 PUSH2 0xF45 JUMP JUMPDEST DUP4 DUP4 PUSH2 0x132A JUMP JUMPDEST POP POP JUMP JUMPDEST PUSH2 0xACC DUP5 DUP5 DUP5 PUSH2 0x61E JUMP JUMPDEST PUSH2 0xAD8 DUP5 DUP5 DUP5 DUP5 PUSH2 0x1493 JUMP JUMPDEST POP POP POP POP JUMP JUMPDEST PUSH1 0x60 PUSH2 0xAE9 DUP3 PUSH2 0xE86 JUMP JUMPDEST POP PUSH0 PUSH1 0x6 PUSH0 DUP5 DUP2 MSTORE PUSH1 0x20 ADD SWAP1 DUP2 MSTORE PUSH1 0x20 ADD PUSH0 KECCAK256 DUP1 SLOAD PUSH2 0xB07 SWAP1 PUSH2 0x241C JUMP JUMPDEST DUP1 PUSH1 0x1F ADD PUSH1 0x20 DUP1 SWAP2 DIV MUL PUSH1 0x20 ADD PUSH1 0x40 MLOAD SWAP1 DUP2 ADD PUSH1 0x40 MSTORE DUP1 SWAP3 SWAP2 SWAP1 DUP2 DUP2 MSTORE PUSH1 0x20 ADD DUP3 DUP1 SLOAD PUSH2 0xB33 SWAP1 PUSH2 0x241C JUMP JUMPDEST DUP1 ISZERO PUSH2 0xB7E JUMPI DUP1 PUSH1 0x1F LT PUSH2 0xB55 JUMPI PUSH2 0x100 DUP1 DUP4 SLOAD DIV MUL DUP4 MSTORE SWAP2 PUSH1 0x20 ADD SWAP2 PUSH2 0xB7E JUMP JUMPDEST DUP3 ADD SWAP2 SWAP1 PUSH0 MSTORE PUSH1 0x20 PUSH0 KECCAK256 SWAP1 JUMPDEST DUP2 SLOAD DUP2 MSTORE SWAP1 PUSH1 0x1 ADD SWAP1 PUSH1 0x20 ADD DUP1 DUP4 GT PUSH2 0xB61 JUMPI DUP3 SWAP1 SUB PUSH1 0x1F AND DUP3 ADD SWAP2 JUMPDEST POP POP POP POP POP SWAP1 POP PUSH0 PUSH2 0xB8E PUSH2 0x1645 JUMP JUMPDEST SWAP1 POP PUSH0 DUP2 MLOAD SUB PUSH2 0xBA2 JUMPI DUP2 SWAP3 POP POP POP PUSH2 0xBE4 JUMP JUMPDEST PUSH0 DUP3 MLOAD GT ISZERO PUSH2 0xBD6 JUMPI DUP1 DUP3 PUSH1 0x40 MLOAD PUSH1 0x20 ADD PUSH2 0xBBE SWAP3 SWAP2 SWAP1 PUSH2 0x25E5 JUMP JUMPDEST PUSH1 0x40 MLOAD PUSH1 0x20 DUP2 DUP4 SUB SUB DUP2 MSTORE SWAP1 PUSH1 0x40 MSTORE SWAP3 POP POP POP PUSH2 0xBE4 JUMP JUMPDEST PUSH2 0xBDF DUP5 PUSH2 0x165B JUMP JUMPDEST SWAP3 POP POP POP JUMPDEST SWAP2 SWAP1 POP JUMP JUMPDEST PUSH0 CALLVALUE GT PUSH2 0xC2B JUMPI PUSH1 0x40 MLOAD PUSH32 0x8C379A000000000000000000000000000000000000000000000000000000000 DUP2 MSTORE PUSH1 0x4 ADD PUSH2 0xC22 SWAP1 PUSH2 0x2652 JUMP JUMPDEST PUSH1 0x40 MLOAD DUP1 SWAP2 SUB SWAP1 REVERT JUMPDEST CALLVALUE PUSH1 0x9 PUSH0 DUP3 DUP3 SLOAD PUSH2 0xC3C SWAP2 SWAP1 PUSH2 0x2670 JUMP JUMPDEST SWAP3 POP POP DUP2 SWAP1 SSTORE POP CALLER PUSH20 0xFFFFFFFFFFFFFFFFFFFFFFFFFFFFFFFFFFFFFFFF AND PUSH32 0xC3F75DFC78F6EFAC88AD5ABB5E606276B903647D97B2A62A1EF89840A658BBC3 CALLVALUE PUSH1 0x40 MLOAD PUSH2 0xC89 SWAP2 SWAP1 PUSH2 0x209F JUMP JUMPDEST PUSH1 0x40 MLOAD DUP1 SWAP2 SUB SWAP1 LOG2 JUMP JUMPDEST PUSH0 PUSH1 0x5 PUSH0 DUP5 PUSH20 0xFFFFFFFFFFFFFFFFFFFFFFFFFFFFFFFFFFFFFFFF AND PUSH20 0xFFFFFFFFFFFFFFFFFFFFFFFFFFFFFFFFFFFFFFFF AND DUP2 MSTORE PUSH1 0x20 ADD SWAP1 DUP2 MSTORE PUSH1 0x20 ADD PUSH0 KECCAK256 PUSH0 DUP4 PUSH20 0xFFFFFFFFFFFFFFFFFFFFFFFFFFFFFFFFFFFFFFFF AND PUSH20 0xFFFFFFFFFFFFFFFFFFFFFFFFFFFFFFFFFFFFFFFF AND DUP2 MSTORE PUSH1 0x20 ADD SWAP1 DUP2 MSTORE PUSH1 0x20 ADD PUSH0 KECCAK256 PUSH0 SWAP1 SLOAD SWAP1 PUSH2 0x100 EXP SWAP1 DIV PUSH1 0xFF AND SWAP1 POP SWAP3 SWAP2 POP POP JUMP JUMPDEST PUSH2 0xD29 PUSH2 0x1169 JUMP JUMPDEST PUSH0 PUSH20 0xFFFFFFFFFFFFFFFFFFFFFFFFFFFFFFFFFFFFFFFF AND DUP2 PUSH20 0xFFFFFFFFFFFFFFFFFFFFFFFFFFFFFFFFFFFFFFFF AND SUB PUSH2 0xD99 JUMPI PUSH0 PUSH1 0x40 MLOAD PUSH32 0x1E4FBDF700000000000000000000000000000000000000000000000000000000 DUP2 MSTORE PUSH1 0x4 ADD PUSH2 0xD90 SWAP2 SWAP1 PUSH2 0x1FBF JUMP JUMPDEST PUSH1 0x40 MLOAD DUP1 SWAP2 SUB SWAP1 REVERT JUMPDEST PUSH2 0xDA2 DUP2 PUSH2 0x1267 JUMP JUMPDEST POP JUMP JUMPDEST PUSH0 PUSH32 0x80AC58CD00000000000000000000000000000000000000000000000000000000 PUSH28 0xFFFFFFFFFFFFFFFFFFFFFFFFFFFFFFFFFFFFFFFFFFFFFFFFFFFFFFFF NOT AND DUP3 PUSH28 0xFFFFFFFFFFFFFFFFFFFFFFFFFFFFFFFFFFFFFFFFFFFFFFFFFFFFFFFF NOT AND EQ DUP1 PUSH2 0xE6F JUMPI POP PUSH32 0x5B5E139F00000000000000000000000000000000000000000000000000000000 PUSH28 0xFFFFFFFFFFFFFFFFFFFFFFFFFFFFFFFFFFFFFFFFFFFFFFFFFFFFFFFF NOT AND DUP3 PUSH28 0xFFFFFFFFFFFFFFFFFFFFFFFFFFFFFFFFFFFFFFFFFFFFFFFFFFFFFFFF NOT AND EQ JUMPDEST DUP1 PUSH2 0xE7F JUMPI POP PUSH2 0xE7E DUP3 PUSH2 0x16C1 JUMP JUMPDEST JUMPDEST SWAP1 POP SWAP2 SWAP1 POP JUMP JUMPDEST PUSH0 PUSH0 PUSH2 0xE91 DUP4 PUSH2 0x172A JUMP JUMPDEST SWAP1 POP PUSH0 PUSH20 0xFFFFFFFFFFFFFFFFFFFFFFFFFFFFFFFFFFFFFFFF AND DUP2 PUSH20 0xFFFFFFFFFFFFFFFFFFFFFFFFFFFFFFFFFFFFFFFF AND SUB PUSH2 0xF03 JUMPI DUP3 PUSH1 0x40 MLOAD PUSH32 0x7E27328900000000000000000000000000000000000000000000000000000000 DUP2 MSTORE PUSH1 0x4 ADD PUSH2 0xEFA SWAP2 SWAP1 PUSH2 0x209F JUMP JUMPDEST PUSH1 0x40 MLOAD DUP1 SWAP2 SUB SWAP1 REVERT JUMPDEST DUP1 SWAP2 POP POP SWAP2 SWAP1 POP JUMP JUMPDEST PUSH0 PUSH1 0x4 PUSH0 DUP4 DUP2 MSTORE PUSH1 0x20 ADD SWAP1 DUP2 MSTORE PUSH1 0x20 ADD PUSH0 KECCAK256 PUSH0 SWAP1 SLOAD SWAP1 PUSH2 0x100 EXP SWAP1 DIV PUSH20 0xFFFFFFFFFFFFFFFFFFFFFFFFFFFFFFFFFFFFFFFF AND SWAP1 POP SWAP2 SWAP1 POP JUMP JUMPDEST PUSH0 CALLER SWAP1 POP SWAP1 JUMP JUMPDEST PUSH2 0xF59 DUP4 DUP4 DUP4 PUSH1 0x1 PUSH2 0x1763 JUMP JUMPDEST POP POP POP JUMP JUMPDEST PUSH0 PUSH0 PUSH2 0xF69 DUP5 PUSH2 0x172A JUMP JUMPDEST SWAP1 POP PUSH0 PUSH20 0xFFFFFFFFFFFFFFFFFFFFFFFFFFFFFFFFFFFFFFFF AND DUP4 PUSH20 0xFFFFFFFFFFFFFFFFFFFFFFFFFFFFFFFFFFFFFFFF AND EQ PUSH2 0xFAA JUMPI PUSH2 0xFA9 DUP2 DUP5 DUP7 PUSH2 0x1922 JUMP JUMPDEST JUMPDEST PUSH0 PUSH20 0xFFFFFFFFFFFFFFFFFFFFFFFFFFFFFFFFFFFFFFFF AND DUP2 PUSH20 0xFFFFFFFFFFFFFFFFFFFFFFFFFFFFFFFFFFFFFFFF AND EQ PUSH2 0x1035 JUMPI PUSH2 0xFE9 PUSH0 DUP6 PUSH0 PUSH0 PUSH2 0x1763 JUMP JUMPDEST PUSH1 0x1 PUSH1 0x3 PUSH0 DUP4 PUSH20 0xFFFFFFFFFFFFFFFFFFFFFFFFFFFFFFFFFFFFFFFF AND PUSH20 0xFFFFFFFFFFFFFFFFFFFFFFFFFFFFFFFFFFFFFFFF AND DUP2 MSTORE PUSH1 0x20 ADD SWAP1 DUP2 MSTORE PUSH1 0x20 ADD PUSH0 KECCAK256 PUSH0 DUP3 DUP3 SLOAD SUB SWAP3 POP POP DUP2 SWAP1 SSTORE POP JUMPDEST PUSH0 PUSH20 0xFFFFFFFFFFFFFFFFFFFFFFFFFFFFFFFFFFFFFFFF AND DUP6 PUSH20 0xFFFFFFFFFFFFFFFFFFFFFFFFFFFFFFFFFFFFFFFF AND EQ PUSH2 0x10B4 JUMPI PUSH1 0x1 PUSH1 0x3 PUSH0 DUP8 PUSH20 0xFFFFFFFFFFFFFFFFFFFFFFFFFFFFFFFFFFFFFFFF AND PUSH20 0xFFFFFFFFFFFFFFFFFFFFFFFFFFFFFFFFFFFFFFFF AND DUP2 MSTORE PUSH1 0x20 ADD SWAP1 DUP2 MSTORE PUSH1 0x20 ADD PUSH0 KECCAK256 PUSH0 DUP3 DUP3 SLOAD ADD SWAP3 POP POP DUP2 SWAP1 SSTORE POP JUMPDEST DUP5 PUSH1 0x2 PUSH0 DUP7 DUP2 MSTORE PUSH1 0x20 ADD SWAP1 DUP2 MSTORE PUSH1 0x20 ADD PUSH0 KECCAK256 PUSH0 PUSH2 0x100 EXP DUP2 SLOAD DUP2 PUSH20 0xFFFFFFFFFFFFFFFFFFFFFFFFFFFFFFFFFFFFFFFF MUL NOT AND SWAP1 DUP4 PUSH20 0xFFFFFFFFFFFFFFFFFFFFFFFFFFFFFFFFFFFFFFFF AND MUL OR SWAP1 SSTORE POP DUP4 DUP6 PUSH20 0xFFFFFFFFFFFFFFFFFFFFFFFFFFFFFFFFFFFFFFFF AND DUP3 PUSH20 0xFFFFFFFFFFFFFFFFFFFFFFFFFFFFFFFFFFFFFFFF AND PUSH32 0xDDF252AD1BE2C89B69C2B068FC378DAA952BA7F163C4A11628F55A4DF523B3EF PUSH1 0x40 MLOAD PUSH1 0x40 MLOAD DUP1 SWAP2 SUB SWAP1 LOG4 DUP1 SWAP2 POP POP SWAP4 SWAP3 POP POP POP JUMP JUMPDEST PUSH2 0x1171 PUSH2 0xF45 JUMP JUMPDEST PUSH20 0xFFFFFFFFFFFFFFFFFFFFFFFFFFFFFFFFFFFFFFFF AND PUSH2 0x118F PUSH2 0x9F3 JUMP JUMPDEST PUSH20 0xFFFFFFFFFFFFFFFFFFFFFFFFFFFFFFFFFFFFFFFF AND EQ PUSH2 0x11EE JUMPI PUSH2 0x11B2 PUSH2 0xF45 JUMP JUMPDEST PUSH1 0x40 MLOAD PUSH32 0x118CDAA700000000000000000000000000000000000000000000000000000000 DUP2 MSTORE PUSH1 0x4 ADD PUSH2 0x11E5 SWAP2 SWAP1 PUSH2 0x1FBF JUMP JUMPDEST PUSH1 0x40 MLOAD DUP1 SWAP2 SUB SWAP1 REVERT JUMPDEST JUMP JUMPDEST PUSH2 0x1209 DUP3 DUP3 PUSH1 0x40 MLOAD DUP1 PUSH1 0x20 ADD PUSH1 0x40 MSTORE DUP1 PUSH0 DUP2 MSTORE POP PUSH2 0x19E5 JUMP JUMPDEST POP POP JUMP JUMPDEST DUP1 PUSH1 0x6 PUSH0 DUP5 DUP2 MSTORE PUSH1 0x20 ADD SWAP1 DUP2 MSTORE PUSH1 0x20 ADD PUSH0 KECCAK256 SWAP1 DUP2 PUSH2 0x122B SWAP2 SWAP1 PUSH2 0x2843 JUMP JUMPDEST POP PUSH32 0xF8E1A15ABA9398E019F0B49DF1A4FDE98EE17AE345CB5F6B5E2C27F5033E8CE7 DUP3 PUSH1 0x40 MLOAD PUSH2 0x125B SWAP2 SWAP1 PUSH2 0x209F JUMP JUMPDEST PUSH1 0x40 MLOAD DUP1 SWAP2 SUB SWAP1 LOG1 POP POP JUMP JUMPDEST PUSH0 PUSH1 0x7 PUSH0 SWAP1 SLOAD SWAP1 PUSH2 0x100 EXP SWAP1 DIV PUSH20 0xFFFFFFFFFFFFFFFFFFFFFFFFFFFFFFFFFFFFFFFF AND SWAP1 POP DUP2 PUSH1 0x7 PUSH0 PUSH2 0x100 EXP DUP2 SLOAD DUP2 PUSH20 0xFFFFFFFFFFFFFFFFFFFFFFFFFFFFFFFFFFFFFFFF MUL NOT AND SWAP1 DUP4 PUSH20 0xFFFFFFFFFFFFFFFFFFFFFFFFFFFFFFFFFFFFFFFF AND MUL OR SWAP1 SSTORE POP DUP2 PUSH20 0xFFFFFFFFFFFFFFFFFFFFFFFFFFFFFFFFFFFFFFFF AND DUP2 PUSH20 0xFFFFFFFFFFFFFFFFFFFFFFFFFFFFFFFFFFFFFFFF AND PUSH32 0x8BE0079C531659141344CD1FD0A4F28419497F9722A3DAAFE3B4186F6B6457E0 PUSH1 0x40 MLOAD PUSH1 0x40 MLOAD DUP1 SWAP2 SUB SWAP1 LOG3 POP POP JUMP JUMPDEST PUSH0 PUSH20 0xFFFFFFFFFFFFFFFFFFFFFFFFFFFFFFFFFFFFFFFF AND DUP3 PUSH20 0xFFFFFFFFFFFFFFFFFFFFFFFFFFFFFFFFFFFFFFFF AND SUB PUSH2 0x139A JUMPI DUP2 PUSH1 0x40 MLOAD PUSH32 0x5B08BA1800000000000000000000000000000000000000000000000000000000 DUP2 MSTORE PUSH1 0x4 ADD PUSH2 0x1391 SWAP2 SWAP1 PUSH2 0x1FBF JUMP JUMPDEST PUSH1 0x40 MLOAD DUP1 SWAP2 SUB SWAP1 REVERT JUMPDEST DUP1 PUSH1 0x5 PUSH0 DUP6 PUSH20 0xFFFFFFFFFFFFFFFFFFFFFFFFFFFFFFFFFFFFFFFF AND PUSH20 0xFFFFFFFFFFFFFFFFFFFFFFFFFFFFFFFFFFFFFFFF AND DUP2 MSTORE PUSH1 0x20 ADD SWAP1 DUP2 MSTORE PUSH1 0x20 ADD PUSH0 KECCAK256 PUSH0 DUP5 PUSH20 0xFFFFFFFFFFFFFFFFFFFFFFFFFFFFFFFFFFFFFFFF AND PUSH20 0xFFFFFFFFFFFFFFFFFFFFFFFFFFFFFFFFFFFFFFFF AND DUP2 MSTORE PUSH1 0x20 ADD SWAP1 DUP2 MSTORE PUSH1 0x20 ADD PUSH0 KECCAK256 PUSH0 PUSH2 0x100 EXP DUP2 SLOAD DUP2 PUSH1 0xFF MUL NOT AND SWAP1 DUP4 ISZERO ISZERO MUL OR SWAP1 SSTORE POP DUP2 PUSH20 0xFFFFFFFFFFFFFFFFFFFFFFFFFFFFFFFFFFFFFFFF AND DUP4 PUSH20 0xFFFFFFFFFFFFFFFFFFFFFFFFFFFFFFFFFFFFFFFF AND PUSH32 0x17307EAB39AB6107E8899845AD3D59BD9653F200F220920489CA2B5937696C31 DUP4 PUSH1 0x40 MLOAD PUSH2 0x1486 SWAP2 SWAP1 PUSH2 0x1E79 JUMP JUMPDEST PUSH1 0x40 MLOAD DUP1 SWAP2 SUB SWAP1 LOG3 POP POP POP JUMP JUMPDEST PUSH0 DUP4 PUSH20 0xFFFFFFFFFFFFFFFFFFFFFFFFFFFFFFFFFFFFFFFF AND EXTCODESIZE GT ISZERO PUSH2 0x163F JUMPI DUP3 PUSH20 0xFFFFFFFFFFFFFFFFFFFFFFFFFFFFFFFFFFFFFFFF AND PUSH4 0x150B7A02 PUSH2 0x14D6 PUSH2 0xF45 JUMP JUMPDEST DUP7 DUP6 DUP6 PUSH1 0x40 MLOAD DUP6 PUSH4 0xFFFFFFFF AND PUSH1 0xE0 SHL DUP2 MSTORE PUSH1 0x4 ADD PUSH2 0x14F8 SWAP5 SWAP4 SWAP3 SWAP2 SWAP1 PUSH2 0x2964 JUMP JUMPDEST PUSH1 0x20 PUSH1 0x40 MLOAD DUP1 DUP4 SUB DUP2 PUSH0 DUP8 GAS CALL SWAP3 POP POP POP DUP1 ISZERO PUSH2 0x1533 JUMPI POP PUSH1 0x40 MLOAD RETURNDATASIZE PUSH1 0x1F NOT PUSH1 0x1F DUP3 ADD AND DUP3 ADD DUP1 PUSH1 0x40 MSTORE POP DUP2 ADD SWAP1 PUSH2 0x1530 SWAP2 SWAP1 PUSH2 0x29C2 JUMP JUMPDEST PUSH1 0x1 JUMPDEST PUSH2 0x15B4 JUMPI RETURNDATASIZE DUP1 PUSH0 DUP2 EQ PUSH2 0x1561 JUMPI PUSH1 0x40 MLOAD SWAP2 POP PUSH1 0x1F NOT PUSH1 0x3F RETURNDATASIZE ADD AND DUP3 ADD PUSH1 0x40 MSTORE RETURNDATASIZE DUP3 MSTORE RETURNDATASIZE PUSH0 PUSH1 0x20 DUP5 ADD RETURNDATACOPY PUSH2 0x1566 JUMP JUMPDEST PUSH1 0x60 SWAP2 POP JUMPDEST POP PUSH0 DUP2 MLOAD SUB PUSH2 0x15AC JUMPI DUP4 PUSH1 0x40 MLOAD PUSH32 0x64A0AE9200000000000000000000000000000000000000000000000000000000 DUP2 MSTORE PUSH1 0x4 ADD PUSH2 0x15A3 SWAP2 SWAP1 PUSH2 0x1FBF JUMP JUMPDEST PUSH1 0x40 MLOAD DUP1 SWAP2 SUB SWAP1 REVERT JUMPDEST DUP1 MLOAD DUP2 PUSH1 0x20 ADD REVERT JUMPDEST PUSH4 0x150B7A02 PUSH1 0xE0 SHL PUSH28 0xFFFFFFFFFFFFFFFFFFFFFFFFFFFFFFFFFFFFFFFFFFFFFFFFFFFFFFFF NOT AND DUP2 PUSH28 0xFFFFFFFFFFFFFFFFFFFFFFFFFFFFFFFFFFFFFFFFFFFFFFFFFFFFFFFF NOT AND EQ PUSH2 0x163D JUMPI DUP4 PUSH1 0x40 MLOAD PUSH32 0x64A0AE9200000000000000000000000000000000000000000000000000000000 DUP2 MSTORE PUSH1 0x4 ADD PUSH2 0x1634 SWAP2 SWAP1 PUSH2 0x1FBF JUMP JUMPDEST PUSH1 0x40 MLOAD DUP1 SWAP2 SUB SWAP1 REVERT JUMPDEST POP JUMPDEST POP POP POP POP JUMP JUMPDEST PUSH1 0x60 PUSH1 0x40 MLOAD DUP1 PUSH1 0x20 ADD PUSH1 0x40 MSTORE DUP1 PUSH0 DUP2 MSTORE POP SWAP1 POP SWAP1 JUMP JUMPDEST PUSH1 0x60 PUSH2 0x1666 DUP3 PUSH2 0xE86 JUMP JUMPDEST POP PUSH0 PUSH2 0x1670 PUSH2 0x1645 JUMP JUMPDEST SWAP1 POP PUSH0 DUP2 MLOAD GT PUSH2 0x168E JUMPI PUSH1 0x40 MLOAD DUP1 PUSH1 0x20 ADD PUSH1 0x40 MSTORE DUP1 PUSH0 DUP2 MSTORE POP PUSH2 0x16B9 JUMP JUMPDEST DUP1 PUSH2 0x1698 DUP5 PUSH2 0x1A00 JUMP JUMPDEST PUSH1 0x40 MLOAD PUSH1 0x20 ADD PUSH2 0x16A9 SWAP3 SWAP2 SWAP1 PUSH2 0x25E5 JUMP JUMPDEST PUSH1 0x40 MLOAD PUSH1 0x20 DUP2 DUP4 SUB SUB DUP2 MSTORE SWAP1 PUSH1 0x40 MSTORE JUMPDEST SWAP2 POP POP SWAP2 SWAP1 POP JUMP JUMPDEST PUSH0 PUSH32 0x1FFC9A700000000000000000000000000000000000000000000000000000000 PUSH28 0xFFFFFFFFFFFFFFFFFFFFFFFFFFFFFFFFFFFFFFFFFFFFFFFFFFFFFFFF NOT AND DUP3 PUSH28 0xFFFFFFFFFFFFFFFFFFFFFFFFFFFFFFFFFFFFFFFFFFFFFFFFFFFFFFFF NOT AND EQ SWAP1 POP SWAP2 SWAP1 POP JUMP JUMPDEST PUSH0 PUSH1 0x2 PUSH0 DUP4 DUP2 MSTORE PUSH1 0x20 ADD SWAP1 DUP2 MSTORE PUSH1 0x20 ADD PUSH0 KECCAK256 PUSH0 SWAP1 SLOAD SWAP1 PUSH2 0x100 EXP SWAP1 DIV PUSH20 0xFFFFFFFFFFFFFFFFFFFFFFFFFFFFFFFFFFFFFFFF AND SWAP1 POP SWAP2 SWAP1 POP JUMP JUMPDEST DUP1 DUP1 PUSH2 0x179B JUMPI POP PUSH0 PUSH20 0xFFFFFFFFFFFFFFFFFFFFFFFFFFFFFFFFFFFFFFFF AND DUP3 PUSH20 0xFFFFFFFFFFFFFFFFFFFFFFFFFFFFFFFFFFFFFFFF AND EQ ISZERO JUMPDEST ISZERO PUSH2 0x18CD JUMPI PUSH0 PUSH2 0x17AA DUP5 PUSH2 0xE86 JUMP JUMPDEST SWAP1 POP PUSH0 PUSH20 0xFFFFFFFFFFFFFFFFFFFFFFFFFFFFFFFFFFFFFFFF AND DUP4 PUSH20 0xFFFFFFFFFFFFFFFFFFFFFFFFFFFFFFFFFFFFFFFF AND EQ ISZERO DUP1 ISZERO PUSH2 0x1814 JUMPI POP DUP3 PUSH20 0xFFFFFFFFFFFFFFFFFFFFFFFFFFFFFFFFFFFFFFFF AND DUP2 PUSH20 0xFFFFFFFFFFFFFFFFFFFFFFFFFFFFFFFFFFFFFFFF AND EQ ISZERO JUMPDEST DUP1 ISZERO PUSH2 0x1827 JUMPI POP PUSH2 0x1825 DUP2 DUP5 PUSH2 0xC93 JUMP JUMPDEST ISZERO JUMPDEST ISZERO PUSH2 0x1869 JUMPI DUP3 PUSH1 0x40 MLOAD PUSH32 0xA9FBF51F00000000000000000000000000000000000000000000000000000000 DUP2 MSTORE PUSH1 0x4 ADD PUSH2 0x1860 SWAP2 SWAP1 PUSH2 0x1FBF JUMP JUMPDEST PUSH1 0x40 MLOAD DUP1 SWAP2 SUB SWAP1 REVERT JUMPDEST DUP2 ISZERO PUSH2 0x18CB JUMPI DUP4 DUP6 PUSH20 0xFFFFFFFFFFFFFFFFFFFFFFFFFFFFFFFFFFFFFFFF AND DUP3 PUSH20 0xFFFFFFFFFFFFFFFFFFFFFFFFFFFFFFFFFFFFFFFF AND PUSH32 0x8C5BE1E5EBEC7D5BD14F71427D1E84F3DD0314C0F7B2291E5B200AC8C7C3B925 PUSH1 0x40 MLOAD PUSH1 0x40 MLOAD DUP1 SWAP2 SUB SWAP1 LOG4 JUMPDEST POP JUMPDEST DUP4 PUSH1 0x4 PUSH0 DUP6 DUP2 MSTORE PUSH1 0x20 ADD SWAP1 DUP2 MSTORE PUSH1 0x20 ADD PUSH0 KECCAK256 PUSH0 PUSH2 0x100 EXP DUP2 SLOAD DUP2 PUSH20 0xFFFFFFFFFFFFFFFFFFFFFFFFFFFFFFFFFFFFFFFF MUL NOT AND SWAP1 DUP4 PUSH20 0xFFFFFFFFFFFFFFFFFFFFFFFFFFFFFFFFFFFFFFFF AND MUL OR SWAP1 SSTORE POP POP POP POP POP JUMP JUMPDEST PUSH2 0x192D DUP4 DUP4 DUP4 PUSH2 0x1ACA JUMP JUMPDEST PUSH2 0x19E0 JUMPI PUSH0 PUSH20 0xFFFFFFFFFFFFFFFFFFFFFFFFFFFFFFFFFFFFFFFF AND DUP4 PUSH20 0xFFFFFFFFFFFFFFFFFFFFFFFFFFFFFFFFFFFFFFFF AND SUB PUSH2 0x19A1 JUMPI DUP1 PUSH1 0x40 MLOAD PUSH32 0x7E27328900000000000000000000000000000000000000000000000000000000 DUP2 MSTORE PUSH1 0x4 ADD PUSH2 0x1998 SWAP2 SWAP1 PUSH2 0x209F JUMP JUMPDEST PUSH1 0x40 MLOAD DUP1 SWAP2 SUB SWAP1 REVERT JUMPDEST DUP2 DUP2 PUSH1 0x40 MLOAD PUSH32 0x177E802F00000000000000000000000000000000000000000000000000000000 DUP2 MSTORE PUSH1 0x4 ADD PUSH2 0x19D7 SWAP3 SWAP2 SWAP1 PUSH2 0x29ED JUMP JUMPDEST PUSH1 0x40 MLOAD DUP1 SWAP2 SUB SWAP1 REVERT JUMPDEST POP POP POP JUMP JUMPDEST PUSH2 0x19EF DUP4 DUP4 PUSH2 0x1B8A JUMP JUMPDEST PUSH2 0x19FB PUSH0 DUP5 DUP5 DUP5 PUSH2 0x1493 JUMP JUMPDEST POP POP POP JUMP JUMPDEST PUSH1 0x60 PUSH0 PUSH1 0x1 PUSH2 0x1A0E DUP5 PUSH2 0x1C7D JUMP JUMPDEST ADD SWAP1 POP PUSH0 DUP2 PUSH8 0xFFFFFFFFFFFFFFFF DUP2 GT ISZERO PUSH2 0x1A2C JUMPI PUSH2 0x1A2B PUSH2 0x220D JUMP JUMPDEST JUMPDEST PUSH1 0x40 MLOAD SWAP1 DUP1 DUP3 MSTORE DUP1 PUSH1 0x1F ADD PUSH1 0x1F NOT AND PUSH1 0x20 ADD DUP3 ADD PUSH1 0x40 MSTORE DUP1 ISZERO PUSH2 0x1A5E JUMPI DUP2 PUSH1 0x20 ADD PUSH1 0x1 DUP3 MUL DUP1 CALLDATASIZE DUP4 CALLDATACOPY DUP1 DUP3 ADD SWAP2 POP POP SWAP1 POP JUMPDEST POP SWAP1 POP PUSH0 DUP3 PUSH1 0x20 ADD DUP3 ADD SWAP1 POP JUMPDEST PUSH1 0x1 ISZERO PUSH2 0x1ABF JUMPI DUP1 DUP1 PUSH1 0x1 SWAP1 SUB SWAP2 POP POP PUSH32 0x3031323334353637383961626364656600000000000000000000000000000000 PUSH1 0xA DUP7 MOD BYTE DUP2 MSTORE8 PUSH1 0xA DUP6 DUP2 PUSH2 0x1AB4 JUMPI PUSH2 0x1AB3 PUSH2 0x2A14 JUMP JUMPDEST JUMPDEST DIV SWAP5 POP PUSH0 DUP6 SUB PUSH2 0x1A6B JUMPI JUMPDEST DUP2 SWAP4 POP POP POP POP SWAP2 SWAP1 POP JUMP JUMPDEST PUSH0 PUSH0 PUSH20 0xFFFFFFFFFFFFFFFFFFFFFFFFFFFFFFFFFFFFFFFF AND DUP4 PUSH20 0xFFFFFFFFFFFFFFFFFFFFFFFFFFFFFFFFFFFFFFFF AND EQ ISZERO DUP1 ISZERO PUSH2 0x1B81 JUMPI POP DUP3 PUSH20 0xFFFFFFFFFFFFFFFFFFFFFFFFFFFFFFFFFFFFFFFF AND DUP5 PUSH20 0xFFFFFFFFFFFFFFFFFFFFFFFFFFFFFFFFFFFFFFFF AND EQ DUP1 PUSH2 0x1B42 JUMPI POP PUSH2 0x1B41 DUP5 DUP5 PUSH2 0xC93 JUMP JUMPDEST JUMPDEST DUP1 PUSH2 0x1B80 JUMPI POP DUP3 PUSH20 0xFFFFFFFFFFFFFFFFFFFFFFFFFFFFFFFFFFFFFFFF AND PUSH2 0x1B68 DUP4 PUSH2 0xF0C JUMP JUMPDEST PUSH20 0xFFFFFFFFFFFFFFFFFFFFFFFFFFFFFFFFFFFFFFFF AND EQ JUMPDEST JUMPDEST SWAP1 POP SWAP4 SWAP3 POP POP POP JUMP JUMPDEST PUSH0 PUSH20 0xFFFFFFFFFFFFFFFFFFFFFFFFFFFFFFFFFFFFFFFF AND DUP3 PUSH20 0xFFFFFFFFFFFFFFFFFFFFFFFFFFFFFFFFFFFFFFFF AND SUB PUSH2 0x1BFA JUMPI PUSH0 PUSH1 0x40 MLOAD PUSH32 0x64A0AE9200000000000000000000000000000000000000000000000000000000 DUP2 MSTORE PUSH1 0x4 ADD PUSH2 0x1BF1 SWAP2 SWAP1 PUSH2 0x1FBF JUMP JUMPDEST PUSH1 0x40 MLOAD DUP1 SWAP2 SUB SWAP1 REVERT JUMPDEST PUSH0 PUSH2 0x1C06 DUP4 DUP4 PUSH0 PUSH2 0xF5E JUMP JUMPDEST SWAP1 POP PUSH0 PUSH20 0xFFFFFFFFFFFFFFFFFFFFFFFFFFFFFFFFFFFFFFFF AND DUP2 PUSH20 0xFFFFFFFFFFFFFFFFFFFFFFFFFFFFFFFFFFFFFFFF AND EQ PUSH2 0x1C78 JUMPI PUSH0 PUSH1 0x40 MLOAD PUSH32 0x73C6AC6E00000000000000000000000000000000000000000000000000000000 DUP2 MSTORE PUSH1 0x4 ADD PUSH2 0x1C6F SWAP2 SWAP1 PUSH2 0x1FBF JUMP JUMPDEST PUSH1 0x40 MLOAD DUP1 SWAP2 SUB SWAP1 REVERT JUMPDEST POP POP POP JUMP JUMPDEST PUSH0 PUSH0 PUSH0 SWAP1 POP PUSH27 0x184F03E93FF9F4DAA797ED6E38ED64BF6A1F010000000000000000 DUP4 LT PUSH2 0x1CD9 JUMPI PUSH27 0x184F03E93FF9F4DAA797ED6E38ED64BF6A1F010000000000000000 DUP4 DUP2 PUSH2 0x1CCF JUMPI PUSH2 0x1CCE PUSH2 0x2A14 JUMP JUMPDEST JUMPDEST DIV SWAP3 POP PUSH1 0x40 DUP2 ADD SWAP1 POP JUMPDEST PUSH14 0x4EE2D6D415B85ACEF8100000000 DUP4 LT PUSH2 0x1D16 JUMPI PUSH14 0x4EE2D6D415B85ACEF8100000000 DUP4 DUP2 PUSH2 0x1D0C JUMPI PUSH2 0x1D0B PUSH2 0x2A14 JUMP JUMPDEST JUMPDEST DIV SWAP3 POP PUSH1 0x20 DUP2 ADD SWAP1 POP JUMPDEST PUSH7 0x2386F26FC10000 DUP4 LT PUSH2 0x1D45 JUMPI PUSH7 0x2386F26FC10000 DUP4 DUP2 PUSH2 0x1D3B JUMPI PUSH2 0x1D3A PUSH2 0x2A14 JUMP JUMPDEST JUMPDEST DIV SWAP3 POP PUSH1 0x10 DUP2 ADD SWAP1 POP JUMPDEST PUSH4 0x5F5E100 DUP4 LT PUSH2 0x1D6E JUMPI PUSH4 0x5F5E100 DUP4 DUP2 PUSH2 0x1D64 JUMPI PUSH2 0x1D63 PUSH2 0x2A14 JUMP JUMPDEST JUMPDEST DIV SWAP3 POP PUSH1 0x8 DUP2 ADD SWAP1 POP JUMPDEST PUSH2 0x2710 DUP4 LT PUSH2 0x1D93 JUMPI PUSH2 0x2710 DUP4 DUP2 PUSH2 0x1D89 JUMPI PUSH2 0x1D88 PUSH2 0x2A14 JUMP JUMPDEST JUMPDEST DIV SWAP3 POP PUSH1 0x4 DUP2 ADD SWAP1 POP JUMPDEST PUSH1 0x64 DUP4 LT PUSH2 0x1DB6 JUMPI PUSH1 0x64 DUP4 DUP2 PUSH2 0x1DAC JUMPI PUSH2 0x1DAB PUSH2 0x2A14 JUMP JUMPDEST JUMPDEST DIV SWAP3 POP PUSH1 0x2 DUP2 ADD SWAP1 POP JUMPDEST PUSH1 0xA DUP4 LT PUSH2 0x1DC5 JUMPI PUSH1 0x1 DUP2 ADD SWAP1 POP JUMPDEST DUP1 SWAP2 POP POP SWAP2 SWAP1 POP JUMP JUMPDEST PUSH0 PUSH1 0x40 MLOAD SWAP1 POP SWAP1 JUMP JUMPDEST PUSH0 PUSH0 REVERT JUMPDEST PUSH0 PUSH0 REVERT JUMPDEST PUSH0 PUSH32 0xFFFFFFFF00000000000000000000000000000000000000000000000000000000 DUP3 AND SWAP1 POP SWAP2 SWAP1 POP JUMP JUMPDEST PUSH2 0x1E13 DUP2 PUSH2 0x1DDF JUMP JUMPDEST DUP2 EQ PUSH2 0x1E1D JUMPI PUSH0 PUSH0 REVERT JUMPDEST POP JUMP JUMPDEST PUSH0 DUP2 CALLDATALOAD SWAP1 POP PUSH2 0x1E2E DUP2 PUSH2 0x1E0A JUMP JUMPDEST SWAP3 SWAP2 POP POP JUMP JUMPDEST PUSH0 PUSH1 0x20 DUP3 DUP5 SUB SLT ISZERO PUSH2 0x1E49 JUMPI PUSH2 0x1E48 PUSH2 0x1DD7 JUMP JUMPDEST JUMPDEST PUSH0 PUSH2 0x1E56 DUP5 DUP3 DUP6 ADD PUSH2 0x1E20 JUMP JUMPDEST SWAP2 POP POP SWAP3 SWAP2 POP POP JUMP JUMPDEST PUSH0 DUP2 ISZERO ISZERO SWAP1 POP SWAP2 SWAP1 POP JUMP JUMPDEST PUSH2 0x1E73 DUP2 PUSH2 0x1E5F JUMP JUMPDEST DUP3 MSTORE POP POP JUMP JUMPDEST PUSH0 PUSH1 0x20 DUP3 ADD SWAP1 POP PUSH2 0x1E8C PUSH0 DUP4 ADD DUP5 PUSH2 0x1E6A JUMP JUMPDEST SWAP3 SWAP2 POP POP JUMP JUMPDEST PUSH0 DUP2 MLOAD SWAP1 POP SWAP2 SWAP1 POP JUMP JUMPDEST PUSH0 DUP3 DUP3 MSTORE PUSH1 0x20 DUP3 ADD SWAP1 POP SWAP3 SWAP2 POP POP JUMP JUMPDEST DUP3 DUP2 DUP4 MCOPY PUSH0 DUP4 DUP4 ADD MSTORE POP POP POP JUMP JUMPDEST PUSH0 PUSH1 0x1F NOT PUSH1 0x1F DUP4 ADD AND SWAP1 POP SWAP2 SWAP1 POP JUMP JUMPDEST PUSH0 PUSH2 0x1ED4 DUP3 PUSH2 0x1E92 JUMP JUMPDEST PUSH2 0x1EDE DUP2 DUP6 PUSH2 0x1E9C JUMP JUMPDEST SWAP4 POP PUSH2 0x1EEE DUP2 DUP6 PUSH1 0x20 DUP7 ADD PUSH2 0x1EAC JUMP JUMPDEST PUSH2 0x1EF7 DUP2 PUSH2 0x1EBA JUMP JUMPDEST DUP5 ADD SWAP2 POP POP SWAP3 SWAP2 POP POP JUMP JUMPDEST PUSH0 PUSH1 0x20 DUP3 ADD SWAP1 POP DUP2 DUP2 SUB PUSH0 DUP4 ADD MSTORE PUSH2 0x1F1A DUP2 DUP5 PUSH2 0x1ECA JUMP JUMPDEST SWAP1 POP SWAP3 SWAP2 POP POP JUMP JUMPDEST PUSH0 DUP2 SWAP1 POP SWAP2 SWAP1 POP JUMP JUMPDEST PUSH2 0x1F34 DUP2 PUSH2 0x1F22 JUMP JUMPDEST DUP2 EQ PUSH2 0x1F3E JUMPI PUSH0 PUSH0 REVERT JUMPDEST POP JUMP JUMPDEST PUSH0 DUP2 CALLDATALOAD SWAP1 POP PUSH2 0x1F4F DUP2 PUSH2 0x1F2B JUMP JUMPDEST SWAP3 SWAP2 POP POP JUMP JUMPDEST PUSH0 PUSH1 0x20 DUP3 DUP5 SUB SLT ISZERO PUSH2 0x1F6A JUMPI PUSH2 0x1F69 PUSH2 0x1DD7 JUMP JUMPDEST JUMPDEST PUSH0 PUSH2 0x1F77 DUP5 DUP3 DUP6 ADD PUSH2 0x1F41 JUMP JUMPDEST SWAP2 POP POP SWAP3 SWAP2 POP POP JUMP JUMPDEST PUSH0 PUSH20 0xFFFFFFFFFFFFFFFFFFFFFFFFFFFFFFFFFFFFFFFF DUP3 AND SWAP1 POP SWAP2 SWAP1 POP JUMP JUMPDEST PUSH0 PUSH2 0x1FA9 DUP3 PUSH2 0x1F80 JUMP JUMPDEST SWAP1 POP SWAP2 SWAP1 POP JUMP JUMPDEST PUSH2 0x1FB9 DUP2 PUSH2 0x1F9F JUMP JUMPDEST DUP3 MSTORE POP POP JUMP JUMPDEST PUSH0 PUSH1 0x20 DUP3 ADD SWAP1 POP PUSH2 0x1FD2 PUSH0 DUP4 ADD DUP5 PUSH2 0x1FB0 JUMP JUMPDEST SWAP3 SWAP2 POP POP JUMP JUMPDEST PUSH2 0x1FE1 DUP2 PUSH2 0x1F9F JUMP JUMPDEST DUP2 EQ PUSH2 0x1FEB JUMPI PUSH0 PUSH0 REVERT JUMPDEST POP JUMP JUMPDEST PUSH0 DUP2 CALLDATALOAD SWAP1 POP PUSH2 0x1FFC DUP2 PUSH2 0x1FD8 JUMP JUMPDEST SWAP3 SWAP2 POP POP JUMP JUMPDEST PUSH0 PUSH0 PUSH1 0x40 DUP4 DUP6 SUB SLT ISZERO PUSH2 0x2018 JUMPI PUSH2 0x2017 PUSH2 0x1DD7 JUMP JUMPDEST JUMPDEST PUSH0 PUSH2 0x2025 DUP6 DUP3 DUP7 ADD PUSH2 0x1FEE JUMP JUMPDEST SWAP3 POP POP PUSH1 0x20 PUSH2 0x2036 DUP6 DUP3 DUP7 ADD PUSH2 0x1F41 JUMP JUMPDEST SWAP2 POP POP SWAP3 POP SWAP3 SWAP1 POP JUMP JUMPDEST PUSH0 PUSH0 PUSH0 PUSH1 0x60 DUP5 DUP7 SUB SLT ISZERO PUSH2 0x2057 JUMPI PUSH2 0x2056 PUSH2 0x1DD7 JUMP JUMPDEST JUMPDEST PUSH0 PUSH2 0x2064 DUP7 DUP3 DUP8 ADD PUSH2 0x1FEE JUMP JUMPDEST SWAP4 POP POP PUSH1 0x20 PUSH2 0x2075 DUP7 DUP3 DUP8 ADD PUSH2 0x1FEE JUMP JUMPDEST SWAP3 POP POP PUSH1 0x40 PUSH2 0x2086 DUP7 DUP3 DUP8 ADD PUSH2 0x1F41 JUMP JUMPDEST SWAP2 POP POP SWAP3 POP SWAP3 POP SWAP3 JUMP JUMPDEST PUSH2 0x2099 DUP2 PUSH2 0x1F22 JUMP JUMPDEST DUP3 MSTORE POP POP JUMP JUMPDEST PUSH0 PUSH1 0x20 DUP3 ADD SWAP1 POP PUSH2 0x20B2 PUSH0 DUP4 ADD DUP5 PUSH2 0x2090 JUMP JUMPDEST SWAP3 SWAP2 POP POP JUMP JUMPDEST PUSH0 PUSH0 REVERT JUMPDEST PUSH0 PUSH0 REVERT JUMPDEST PUSH0 PUSH0 REVERT JUMPDEST PUSH0 PUSH0 DUP4 PUSH1 0x1F DUP5 ADD SLT PUSH2 0x20D9 JUMPI PUSH2 0x20D8 PUSH2 0x20B8 JUMP JUMPDEST JUMPDEST DUP3 CALLDATALOAD SWAP1 POP PUSH8 0xFFFFFFFFFFFFFFFF DUP2 GT ISZERO PUSH2 0x20F6 JUMPI PUSH2 0x20F5 PUSH2 0x20BC JUMP JUMPDEST JUMPDEST PUSH1 0x20 DUP4 ADD SWAP2 POP DUP4 PUSH1 0x1 DUP3 MUL DUP4 ADD GT ISZERO PUSH2 0x2112 JUMPI PUSH2 0x2111 PUSH2 0x20C0 JUMP JUMPDEST JUMPDEST SWAP3 POP SWAP3 SWAP1 POP JUMP JUMPDEST PUSH0 PUSH0 PUSH0 PUSH1 0x40 DUP5 DUP7 SUB SLT ISZERO PUSH2 0x2130 JUMPI PUSH2 0x212F PUSH2 0x1DD7 JUMP JUMPDEST JUMPDEST PUSH0 PUSH2 0x213D DUP7 DUP3 DUP8 ADD PUSH2 0x1FEE JUMP JUMPDEST SWAP4 POP POP PUSH1 0x20 DUP5 ADD CALLDATALOAD PUSH8 0xFFFFFFFFFFFFFFFF DUP2 GT ISZERO PUSH2 0x215E JUMPI PUSH2 0x215D PUSH2 0x1DDB JUMP JUMPDEST JUMPDEST PUSH2 0x216A DUP7 DUP3 DUP8 ADD PUSH2 0x20C4 JUMP JUMPDEST SWAP3 POP SWAP3 POP POP SWAP3 POP SWAP3 POP SWAP3 JUMP JUMPDEST PUSH0 PUSH1 0x20 DUP3 DUP5 SUB SLT ISZERO PUSH2 0x218B JUMPI PUSH2 0x218A PUSH2 0x1DD7 JUMP JUMPDEST JUMPDEST PUSH0 PUSH2 0x2198 DUP5 DUP3 DUP6 ADD PUSH2 0x1FEE JUMP JUMPDEST SWAP2 POP POP SWAP3 SWAP2 POP POP JUMP JUMPDEST PUSH2 0x21AA DUP2 PUSH2 0x1E5F JUMP JUMPDEST DUP2 EQ PUSH2 0x21B4 JUMPI PUSH0 PUSH0 REVERT JUMPDEST POP JUMP JUMPDEST PUSH0 DUP2 CALLDATALOAD SWAP1 POP PUSH2 0x21C5 DUP2 PUSH2 0x21A1 JUMP JUMPDEST SWAP3 SWAP2 POP POP JUMP JUMPDEST PUSH0 PUSH0 PUSH1 0x40 DUP4 DUP6 SUB SLT ISZERO PUSH2 0x21E1 JUMPI PUSH2 0x21E0 PUSH2 0x1DD7 JUMP JUMPDEST JUMPDEST PUSH0 PUSH2 0x21EE DUP6 DUP3 DUP7 ADD PUSH2 0x1FEE JUMP JUMPDEST SWAP3 POP POP PUSH1 0x20 PUSH2 0x21FF DUP6 DUP3 DUP7 ADD PUSH2 0x21B7 JUMP JUMPDEST SWAP2 POP POP SWAP3 POP SWAP3 SWAP1 POP JUMP JUMPDEST PUSH0 PUSH0 REVERT JUMPDEST PUSH32 0x4E487B7100000000000000000000000000000000000000000000000000000000 PUSH0 MSTORE PUSH1 0x41 PUSH1 0x4 MSTORE PUSH1 0x24 PUSH0 REVERT JUMPDEST PUSH2 0x2243 DUP3 PUSH2 0x1EBA JUMP JUMPDEST DUP2 ADD DUP2 DUP2 LT PUSH8 0xFFFFFFFFFFFFFFFF DUP3 GT OR ISZERO PUSH2 0x2262 JUMPI PUSH2 0x2261 PUSH2 0x220D JUMP JUMPDEST JUMPDEST DUP1 PUSH1 0x40 MSTORE POP POP POP JUMP JUMPDEST PUSH0 PUSH2 0x2274 PUSH2 0x1DCE JUMP JUMPDEST SWAP1 POP PUSH2 0x2280 DUP3 DUP3 PUSH2 0x223A JUMP JUMPDEST SWAP2 SWAP1 POP JUMP JUMPDEST PUSH0 PUSH8 0xFFFFFFFFFFFFFFFF DUP3 GT ISZERO PUSH2 0x229F JUMPI PUSH2 0x229E PUSH2 0x220D JUMP JUMPDEST JUMPDEST PUSH2 0x22A8 DUP3 PUSH2 0x1EBA JUMP JUMPDEST SWAP1 POP PUSH1 0x20 DUP2 ADD SWAP1 POP SWAP2 SWAP1 POP JUMP JUMPDEST DUP3 DUP2 DUP4 CALLDATACOPY PUSH0 DUP4 DUP4 ADD MSTORE POP POP POP JUMP JUMPDEST PUSH0 PUSH2 0x22D5 PUSH2 0x22D0 DUP5 PUSH2 0x2285 JUMP JUMPDEST PUSH2 0x226B JUMP JUMPDEST SWAP1 POP DUP3 DUP2 MSTORE PUSH1 0x20 DUP2 ADD DUP5 DUP5 DUP5 ADD GT ISZERO PUSH2 0x22F1 JUMPI PUSH2 0x22F0 PUSH2 0x2209 JUMP JUMPDEST JUMPDEST PUSH2 0x22FC DUP5 DUP3 DUP6 PUSH2 0x22B5 JUMP JUMPDEST POP SWAP4 SWAP3 POP POP POP JUMP JUMPDEST PUSH0 DUP3 PUSH1 0x1F DUP4 ADD SLT PUSH2 0x2318 JUMPI PUSH2 0x2317 PUSH2 0x20B8 JUMP JUMPDEST JUMPDEST DUP2 CALLDATALOAD PUSH2 0x2328 DUP5 DUP3 PUSH1 0x20 DUP7 ADD PUSH2 0x22C3 JUMP JUMPDEST SWAP2 POP POP SWAP3 SWAP2 POP POP JUMP JUMPDEST PUSH0 PUSH0 PUSH0 PUSH0 PUSH1 0x80 DUP6 DUP8 SUB SLT ISZERO PUSH2 0x2349 JUMPI PUSH2 0x2348 PUSH2 0x1DD7 JUMP JUMPDEST JUMPDEST PUSH0 PUSH2 0x2356 DUP8 DUP3 DUP9 ADD PUSH2 0x1FEE JUMP JUMPDEST SWAP5 POP POP PUSH1 0x20 PUSH2 0x2367 DUP8 DUP3 DUP9 ADD PUSH2 0x1FEE JUMP JUMPDEST SWAP4 POP POP PUSH1 0x40 PUSH2 0x2378 DUP8 DUP3 DUP9 ADD PUSH2 0x1F41 JUMP JUMPDEST SWAP3 POP POP PUSH1 0x60 DUP6 ADD CALLDATALOAD PUSH8 0xFFFFFFFFFFFFFFFF DUP2 GT ISZERO PUSH2 0x2399 JUMPI PUSH2 0x2398 PUSH2 0x1DDB JUMP JUMPDEST JUMPDEST PUSH2 0x23A5 DUP8 DUP3 DUP9 ADD PUSH2 0x2304 JUMP JUMPDEST SWAP2 POP POP SWAP3 SWAP6 SWAP2 SWAP5 POP SWAP3 POP JUMP JUMPDEST PUSH0 PUSH0 PUSH1 0x40 DUP4 DUP6 SUB SLT ISZERO PUSH2 0x23C7 JUMPI PUSH2 0x23C6 PUSH2 0x1DD7 JUMP JUMPDEST JUMPDEST PUSH0 PUSH2 0x23D4 DUP6 DUP3 DUP7 ADD PUSH2 0x1FEE JUMP JUMPDEST SWAP3 POP POP PUSH1 0x20 PUSH2 0x23E5 DUP6 DUP3 DUP7 ADD PUSH2 0x1FEE JUMP JUMPDEST SWAP2 POP POP SWAP3 POP SWAP3 SWAP1 POP JUMP JUMPDEST PUSH32 0x4E487B7100000000000000000000000000000000000000000000000000000000 PUSH0 MSTORE PUSH1 0x22 PUSH1 0x4 MSTORE PUSH1 0x24 PUSH0 REVERT JUMPDEST PUSH0 PUSH1 0x2 DUP3 DIV SWAP1 POP PUSH1 0x1 DUP3 AND DUP1 PUSH2 0x2433 JUMPI PUSH1 0x7F DUP3 AND SWAP2 POP JUMPDEST PUSH1 0x20 DUP3 LT DUP2 SUB PUSH2 0x2446 JUMPI PUSH2 0x2445 PUSH2 0x23EF JUMP JUMPDEST JUMPDEST POP SWAP2 SWAP1 POP JUMP JUMPDEST PUSH0 PUSH1 0x60 DUP3 ADD SWAP1 POP PUSH2 0x245F PUSH0 DUP4 ADD DUP7 PUSH2 0x1FB0 JUMP JUMPDEST PUSH2 0x246C PUSH1 0x20 DUP4 ADD DUP6 PUSH2 0x2090 JUMP JUMPDEST PUSH2 0x2479 PUSH1 0x40 DUP4 ADD DUP5 PUSH2 0x1FB0 JUMP JUMPDEST SWAP5 SWAP4 POP POP POP POP JUMP JUMPDEST PUSH32 0x4E6F7468696E6720746F20776974686472617700000000000000000000000000 PUSH0 DUP3 ADD MSTORE POP JUMP JUMPDEST PUSH0 PUSH2 0x24B5 PUSH1 0x13 DUP4 PUSH2 0x1E9C JUMP JUMPDEST SWAP2 POP PUSH2 0x24C0 DUP3 PUSH2 0x2481 JUMP JUMPDEST PUSH1 0x20 DUP3 ADD SWAP1 POP SWAP2 SWAP1 POP JUMP JUMPDEST PUSH0 PUSH1 0x20 DUP3 ADD SWAP1 POP DUP2 DUP2 SUB PUSH0 DUP4 ADD MSTORE PUSH2 0x24E2 DUP2 PUSH2 0x24A9 JUMP JUMPDEST SWAP1 POP SWAP2 SWAP1 POP JUMP JUMPDEST PUSH32 0x4E487B7100000000000000000000000000000000000000000000000000000000 PUSH0 MSTORE PUSH1 0x11 PUSH1 0x4 MSTORE PUSH1 0x24 PUSH0 REVERT JUMPDEST PUSH0 PUSH2 0x2520 DUP3 PUSH2 0x1F22 JUMP JUMPDEST SWAP2 POP PUSH32 0xFFFFFFFFFFFFFFFFFFFFFFFFFFFFFFFFFFFFFFFFFFFFFFFFFFFFFFFFFFFFFFFF DUP3 SUB PUSH2 0x2552 JUMPI PUSH2 0x2551 PUSH2 0x24E9 JUMP JUMPDEST JUMPDEST PUSH1 0x1 DUP3 ADD SWAP1 POP SWAP2 SWAP1 POP JUMP JUMPDEST PUSH0 PUSH2 0x2568 DUP4 DUP6 PUSH2 0x1E9C JUMP JUMPDEST SWAP4 POP PUSH2 0x2575 DUP4 DUP6 DUP5 PUSH2 0x22B5 JUMP JUMPDEST PUSH2 0x257E DUP4 PUSH2 0x1EBA JUMP JUMPDEST DUP5 ADD SWAP1 POP SWAP4 SWAP3 POP POP POP JUMP JUMPDEST PUSH0 PUSH1 0x20 DUP3 ADD SWAP1 POP DUP2 DUP2 SUB PUSH0 DUP4 ADD MSTORE PUSH2 0x25A2 DUP2 DUP5 DUP7 PUSH2 0x255D JUMP JUMPDEST SWAP1 POP SWAP4 SWAP3 POP POP POP JUMP JUMPDEST PUSH0 DUP2 SWAP1 POP SWAP3 SWAP2 POP POP JUMP JUMPDEST PUSH0 PUSH2 0x25BF DUP3 PUSH2 0x1E92 JUMP JUMPDEST PUSH2 0x25C9 DUP2 DUP6 PUSH2 0x25AB JUMP JUMPDEST SWAP4 POP PUSH2 0x25D9 DUP2 DUP6 PUSH1 0x20 DUP7 ADD PUSH2 0x1EAC JUMP JUMPDEST DUP1 DUP5 ADD SWAP2 POP POP SWAP3 SWAP2 POP POP JUMP JUMPDEST PUSH0 PUSH2 0x25F0 DUP3 DUP6 PUSH2 0x25B5 JUMP JUMPDEST SWAP2 POP PUSH2 0x25FC DUP3 DUP5 PUSH2 0x25B5 JUMP JUMPDEST SWAP2 POP DUP2 SWAP1 POP SWAP4 SWAP3 POP POP POP JUMP JUMPDEST PUSH32 0x496E766573746D656E74206D757374206265203E203000000000000000000000 PUSH0 DUP3 ADD MSTORE POP JUMP JUMPDEST PUSH0 PUSH2 0x263C PUSH1 0x16 DUP4 PUSH2 0x1E9C JUMP JUMPDEST SWAP2 POP PUSH2 0x2647 DUP3 PUSH2 0x2608 JUMP JUMPDEST PUSH1 0x20 DUP3 ADD SWAP1 POP SWAP2 SWAP1 POP JUMP JUMPDEST PUSH0 PUSH1 0x20 DUP3 ADD SWAP1 POP DUP2 DUP2 SUB PUSH0 DUP4 ADD MSTORE PUSH2 0x2669 DUP2 PUSH2 0x2630 JUMP JUMPDEST SWAP1 POP SWAP2 SWAP1 POP JUMP JUMPDEST PUSH0 PUSH2 0x267A DUP3 PUSH2 0x1F22 JUMP JUMPDEST SWAP2 POP PUSH2 0x2685 DUP4 PUSH2 0x1F22 JUMP JUMPDEST SWAP3 POP DUP3 DUP3 ADD SWAP1 POP DUP1 DUP3 GT ISZERO PUSH2 0x269D JUMPI PUSH2 0x269C PUSH2 0x24E9 JUMP JUMPDEST JUMPDEST SWAP3 SWAP2 POP POP JUMP JUMPDEST PUSH0 DUP2 SWAP1 POP DUP2 PUSH0 MSTORE PUSH1 0x20 PUSH0 KECCAK256 SWAP1 POP SWAP2 SWAP1 POP JUMP JUMPDEST PUSH0 PUSH1 0x20 PUSH1 0x1F DUP4 ADD DIV SWAP1 POP SWAP2 SWAP1 POP JUMP JUMPDEST PUSH0 DUP3 DUP3 SHL SWAP1 POP SWAP3 SWAP2 POP POP JUMP JUMPDEST PUSH0 PUSH1 0x8 DUP4 MUL PUSH2 0x26FF PUSH32 0xFFFFFFFFFFFFFFFFFFFFFFFFFFFFFFFFFFFFFFFFFFFFFFFFFFFFFFFFFFFFFFFF DUP3 PUSH2 0x26C4 JUMP JUMPDEST PUSH2 0x2709 DUP7 DUP4 PUSH2 0x26C4 JUMP JUMPDEST SWAP6 POP DUP1 NOT DUP5 AND SWAP4 POP DUP1 DUP7 AND DUP5 OR SWAP3 POP POP POP SWAP4 SWAP3 POP POP POP JUMP JUMPDEST PUSH0 DUP2 SWAP1 POP SWAP2 SWAP1 POP JUMP JUMPDEST PUSH0 PUSH2 0x2744 PUSH2 0x273F PUSH2 0x273A DUP5 PUSH2 0x1F22 JUMP JUMPDEST PUSH2 0x2721 JUMP JUMPDEST PUSH2 0x1F22 JUMP JUMPDEST SWAP1 POP SWAP2 SWAP1 POP JUMP JUMPDEST PUSH0 DUP2 SWAP1 POP SWAP2 SWAP1 POP JUMP JUMPDEST PUSH2 0x275D DUP4 PUSH2 0x272A JUMP JUMPDEST PUSH2 0x2771 PUSH2 0x2769 DUP3 PUSH2 0x274B JUMP JUMPDEST DUP5 DUP5 SLOAD PUSH2 0x26D0 JUMP JUMPDEST DUP3 SSTORE POP POP POP POP JUMP JUMPDEST PUSH0 PUSH0 SWAP1 POP SWAP1 JUMP JUMPDEST PUSH2 0x2788 PUSH2 0x2779 JUMP JUMPDEST PUSH2 0x2793 DUP2 DUP5 DUP5 PUSH2 0x2754 JUMP JUMPDEST POP POP POP JUMP JUMPDEST JUMPDEST DUP2 DUP2 LT ISZERO PUSH2 0x27B6 JUMPI PUSH2 0x27AB PUSH0 DUP3 PUSH2 0x2780 JUMP JUMPDEST PUSH1 0x1 DUP2 ADD SWAP1 POP PUSH2 0x2799 JUMP JUMPDEST POP POP JUMP JUMPDEST PUSH1 0x1F DUP3 GT ISZERO PUSH2 0x27FB JUMPI PUSH2 0x27CC DUP2 PUSH2 0x26A3 JUMP JUMPDEST PUSH2 0x27D5 DUP5 PUSH2 0x26B5 JUMP JUMPDEST DUP2 ADD PUSH1 0x20 DUP6 LT ISZERO PUSH2 0x27E4 JUMPI DUP2 SWAP1 POP JUMPDEST PUSH2 0x27F8 PUSH2 0x27F0 DUP6 PUSH2 0x26B5 JUMP JUMPDEST DUP4 ADD DUP3 PUSH2 0x2798 JUMP JUMPDEST POP POP JUMPDEST POP POP POP JUMP JUMPDEST PUSH0 DUP3 DUP3 SHR SWAP1 POP SWAP3 SWAP2 POP POP JUMP JUMPDEST PUSH0 PUSH2 0x281B PUSH0 NOT DUP5 PUSH1 0x8 MUL PUSH2 0x2800 JUMP JUMPDEST NOT DUP1 DUP4 AND SWAP2 POP POP SWAP3 SWAP2 POP POP JUMP JUMPDEST PUSH0 PUSH2 0x2833 DUP4 DUP4 PUSH2 0x280C JUMP JUMPDEST SWAP2 POP DUP3 PUSH1 0x2 MUL DUP3 OR SWAP1 POP SWAP3 SWAP2 POP POP JUMP JUMPDEST PUSH2 0x284C DUP3 PUSH2 0x1E92 JUMP JUMPDEST PUSH8 0xFFFFFFFFFFFFFFFF DUP2 GT ISZERO PUSH2 0x2865 JUMPI PUSH2 0x2864 PUSH2 0x220D JUMP JUMPDEST JUMPDEST PUSH2 0x286F DUP3 SLOAD PUSH2 0x241C JUMP JUMPDEST PUSH2 0x287A DUP3 DUP3 DUP6 PUSH2 0x27BA JUMP JUMPDEST PUSH0 PUSH1 0x20 SWAP1 POP PUSH1 0x1F DUP4 GT PUSH1 0x1 DUP2 EQ PUSH2 0x28AB JUMPI PUSH0 DUP5 ISZERO PUSH2 0x2899 JUMPI DUP3 DUP8 ADD MLOAD SWAP1 POP JUMPDEST PUSH2 0x28A3 DUP6 DUP3 PUSH2 0x2828 JUMP JUMPDEST DUP7 SSTORE POP PUSH2 0x290A JUMP JUMPDEST PUSH1 0x1F NOT DUP5 AND PUSH2 0x28B9 DUP7 PUSH2 0x26A3 JUMP JUMPDEST PUSH0 JUMPDEST DUP3 DUP2 LT ISZERO PUSH2 0x28E0 JUMPI DUP5 DUP10 ADD MLOAD DUP3 SSTORE PUSH1 0x1 DUP3 ADD SWAP2 POP PUSH1 0x20 DUP6 ADD SWAP5 POP PUSH1 0x20 DUP2 ADD SWAP1 POP PUSH2 0x28BB JUMP JUMPDEST DUP7 DUP4 LT ISZERO PUSH2 0x28FD JUMPI DUP5 DUP10 ADD MLOAD PUSH2 0x28F9 PUSH1 0x1F DUP10 AND DUP3 PUSH2 0x280C JUMP JUMPDEST DUP4 SSTORE POP JUMPDEST PUSH1 0x1 PUSH1 0x2 DUP9 MUL ADD DUP9 SSTORE POP POP POP JUMPDEST POP POP POP POP POP POP JUMP JUMPDEST PUSH0 DUP2 MLOAD SWAP1 POP SWAP2 SWAP1 POP JUMP JUMPDEST PUSH0 DUP3 DUP3 MSTORE PUSH1 0x20 DUP3 ADD SWAP1 POP SWAP3 SWAP2 POP POP JUMP JUMPDEST PUSH0 PUSH2 0x2936 DUP3 PUSH2 0x2912 JUMP JUMPDEST PUSH2 0x2940 DUP2 DUP6 PUSH2 0x291C JUMP JUMPDEST SWAP4 POP PUSH2 0x2950 DUP2 DUP6 PUSH1 0x20 DUP7 ADD PUSH2 0x1EAC JUMP JUMPDEST PUSH2 0x2959 DUP2 PUSH2 0x1EBA JUMP JUMPDEST DUP5 ADD SWAP2 POP POP SWAP3 SWAP2 POP POP JUMP JUMPDEST PUSH0 PUSH1 0x80 DUP3 ADD SWAP1 POP PUSH2 0x2977 PUSH0 DUP4 ADD DUP8 PUSH2 0x1FB0 JUMP JUMPDEST PUSH2 0x2984 PUSH1 0x20 DUP4 ADD DUP7 PUSH2 0x1FB0 JUMP JUMPDEST PUSH2 0x2991 PUSH1 0x40 DUP4 ADD DUP6 PUSH2 0x2090 JUMP JUMPDEST DUP2 DUP2 SUB PUSH1 0x60 DUP4 ADD MSTORE PUSH2 0x29A3 DUP2 DUP5 PUSH2 0x292C JUMP JUMPDEST SWAP1 POP SWAP6 SWAP5 POP POP POP POP POP JUMP JUMPDEST PUSH0 DUP2 MLOAD SWAP1 POP PUSH2 0x29BC DUP2 PUSH2 0x1E0A JUMP JUMPDEST SWAP3 SWAP2 POP POP JUMP JUMPDEST PUSH0 PUSH1 0x20 DUP3 DUP5 SUB SLT ISZERO PUSH2 0x29D7 JUMPI PUSH2 0x29D6 PUSH2 0x1DD7 JUMP JUMPDEST JUMPDEST PUSH0 PUSH2 0x29E4 DUP5 DUP3 DUP6 ADD PUSH2 0x29AE JUMP JUMPDEST SWAP2 POP POP SWAP3 SWAP2 POP POP JUMP JUMPDEST PUSH0 PUSH1 0x40 DUP3 ADD SWAP1 POP PUSH2 0x2A00 PUSH0 DUP4 ADD DUP6 PUSH2 0x1FB0 JUMP JUMPDEST PUSH2 0x2A0D PUSH1 0x20 DUP4 ADD DUP5 PUSH2 0x2090 JUMP JUMPDEST SWAP4 SWAP3 POP POP POP JUMP JUMPDEST PUSH32 0x4E487B7100000000000000000000000000000000000000000000000000000000 PUSH0 MSTORE PUSH1 0x12 PUSH1 0x4 MSTORE PUSH1 0x24 PUSH0 REVERT INVALID LOG2 PUSH5 0x6970667358 0x22 SLT KECCAK256 XOR 0xCB 0xDC PC CALLDATASIZE 0xB7 EQ RJUMPI 0x8D08 BALANCE 0xE9 JUMPI CALLVALUE SWAP14 0xEA LOG4 POP CALLDATACOPY LOG1 0xDD SGT GASPRICE 0x22 0xF7 GAS 0xF7 0xB6 SWAP3 0xDA SSTORE MSIZE PUSH5 0x736F6C6343 STOP ADDMOD 0x1E STOP CALLER "
		},
		"gasEstimates": {
			"creation": {
				"codeDepositCost": "2174200",
				"executionCost": "infinite",
				"totalCost": "infinite"
			},
			"external": {
				"approve(address,uint256)": "infinite",
				"balanceOf(address)": "infinite",
				"contractBalance()": "401",
				"getApproved(uint256)": "infinite",
				"invest()": "infinite",
				"isApprovedForAll(address,address)": "infinite",
				"mintGlacier(address,string)": "infinite",
				"name()": "infinite",
				"nextId()": "2514",
				"owner()": "2604",
				"ownerOf(uint256)": "infinite",
				"renounceOwnership()": "infinite",
				"safeTransferFrom(address,address,uint256)": "infinite",
				"safeTransferFrom(address,address,uint256,bytes)": "infinite",
				"setApprovalForAll(address,bool)": "infinite",
				"supportsInterface(bytes4)": "881",
				"symbol()": "infinite",
				"tokenURI(uint256)": "infinite",
				"totalInvested()": "2492",
				"transferFrom(address,address,uint256)": "infinite",
				"transferOwnership(address)": "infinite",
				"withdraw()": "infinite"
			}
		},
		"methodIdentifiers": {
			"approve(address,uint256)": "095ea7b3",
			"balanceOf(address)": "70a08231",
			"contractBalance()": "8b7afe2e",
			"getApproved(uint256)": "081812fc",
			"invest()": "e8b5e51f",
			"isApprovedForAll(address,address)": "e985e9c5",
			"mintGlacier(address,string)": "66138686",
			"name()": "06fdde03",
			"nextId()": "61b8ce8c",
			"owner()": "8da5cb5b",
			"ownerOf(uint256)": "6352211e",
			"renounceOwnership()": "715018a6",
			"safeTransferFrom(address,address,uint256)": "42842e0e",
			"safeTransferFrom(address,address,uint256,bytes)": "b88d4fde",
			"setApprovalForAll(address,bool)": "a22cb465",
			"supportsInterface(bytes4)": "01ffc9a7",
			"symbol()": "95d89b41",
			"tokenURI(uint256)": "c87b56dd",
			"totalInvested()": "5216aeec",
			"transferFrom(address,address,uint256)": "23b872dd",
			"transferOwnership(address)": "f2fde38b",
			"withdraw()": "3ccfd60b"
		}
	},
	"abi": [
		{
			"inputs": [],
			"stateMutability": "nonpayable",
			"type": "constructor"
		},
		{
			"inputs": [
				{
					"internalType": "address",
					"name": "sender",
					"type": "address"
				},
				{
					"internalType": "uint256",
					"name": "tokenId",
					"type": "uint256"
				},
				{
					"internalType": "address",
					"name": "owner",
					"type": "address"
				}
			],
			"name": "ERC721IncorrectOwner",
			"type": "error"
		},
		{
			"inputs": [
				{
					"internalType": "address",
					"name": "operator",
					"type": "address"
				},
				{
					"internalType": "uint256",
					"name": "tokenId",
					"type": "uint256"
				}
			],
			"name": "ERC721InsufficientApproval",
			"type": "error"
		},
		{
			"inputs": [
				{
					"internalType": "address",
					"name": "approver",
					"type": "address"
				}
			],
			"name": "ERC721InvalidApprover",
			"type": "error"
		},
		{
			"inputs": [
				{
					"internalType": "address",
					"name": "operator",
					"type": "address"
				}
			],
			"name": "ERC721InvalidOperator",
			"type": "error"
		},
		{
			"inputs": [
				{
					"internalType": "address",
					"name": "owner",
					"type": "address"
				}
			],
			"name": "ERC721InvalidOwner",
			"type": "error"
		},
		{
			"inputs": [
				{
					"internalType": "address",
					"name": "receiver",
					"type": "address"
				}
			],
			"name": "ERC721InvalidReceiver",
			"type": "error"
		},
		{
			"inputs": [
				{
					"internalType": "address",
					"name": "sender",
					"type": "address"
				}
			],
			"name": "ERC721InvalidSender",
			"type": "error"
		},
		{
			"inputs": [
				{
					"internalType": "uint256",
					"name": "tokenId",
					"type": "uint256"
				}
			],
			"name": "ERC721NonexistentToken",
			"type": "error"
		},
		{
			"inputs": [
				{
					"internalType": "address",
					"name": "owner",
					"type": "address"
				}
			],
			"name": "OwnableInvalidOwner",
			"type": "error"
		},
		{
			"inputs": [
				{
					"internalType": "address",
					"name": "account",
					"type": "address"
				}
			],
			"name": "OwnableUnauthorizedAccount",
			"type": "error"
		},
		{
			"anonymous": false,
			"inputs": [
				{
					"indexed": true,
					"internalType": "address",
					"name": "owner",
					"type": "address"
				},
				{
					"indexed": true,
					"internalType": "address",
					"name": "approved",
					"type": "address"
				},
				{
					"indexed": true,
					"internalType": "uint256",
					"name": "tokenId",
					"type": "uint256"
				}
			],
			"name": "Approval",
			"type": "event"
		},
		{
			"anonymous": false,
			"inputs": [
				{
					"indexed": true,
					"internalType": "address",
					"name": "owner",
					"type": "address"
				},
				{
					"indexed": true,
					"internalType": "address",
					"name": "operator",
					"type": "address"
				},
				{
					"indexed": false,
					"internalType": "bool",
					"name": "approved",
					"type": "bool"
				}
			],
			"name": "ApprovalForAll",
			"type": "event"
		},
		{
			"anonymous": false,
			"inputs": [
				{
					"indexed": false,
					"internalType": "uint256",
					"name": "_fromTokenId",
					"type": "uint256"
				},
				{
					"indexed": false,
					"internalType": "uint256",
					"name": "_toTokenId",
					"type": "uint256"
				}
			],
			"name": "BatchMetadataUpdate",
			"type": "event"
		},
		{
			"anonymous": false,
			"inputs": [
				{
					"indexed": true,
					"internalType": "uint256",
					"name": "tokenId",
					"type": "uint256"
				},
				{
					"indexed": true,
					"internalType": "address",
					"name": "owner",
					"type": "address"
				},
				{
					"indexed": false,
					"internalType": "string",
					"name": "uri",
					"type": "string"
				}
			],
			"name": "GlacierMinted",
			"type": "event"
		},
		{
			"anonymous": false,
			"inputs": [
				{
					"indexed": true,
					"internalType": "address",
					"name": "investor",
					"type": "address"
				},
				{
					"indexed": false,
					"internalType": "uint256",
					"name": "amount",
					"type": "uint256"
				}
			],
			"name": "Invested",
			"type": "event"
		},
		{
			"anonymous": false,
			"inputs": [
				{
					"indexed": false,
					"internalType": "uint256",
					"name": "_tokenId",
					"type": "uint256"
				}
			],
			"name": "MetadataUpdate",
			"type": "event"
		},
		{
			"anonymous": false,
			"inputs": [
				{
					"indexed": true,
					"internalType": "address",
					"name": "previousOwner",
					"type": "address"
				},
				{
					"indexed": true,
					"internalType": "address",
					"name": "newOwner",
					"type": "address"
				}
			],
			"name": "OwnershipTransferred",
			"type": "event"
		},
		{
			"anonymous": false,
			"inputs": [
				{
					"indexed": true,
					"internalType": "address",
					"name": "from",
					"type": "address"
				},
				{
					"indexed": true,
					"internalType": "address",
					"name": "to",
					"type": "address"
				},
				{
					"indexed": true,
					"internalType": "uint256",
					"name": "tokenId",
					"type": "uint256"
				}
			],
			"name": "Transfer",
			"type": "event"
		},
		{
			"anonymous": false,
			"inputs": [
				{
					"indexed": true,
					"internalType": "address",
					"name": "owner",
					"type": "address"
				},
				{
					"indexed": false,
					"internalType": "uint256",
					"name": "amount",
					"type": "uint256"
				}
			],
			"name": "Withdrawn",
			"type": "event"
		},
		{
			"inputs": [
				{
					"internalType": "address",
					"name": "to",
					"type": "address"
				},
				{
					"internalType": "uint256",
					"name": "tokenId",
					"type": "uint256"
				}
			],
			"name": "approve",
			"outputs": [],
			"stateMutability": "nonpayable",
			"type": "function"
		},
		{
			"inputs": [
				{
					"internalType": "address",
					"name": "owner",
					"type": "address"
				}
			],
			"name": "balanceOf",
			"outputs": [
				{
					"internalType": "uint256",
					"name": "",
					"type": "uint256"
				}
			],
			"stateMutability": "view",
			"type": "function"
		},
		{
			"inputs": [],
			"name": "contractBalance",
			"outputs": [
				{
					"internalType": "uint256",
					"name": "",
					"type": "uint256"
				}
			],
			"stateMutability": "view",
			"type": "function"
		},
		{
			"inputs": [
				{
					"internalType": "uint256",
					"name": "tokenId",
					"type": "uint256"
				}
			],
			"name": "getApproved",
			"outputs": [
				{
					"internalType": "address",
					"name": "",
					"type": "address"
				}
			],
			"stateMutability": "view",
			"type": "function"
		},
		{
			"inputs": [],
			"name": "invest",
			"outputs": [],
			"stateMutability": "payable",
			"type": "function"
		},
		{
			"inputs": [
				{
					"internalType": "address",
					"name": "owner",
					"type": "address"
				},
				{
					"internalType": "address",
					"name": "operator",
					"type": "address"
				}
			],
			"name": "isApprovedForAll",
			"outputs": [
				{
					"internalType": "bool",
					"name": "",
					"type": "bool"
				}
			],
			"stateMutability": "view",
			"type": "function"
		},
		{
			"inputs": [
				{
					"internalType": "address",
					"name": "to",
					"type": "address"
				},
				{
					"internalType": "string",
					"name": "tokenURI",
					"type": "string"
				}
			],
			"name": "mintGlacier",
			"outputs": [
				{
					"internalType": "uint256",
					"name": "",
					"type": "uint256"
				}
			],
			"stateMutability": "nonpayable",
			"type": "function"
		},
		{
			"inputs": [],
			"name": "name",
			"outputs": [
				{
					"internalType": "string",
					"name": "",
					"type": "string"
				}
			],
			"stateMutability": "view",
			"type": "function"
		},
		{
			"inputs": [],
			"name": "nextId",
			"outputs": [
				{
					"internalType": "uint256",
					"name": "",
					"type": "uint256"
				}
			],
			"stateMutability": "view",
			"type": "function"
		},
		{
			"inputs": [],
			"name": "owner",
			"outputs": [
				{
					"internalType": "address",
					"name": "",
					"type": "address"
				}
			],
			"stateMutability": "view",
			"type": "function"
		},
		{
			"inputs": [
				{
					"internalType": "uint256",
					"name": "tokenId",
					"type": "uint256"
				}
			],
			"name": "ownerOf",
			"outputs": [
				{
					"internalType": "address",
					"name": "",
					"type": "address"
				}
			],
			"stateMutability": "view",
			"type": "function"
		},
		{
			"inputs": [],
			"name": "renounceOwnership",
			"outputs": [],
			"stateMutability": "nonpayable",
			"type": "function"
		},
		{
			"inputs": [
				{
					"internalType": "address",
					"name": "from",
					"type": "address"
				},
				{
					"internalType": "address",
					"name": "to",
					"type": "address"
				},
				{
					"internalType": "uint256",
					"name": "tokenId",
					"type": "uint256"
				}
			],
			"name": "safeTransferFrom",
			"outputs": [],
			"stateMutability": "nonpayable",
			"type": "function"
		},
		{
			"inputs": [
				{
					"internalType": "address",
					"name": "from",
					"type": "address"
				},
				{
					"internalType": "address",
					"name": "to",
					"type": "address"
				},
				{
					"internalType": "uint256",
					"name": "tokenId",
					"type": "uint256"
				},
				{
					"internalType": "bytes",
					"name": "data",
					"type": "bytes"
				}
			],
			"name": "safeTransferFrom",
			"outputs": [],
			"stateMutability": "nonpayable",
			"type": "function"
		},
		{
			"inputs": [
				{
					"internalType": "address",
					"name": "operator",
					"type": "address"
				},
				{
					"internalType": "bool",
					"name": "approved",
					"type": "bool"
				}
			],
			"name": "setApprovalForAll",
			"outputs": [],
			"stateMutability": "nonpayable",
			"type": "function"
		},
		{
			"inputs": [
				{
					"internalType": "bytes4",
					"name": "interfaceId",
					"type": "bytes4"
				}
			],
			"name": "supportsInterface",
			"outputs": [
				{
					"internalType": "bool",
					"name": "",
					"type": "bool"
				}
			],
			"stateMutability": "view",
			"type": "function"
		},
		{
			"inputs": [],
			"name": "symbol",
			"outputs": [
				{
					"internalType": "string",
					"name": "",
					"type": "string"
				}
			],
			"stateMutability": "view",
			"type": "function"
		},
		{
			"inputs": [
				{
					"internalType": "uint256",
					"name": "tokenId",
					"type": "uint256"
				}
			],
			"name": "tokenURI",
			"outputs": [
				{
					"internalType": "string",
					"name": "",
					"type": "string"
				}
			],
			"stateMutability": "view",
			"type": "function"
		},
		{
			"inputs": [],
			"name": "totalInvested",
			"outputs": [
				{
					"internalType": "uint256",
					"name": "",
					"type": "uint256"
				}
			],
			"stateMutability": "view",
			"type": "function"
		},
		{
			"inputs": [
				{
					"internalType": "address",
					"name": "from",
					"type": "address"
				},
				{
					"internalType": "address",
					"name": "to",
					"type": "address"
				},
				{
					"internalType": "uint256",
					"name": "tokenId",
					"type": "uint256"
				}
			],
			"name": "transferFrom",
			"outputs": [],
			"stateMutability": "nonpayable",
			"type": "function"
		},
		{
			"inputs": [
				{
					"internalType": "address",
					"name": "newOwner",
					"type": "address"
				}
			],
			"name": "transferOwnership",
			"outputs": [],
			"stateMutability": "nonpayable",
			"type": "function"
		},
		{
			"inputs": [],
			"name": "withdraw",
			"outputs": [],
			"stateMutability": "nonpayable",
			"type": "function"
		}
	]
}